:02000004000EEC
:1040000000000420B5420E00DD420E00DF420E002B
:10401000E1420E00E3420E00E5420E000000000007
:10402000000000000000000000000000E7420E0059
:10403000E9420E0000000000EB420E00ED420E00CF
:10404000EF420E00EF420E00D1610E00EF420E0073
:10405000EF420E00EF420E00EF420E00EF420E0064
:10406000EF420E00EF420E00EF420E00EF420E0054
:10407000EF420E00EF420E00EF420E00EF420E0044
:10408000117B0E00EF420E00EF420E00EF420E00D9
:10409000EF420E00EF420E00EF420E00EF420E0024
:1040A000EF420E00EF420E00EF420E00EF420E0014
:1040B000EF420E00EF420E00000000000000000082
:1040C000EF420E00EF420E00EF420E00EF420E00F4
:1040D00079740E00EF420E00EF420E00EF420E0028
:1040E000EF420E00EF420E00BDBD0E0000000000CA
:1040F00000000000EF420E0000000000EF420E0042
:1041000000000000000000000000000000000000AF
:10411000000000000000000000000000000000009F
:10412000000000000000000000000000000000008F
:10413000000000000000000000000000000000007F
:10414000000000000000000000000000000000006F
:10415000000000000000000000000000000000005F
:10416000000000000000000000000000000000004F
:10417000000000000000000000000000000000003F
:10418000000000000000000000000000000000002F
:10419000000000000000000000000000000000001F
:1041A000000000000000000000000000000000000F
:1041B00000000000000000000000000000000000FF
:1041C00000000000000000000000000000000000EF
:1041D00000000000000000000000000000000000DF
:1041E00000000000000000000000000000000000CF
:1041F00000000000000000000000000000000000BF
:1042000010B5054C237833B9044B13B10448AFF310
:1042100000800123237010BD3C020020000000003C
:1042200040EC0E0008B5034B1BB103490348AFF344
:10423000008008BD000000004002002040EC0E009D
:10424000154B002B08BF134B9D46A3F5803A002168
:104250008B460F461348144A121A07F033FE0F4BD1
:10426000002B00D098470E4B002B00D09847002021
:10427000002104000D000D48002802D00C48AFF3C7
:10428000008007F0C1FD2000290002F0E9FC07F0E2
:10429000A7FD00BF0000080000000420000000008F
:1042A000000000003C020020E8490020000000005F
:1042B000000000000649074A074B9B1A03DD043B38
:1042C000C858D050FBDC00F011FEFFF7B9FF00002A
:1042D000FCEC0E00080000203C020020FEE7FEE798
:1042E000FEE7FEE7FEE7FEE7FEE7FEE7FEE7FEE7A6
:1042F0007047000007B5044B0093044A402300F0C8
:1043000032F803B05DF804FB11430E00590200209F
:104310002DE9F84389461446B2B10F4B0F4E0325E1
:10432000002743F00108224609EB0701002002F0B4
:1043300061FD0744241A48B933782BB14FF47A4011
:10434000C047013D02D13570BDE8F88301233370C9
:10435000002CE8D1F8E700BF30BF0E005802002063
:10436000704702F07BBDF0B595B01C461646084676
:104370000D4601F0B2FD1A9B0D93CDE908640024AF
:104380002346082205A928460A948DF82C400C944F
:1043900001F0CCFD079B0293BDF81830ADF80C304E
:1043A000BDF81A30ADF80E309DF814308DF811407C
:1043B00003F00302012A1DD1BDF81440059EC3F38A
:1043C000C203C4F383148DF81030A20008230EA991
:1043D000284601F0ABFDC6F3952608AB00932246B4
:1043E00002AB0EA9304600F025FC284601F079FD0D
:1043F00015B0F0BD022AF8D1BDF81640C3F3C203D0
:10440000A4098DF810300827082C264628BF082656
:104410003B4632460EA9284601F088FDA41B08AB96
:1044200002AA31460EA8374400F068FC002CEBD1FC
:10443000DBE7000008B5FFF794FF0421064800F011
:104440005DFB002803DA0549412001F067F8044BC1
:1044500001225A7108BD00BFE4EC0E0044BF0E00FB
:1044600008000020037813F0040216D003F00303C1
:10447000012B03D0022B09D0012070470A68008865
:104480000232C0F3831002440A60F5E70B684288E9
:10449000023303EB92130B60EEE710467047000007
:1044A0002DE9F04F484CDFF8288187B00D460646CD
:1044B000871C0020009200F0F5FF23682B60D4E9F0
:1044C00001231344226801339B1AA8F1040BA8F1BD
:1044D0000809BB4219D3009A0023002A6CD001229C
:1044E00062F3010343F0040366F389132168A268B1
:1044F0000A4003320F44002044F82230276000F0C5
:10450000E1FF012007B0BDE8F08F0121404601F036
:1045100048F8584601F05EF80DF1180A484601F0D7
:1045200059F860684AF8100DA5682840033004EB7C
:1045300080005146FFF796FF02460298002AF4D108
:1045400005EA000304EB8303811CDB68039301305D
:10455000054004EB850503F00303012B0291ED6890
:1045600023D0022B08D0194901924FF4BF7000F0FC
:10457000D5FF019A154607E0BDF80E309B090333BD
:104580002D0C01EB93030293484601F026F808B185
:10459000029B63602946404601F003F8D4E90123F9
:1045A0001344226801339B1A93E7BDF80C30C3F320
:1045B00083132D0C0B44E6E7022262F3010343F060
:1045C000040366F39F5391E76C0300209BBF0E002A
:1045D000881300200D4B0E4840F2FF3241F21801C3
:1045E00010B59A6000225A5041F21401C3E900222A
:1045F0005A5003F581531A7001F028FC044610B993
:10460000044801F0A9FC204610BD00BF6C03002047
:10461000BCEC0E00DCBF0E0030B50A4C71B10A4A8A
:104620000A49121BD20800239A4201D1002030BD52
:1046300031F82350854202D00133F5E7034654F8A0
:104640003300F4E754EC0E00BCEC0E003C020020FA
:10465000094B013903EBC000032909D8DFE801F059
:104660000A020406042070470079704740797047B9
:10467000002070470220704754EC0E00034BD3E932
:104680000030C31A58425841704700BF6C030020E5
:104690002DE9F04385B0FFF7F1FF0646002840F012
:1046A0000381824D41F21803E850BFF34F8F6868D1
:1046B000AC68DFF8108204AF47F8100D20400330DB
:1046C00005EB80003946FFF7CDFE009B18B1D8F806
:1046D0000020002A61D004EA0302991C013305EB93
:1046E0008202234005EB8303D268DB68029302F069
:1046F0000303022B0192009167D1BDF806306C488C
:104700004FEA9318B8F1500FC14628BF4FF0500937
:1047100069F38F1309F10801ADF8063001F0AEFB23
:104720000746002800F0AA8001F0D7FB01A900236A
:104730000822384601F0E4FB009924EA010601361C
:10474000B600B1453AD95FFA89F9A6B3F6B2A9EB3A
:104750000609214003315FFA89F4B146554E05EB55
:10476000810108234A46384601F0CAFB36B109F1F7
:10477000080322463146384601F0C2FB009B08F18F
:10478000030803EB9803009341F21803EB58002B46
:104790004FD141F21003EC585EE02A689A4204D8E7
:1047A0006A60304605B0BDE8F08304EA03000330D8
:1047B00005EB800086E73F493446D2E721400331CC
:1047C00008234A4605EB8101D5E7012B56D1BDF8F8
:1047D00004303748C3F38311062928BF062161F34B
:1047E000891302318900ADF8043001F047FB074618
:1047F000002843D001F071FB0023082201A93846AC
:1048000001F07EFB0026BDF80420C2F38312B31C26
:1048100096424FEA8303B7D200994A1C21400331E4
:10482000009205EB81010422384601F069FB013654
:10483000E9E7384601F055FBFFF720FF80F0010063
:10484000C6B2AEE7E3685B7923B1236839461B68DB
:1048500020469847E3681C68002CF3D1384601F0E5
:1048600040FB204600F01EFE41F21803EB580BB946
:10487000009B6B60002000F025FEDDE741F2100395
:10488000EC5854B90C4B0D480D49C01AC00800042F
:1048900040F0020000F086F8CEE7236820469B68CF
:1048A0009847E3681C68ECE700267AE76C03002071
:1048B000BCEC0E007803002054EC0E0064EC0E00FB
:1048C000E8BF0E00841300202DE9F74F2F4D8046DE
:1048D0000F46914601A9012218469B46D5F808A02B
:1048E000FFF7DEFD00283DD0019C0026A11C5E459F
:1048F00006EB010240D10021254800F01CFE80F3A8
:10490000100B244B244A4FEA18499B1AB9EBD30FDA
:1049100004D3224940F2A31000F000FE631C03EA16
:104920000A0305EB830349EA0B42DA6004EA0A034F
:104930000333012115F8232068F3C50205F823206D
:1049400035F8232066F3891225F8232055F8232013
:1049500067F39F2245F8232061F301026FF382027F
:1049600005F823200E4B1B781BB1FFF791FE0028A2
:10497000FBD103B0BDE8F08F0AEA020205EB820228
:1049800059F82630D3600136B1E700BF6C03002030
:1049900088130020BCEC0E0054EC0E009BBF0E00F0
:1049A0008C13002000231A46FFF78EBF13B502AC0C
:1049B000012344F8042D2246FFF786FF02B010BD04
:1049C00007B5CDE9002302236A46FFF77DFF03B058
:1049D0005DF804FB1FB5CDE90123069B039301AAF3
:1049E0000323FFF771FF05B05DF804FB1FB5CDE9A8
:1049F0000023069B0293079B03936A460423FFF759
:104A000063FF05B05DF804FB7FB5CDE90123089B8A
:104A10000393099B04930A9B059301AA0523FFF7BF
:104A200053FF07B05DF804FB2DE9F3478046304C97
:104A3000D01C8A46174601A900228008A568FFF706
:104A40002FFD002840D0DDF80490A66809F102008F
:104A5000019001362840361AB6000330B74204EB05
:104A600080003BD83A46514607F021FA0021214800
:104A700000F061FD80F3100009F101032B4004EB0D
:104A800083034FEA184242EA0040D86005EA09036E
:104A9000033304EB830214F8231068F3C50104F810
:104AA000231034F823106FF38F1124F8231051884A
:104AB00067F38F11518014F82320022161F3010262
:104AC0006FF3820204F823200B4B1B781BB1FFF716
:104AD000DFFD0028FBD102B0BDE8F0873246514629
:104AE00007F0E5F9BA1B0AEB060104F10C00BBE77D
:104AF0006C030020881300208C13002030B541F295
:104B00001003124AD4580023214651B9C4682371B6
:104B100041F21004155955B91051C2681160184678
:104B200030BDC9680D799D4209D00968EDE7ED688F
:104B3000C1682D680D601259D2681060EFE701332B
:104B40000A2BE1D14FF0FF33E9E700BF6C030020EF
:104B500038B541F21002094B9C5803F581520123EC
:104B600013701D4604B938BDE3685D7123682046A3
:104B70005B689847E3681C68F4E700BF6C0300209B
:104B800010B5037A052B0C460FD0437A23B1084A9F
:104B90000849204600F0C6FD0749204600F0C2FD46
:104BA0002046BDE8104000F0ABBD002AF8D0F3E786
:104BB00033C00E0042E20E0055C00E0073B5C3882C
:104BC00004460D4633B1144A00921449144A28464B
:104BD00000F0A8FD217A05291CD0637A4BB1A0888A
:104BE000FFF736FD0F4B104953F82020284600F000
:104BF00099FD227A0D4BA08853F822600021FFF71F
:104C00000BFD0B4903463246284602B0BDE8704012
:104C100000F088BD02B070BD33C00E0040C00E0071
:104C200038C00E0000C00E0042E20E0064C00E004C
:104C300058C00E002DE9F04385B01F460C9D00239F
:104C400006460C46904695F80C902B73294638463C
:104C5000FFF7B4FFB8F1060F09D8DFE808F0041237
:104C6000181F283340003146284600F05BFD002223
:104C700029463846FFF784FF85F80C9005B0BDE85B
:104C8000F08322683146284600F04CFDEFE7D4E976
:104C900000233146284600F045FDE8E7A36800936D
:104CA0003146D4E90023284600F03CFDDFE7E36805
:104CB0000193A36800933146D4E90023284600F00D
:104CC00031FDD4E723690293E3680193A36800935D
:104CD0003146D4E90023284600F024FDC7E7636984
:104CE000039323690293E3680193A3680093314619
:104CF000D4E90023284600F015FDB8E708292DE97E
:104D0000F84F80460E4617461C4635D8002593F8C6
:104D10000C901D7319461046FFF750FFDFF88CA06A
:104D2000DFF88CB0AE4229D918F805205946204644
:104D300000F0F8FC0135082DF4D11A49DFF874B001
:104D4000204600F0EFFC4FF0000A564524D918F831
:104D50000A507E2D17D92E225946204600F0E2FC3B
:104D60000AF1010ABAF1080FEFD1012221463846B3
:104D7000FFF706FF84F80C90BDE8F88F51462046F7
:104D800000F0D0FCD6E707F063F82844427812F030
:104D9000970FE0D02A46DFE70349204600F0C2FC27
:104DA000DEE700BF2EC00E002CC00E002AC00E0091
:104DB00024C00E0030C00E0010B503682F2B04462F
:104DC00004D9074940F2CD1000F0A8FB23681F2B3F
:104DD00083BF03F01F03236002484FF0A04010BDC3
:104DE000FBC00E0000030050032813B5044603D98E
:104DF0000849412000F092FB074B02A81B5D40F8D8
:104E0000043DFFF7D9FF019A01239340C0F80C3508
:104E100002B010BDC9C00E00F7C00E00032813B5C4
:104E2000044603D90849472000F078FB074B02A845
:104E30001B5D40F8043DFFF7BFFF019A012393403B
:104E4000C0F8083502B010BDC9C00E00F7C00E0092
:104E500008B50020FFF7E2FF0120FFF7DFFF022087
:104E6000FFF7DCFF0320BDE80840FFF7D7BF0000D5
:104E7000F7B5C207054611D5124F00240326E35D9E
:104E800000936846FFF798FF009B013403F5E07339
:104E9000042C40F82360F2D1FFF7DAFFAB070FD5FF
:104EA000094E00240C25A35D019301A8FFF784FFA0
:104EB000019B013403F5E073042C40F82350F2D138
:104EC00003B0F0BDF7C00E00F3C00E00054B1B6829
:104ED000082B01BF044B1868B0FA80F0400918BFD6
:104EE00000207047300100103401001008B54FF069
:104EF00080430022C3F80C21C3F81021C3F83825E1
:104F00004FF0805203F54043D2F80414C3F8201543
:104F1000D2F80814C3F82415D2F80C14C3F82815D5
:104F2000D2F81014C3F82C15D2F81414C3F83015A5
:104F3000D2F81814C3F83415D2F81C14C3F840156D
:104F4000D2F82014C3F84415D2F82414C3F8481535
:104F5000D2F82814C3F84C15D2F82C14C3F8501505
:104F6000D2F83014C3F85415D2F83414C3F86015CD
:104F7000D2F83814C3F86415D2F83C14C3F8681595
:104F8000D2F84014C3F86C15D2F84424C3F8702545
:104F9000FFF79CFF10B1384B384A1A60FFF796FFB5
:104FA00018B1374BFB22C3F81825FFF78FFF48B124
:104FB0003449354B0A681B6822F00F0203F00F03D7
:104FC00013430B60FFF782FF18B1304B4FF40072B0
:104FD0001A604FF08043D3F80024D20744BF6FF02B
:104FE0000102C3F800242A4AD2F8883043F470033F
:104FF000C2F88830BFF34F8FBFF36F8F4FF010238D
:10500000D3F80022002A03DBD3F80432002B2FDA76
:10501000204B0122C3F80425D3F80024002AFBD03A
:105020004FF010221221C2F80012D3F80024002AF7
:10503000FBD04FF010231222C3F80422154B1A465E
:10504000D3F800140029FBD00021C3F80415D2F8CE
:105050000034002BFBD0BFF34F8F0D490E4BCA68B5
:1050600002F4E0621343CB60BFF34F8F00BFFDE754
:105070000A4B0B4A1A6008BD8C5600404881030059
:1050800000F00040E40E004058020010409602403C
:1050900000ED00E000E001400400FA0510000020EF
:1050A0000090D00338B52022044608300D4606F0A3
:1050B000FEFE2022A91804F1280006F0F8FE0020C8
:1050C00038BD00002DE9F3411B4D98461B4B036092
:1050D00004460E4628460121174600F02CFABFF37D
:1050E0005F8F20BB00F0ECF83B46089ACDF80080BB
:1050F00006F10801204605F00FFD044600F0EEF829
:105100002B68012B03D00E49932000F007FABFF360
:105110005F8F00232B606CB10A4A48F2425348F279
:105120001650944208BF184602B0BDE8F08148F21C
:105130000450F9E72046F7E7EC450020DD55AABB0F
:1051400034C10E008408F0000C4B98420DD006D8F4
:1051500020B1013B98420BD048F216507047084BE3
:10516000984208D00D339842F6D148F20350704768
:1051700048F20150704748F2025070470102F000B7
:105180000202F00008B5083005F030FDBDE8084027
:10519000FFF7DABF10B5064C2268012A03D0054993
:1051A000932000F0BBF9BFF35F8F0023236010BD95
:1051B000EC45002034C10E0013681F2B70B5054666
:1051C0000E46144619D901210F4800F0B4F9BFF377
:1051D0005F8FA8B900F074F8314605F1080005F0BA
:1051E00077FD054600F07AF8FFF7D4FF2846FFF771
:1051F000ABFF08B92023236070BD48F21450FBE7D1
:1052000048F20450F8E700BFEC4500202DE9F041DA
:1052100007460E4617480121144600F08CF9BFF3EB
:105220005F8F18BB00F04CF8DFF84C800837B4F5FE
:10523000805F254628BF4FF480552A4631464046B8
:1052400006F035FE2A464146384605F0E9FC641B67
:105250002E44054608B9002CE9D100F03FF8FFF7CD
:1052600099FF2846BDE8F041FFF76EBF48F20450B1
:10527000BDE8F081EC45002028140020024B0020FE
:10528000C3F80005704700BF00A0025038B50A4BB4
:1052900000251D60BFF35F8F084C0123C4F8003563
:1052A00005F046FDC4F8005520B1052848F203502A
:1052B00018BF032038BD00BFEC45002000A00250FD
:1052C000044B0122C3F80025034B4FF480625A605F
:1052D000704700BF00A0025000E100E0044B002234
:1052E000C3F80025034B4FF48062C3F88420704755
:1052F00000A0025000E100E012F0030310B511D14C
:10530000094C22604C1CE400A4B22244074C2260E9
:10531000074A1370074A1370074A1080074A184655
:10532000118010BD0720FCE7302400202C24002031
:105330002824002038240020342400203624002093
:105340002DE9F047284D2B888B4206460C46174620
:1053500045D3002000F0A6F8244B254A25481978AB
:1053600013780088DBB2834238BF0133C9B234BF3F
:10537000DBB2002399422CD092F800801378DBB284
:10538000984286BF0133DBB200231370002000F087
:1053900099F84FF6FF73984523D0DFF860A0DAF84C
:1053A00000304FEAC80903EB090243F838709EB198
:1053B00094B1114B28881B68224608FB0030314607
:1053C00006F075FDDAF800304B4400209C80BDE803
:1053D000F0874FF6FF78D9E700209080F7E70920A3
:1053E000F5E70420F3E700BF342400203824002030
:1053F00028240020362400202C24002030240020E3
:10540000F8B5124C124D264622782B789A4200D1DC
:10541000F8BD23780F48104A078812680F48DBB29E
:1054200019B202EBC10C006852F83120BCF804102C
:1054300003FB070090470A4A23781288DBB29A429E
:1054400086BF0133DBB200233370DDE73824002050
:105450002824002034240020302400202C24002084
:105460003624002072B6024A136801331360704775
:105470003C240020034A1368013B136003B962B661
:10548000704700BF3C240020EFF30583C3F30803FB
:105490002BB9EFF31480C04300F0010070470120E6
:1054A0007047000008B5FFF7EFFF012803D004495B
:1054B000432000F033F8BDE80840FFF7D3BF00BF3A
:1054C00080C10E0008B5FFF7DFFF012803D00449B3
:1054D000512000F023F8BDE80840FFF7CBBF00BF24
:1054E00080C10E0030B53AB11368DB430A4D014468
:1054F000884204D1D84330BD4FF0FF33F6E710F8AF
:10550000012B5340082213F0010418BF2C46013A26
:1055100084EA5303F7D1EBE72083B8ED07B5ADF884
:10552000000001916A46002144F2020001F06EFB86
:1055300003B05DF804FB50E8002F0B4640E8003C48
:105540009CF0000FF7D11046704750E8002F42EA58
:10555000010340E8003C9CF0000FF6D11046704774
:1055600050E8003F43EA010240E8002C9CF0000FA5
:10557000F6D11046704750E8002F02EA010340E8D8
:10558000003C9CF0000FF6D11046704750E8003FF9
:1055900003EA010240E8002C9CF0000FF6D110460F
:1055A000704750E8003F03EB010240E8002C9CF0FC
:1055B000000FF6D11046704750E8003FA3EB010200
:1055C00040E8002C9CF0000FF6D1104670470121F6
:1055D000FFF7BBBF0121FFF7C3BF0021FFF7CBBF20
:1055E0000021FFF7D3BF000010B50446002834D0D7
:1055F00003681BB91A49FF20FFF790FF636823B9BE
:1056000017494FF48070FFF789FFA36823B9144945
:1056100040F20110FFF782FFE36823B910494FF40D
:105620008170FFF77BFF238A23B90D4940F20310F5
:10563000FFF774FFD4E9012321689B1ADBB20A60EB
:10564000013BDBB2FF2B226802D10020107110BD9C
:105650001168481C10600B70F2E70E20F7E700BFDE
:10566000C6C10E0038B5044620B912494FF49270F5
:10567000FFF754FF0020FFF715FF226861681368E9
:105680008B4215D9591E116013F8015C228AE36818
:1056900002FB05352268A36811685B1A1179DBB239
:1056A000994200D213710020FFF70CFF284638BD45
:1056B0000025F8E7C6C10E0038B50C46054620B9EE
:1056C0000E4940F24710FFF729FF24B90B494FF468
:1056D000A470FFF723FF0020FFF7E4FE2A68136899
:1056E000591C1160EA68A41A2A8AB4FBF2F41C70EF
:1056F0000020BDE83840FFF7E5BE00BFC6C10E0080
:1057000010B5044618B906493120FFF707FFA26813
:105710002AB163692168206998470023A36010BDFE
:10572000FEC10E000EB433B5059D044618B91249EA
:105730004220FFF7F3FE63691BB90F494320FFF7CF
:10574000EDFE23681BB90C494420FFF7E7FE6368B0
:105750001BB909494520FFF7E1FE3DB102AA06AB9E
:1057600042F8043D2946204600F076F802B0BDE834
:10577000304003B0704700BFFEC10E000A2938B5A3
:1057800004460D4602D10D21FFF7F8FFA3682268F9
:10579000591CA160D554D4E901329A4204D3204661
:1057A000BDE83840FFF7ACBF38BD00002DE9F84F29
:1057B0009946DDE90A431746824688460A4601268D
:1057C000BA420FD24E4538BF4E4613F0010B01D1FD
:1057D00064B900240125B9F1010F1AD909F1FF3983
:1057E0007D43F8E7B2FBF7F20136E9E79B070ED5F8
:1057F000B9F1000F0CBF30252025A642EAD2013CAA
:1058000029465046FFF7BAFF002CF6D1E1E72025E4
:10581000F3E7B8FBF5F39F42E2D9DFF83890B8FB25
:10582000F5F3504619F8031005FB1388FFF7A6FFA0
:10583000B5FBF7F5002DF2D1BBF1000F02D00CB192
:10584000A64201D3BDE8F88F20215046013CFFF766
:1058500095FFF4E72CC20E002DE9F74F0E46904657
:10586000054620B9AC4940F25220FFF757FE6B695C
:1058700023B9A9494FF41570FFF750FE2B6823B9DF
:10588000A54940F25520FFF749FE6B6823B9A249AC
:1058900040F25620FFF742FE002E00F03A8116F843
:1058A000011B002958D0252940F0D180002702E0B3
:1058B00047F001071646324612F8013B2D2BF7D070
:1058C000302B04D02B2B05D147F00407F2E747F02B
:1058D0000207EFE700242A2B06F101021BD1D8F8BA
:1058E0000030191DC8F800101B6816461C44337898
:1058F0002E2B1CD101364FF0000A314611F8012B36
:10590000A2F13000092814D80A2303FB0A23A3F1CB
:10591000300A0E46F1E712F8013CA3F130010929E3
:10592000E5D80A2101FB0434303C1646D3E74FF09A
:10593000000A324612F8011B01F0FB0068281646E7
:10594000F8D0692916D054D8582970D00ED82529F6
:105950007DD03378002BA2D12B7B002B00F0D98097
:10596000284603B0BDE8F04FFFF7CABE632968D0F0
:105970006429EED1D8F80020111DC8F80010D2F823
:10598000009089EAE972A2EBE9724FF0010B092A53
:1059900061DCD34538BFD3462CB1B9F1000F01DB30
:1059A000790700D5013CBA0702D5BAF1000F04D03F
:1059B000FB0702D4002C54D10024B9F1000F58DAAF
:1059C000C9F100092D212846FFF7D8FE07F0030290
:1059D000022A05D1BAF1000F02D1002C4DD10024CA
:1059E000CDE9004753460A2249462846FFF7DEFE26
:1059F000AFE7732954D016D87029AAD1D8F800304F
:105A00001A1DC8F80020302128461C68FFF7B6FE92
:105A100078212846FFF7B2FE00220823CDE90032A4
:105A200021461022E1E775292FD0782991D1D8F8A5
:105A300000100A1DC8F80020CDE900475346102287
:105A40002CE0D8F800301A1DC8F800201978284634
:105A5000FFF794FE7DE70A230BF1010B92FBF3F2B3
:105A600095E7A345A9D220212846013CFFF786FEF1
:105A7000A0E77807AAD52B21A5E7A345B0D230210E
:105A80002846013CFFF77AFEA7E7D8F80010CDE9D9
:105A900000470A1DC8F8002053460A220968A4E7F7
:105AA000D8F800301A1DC8F80020F907D3F8009084
:105AB00012D54F46A7EB090B17F8011B41B9A345B7
:105AC000BFF447AF20212846013CFFF757FEF6E719
:105AD0002846FFF753FEEDE7B9F1000F17D048460F
:105AE00006F000FA0746BC4200D954B909F1FF3963
:105AF00019F8011F00293FF42CAF2846FFF73EFE9E
:105B0000F6E720212846013CFFF738FEEBE74F4639
:105B1000E9E703B0BDE8F08F3CC20E0070B50D465A
:105B20001646044618B908495520FFF7F7FC1DB979
:105B300005495620FFF7F2FC25602B6831462046C8
:105B4000BDE87040184700BF71C20E002DE9F0415A
:105B5000DDF818800E4617461D46044618B922493E
:105B60008820FFF7DBFC1FB91F498920FFF7D6FC0F
:105B700023681BB91C498A20FFF7D0FC1DB91A49BC
:105B80008B20FFF7CBFC63685A68B5FBF2F302FB8E
:105B900013531BB114498E20FFF7C0FCB20703D08A
:105BA00011499120FFF7BAFCBB0703D00E499220A0
:105BB000FFF7B4FCE3689E4204D36B1E22693344B2
:105BC000934203D908499320FFF7A8FC2368CDF836
:105BD0001880D3F80CE03A462B4631462046F4466E
:105BE000BDE8F041604700BF71C20E002DE9F041F1
:105BF0000D4616461F46044618B919499E20FFF760
:105C00008DFC23681BB916499F20FFF787FC1EB93E
:105C10001349A020FFF782FC63681B68013B2B42FD
:105C200003D00F49A320FFF779FCE3689D4207D317
:105C300063681B686A1E03FB06232269934203D92B
:105C40000749A820FFF76AFC2368D3F810E0324622
:105C50003B4629462046F446BDE8F041604700BF78
:105C600071C20E002DE9F04108B10368C3B90E4EB0
:105C70000E4B14229B1B0024B3FBF2F3374602FBAE
:105C800003F5A54201D1002008E03B5930190BB9BA
:105C90001434F6E7DB6998470028F9D0BDE8F081B5
:105CA000DB69BDE8F0411847280200203C020020D3
:105CB000014B436000207047BCC20E00084670478D
:105CC00000207047024B1868003018BF0120704751
:105CD0004024002008B50248FFF782FC002008BDE0
:105CE0004024002008B510461A4606F0E0F80020CF
:105CF00008BD00002DE9F041804686B013480E46ED
:105D000015461F46FFF763FC044630B1112018E02A
:105D100006EB043000F00EFA0134A542F8D10B482E
:105D2000FFF75EFCD8F8083000246BB10222684609
:105D30008DF80020CDE90146CDE903450597984748
:105D4000204606B0BDE8F0811846FAE7402400205E
:105D50002DE9F041804686B012480F4616461D4692
:105D6000FFF735FC0446D8B9AA083146384600F09A
:105D70000FFA0C48FFF734FCD8F8083073B1012251
:105D80008DF800200C9A05926846CDE90147CDE9CF
:105D900003659847204606B0BDE8F0811846FAE74B
:105DA0001120F8E7402400202DE9F74F99469DF88F
:105DB0003030019388461746054618B92249B62067
:105DC000FFF7ACFBEA8895F805B00BFB02FBABF1E3
:105DD000040BCB4503D81C49C420FFF79FFB3E684A
:105DE000B5F806A006EB09025A4509F1040188BF7F
:105DF000ABEB0906B1FBFAF43E600AFB141144B99F
:105E0000AAEB0107B74228BF37462EB903B0BDE859
:105E1000F08F2D68013CF2E7019A043108EB04038E
:105E2000681872B101463A461846F61B06F03FF86C
:105E3000B2453C442D6857464FF0000128BF374615
:105E4000E3E73A461946F0E7E8C20E00FFF7CCBB9D
:105E5000F8B546790146721E0546002393422D6827
:105E600003D30024A64202D8F8BD0133F6E70F6839
:105E70002846FFF721FC01343946F3E72DE9F843C2
:105E8000CD1C068A0746FFF7EDFB043E3544044669
:105E9000B5FBF6F5F0B14FF48073EDB28380C680A8
:105EA000013D076081464FF00008A84512D23846F0
:105EB000FFF7D8FB064648B163790133637108F1F7
:105EC0000108C9F8000007608146EEE72046FFF7A9
:105ED000BFFF34462046BDE8F88301210430FFF7B8
:105EE00060BB10B5012104460430FFF765FB10F0DC
:105EF000FF0F04D12046BDE81040FFF7A9BF10BD39
:105F000030B585B0144604AA002542F8044D00952A
:105F1000FFF74AFF039BA34203D00349F620FFF794
:105F2000FDFA05B030BD00BFE8C20E0030B585B047
:105F3000144604AA012542F8044D0095FFF734FFEA
:105F4000039BA34204D003494FF48070FFF7E6FAA5
:105F500005B030BDE8C20E008268002393608268FD
:105F60001361826853618268D3608268536082687B
:105F7000136070470D4930B5A1F58C72022591422E
:105F800001D800200EE08B1ADB1093FBF5F302EB37
:105F9000C30452F83330834205D802D204F1080218
:105FA000EDE7606830BD2146E9E700BF4CC40E0054
:105FB00008B5FFF7DFFF024B002808BF184608BDF1
:105FC00020C30E00F0B578B371B36BB300241C602E
:105FD0000A44DB274FF0DC0C4FF0DD0E1C688A42D0
:105FE00004F1010500EB040604D11D60C0233370E9
:105FF0000020F0BD0E78C02E05D0DB2E0CD01D6029
:106000000D78055506E01D6007551C68651C1D6070
:1060100000F804C00131E1E71D6006551C68651CED
:106020001D6000F804E0F5E70E20E2E710B588B344
:10603000D0E9023293422FD00278012A10D003D344
:10604000022A21D0112012E0C02927D0DB2902D159
:1060500001230370F6E742685C1C8460D154F1E7C9
:10606000DC2905D0DD290AD0022303700B2010BDE6
:10607000591C42688160C021D1540023E9E7591CB2
:1060800081604268DB21F7E7C029DBD10023037080
:106090008360D7E70E20EAE70420E8E70020E6E780
:1060A0001FB503788DF800304368019383688DF83D
:1060B0000830C3680393054A054B684653F82130FE
:1060C00052F82110984705B05DF804FB44240020E5
:1060D0004C240020F0B506460F4B16F8047B43F81D
:1060E00027200E4B94460C460A6943F827200FCC14
:1060F00089B06D460FC594E80F00BCF1000F85E82C
:106100000F00074A049708BF00226946304600F096
:1061100075F909B0F0BD00BF4C24002044240020D4
:10612000A1600E00024AD2F80034002BFBD0704769
:1061300000E001400A4908B50223C1F80435BFF365
:106140006F8FBFF34F8FC1F80805FFF7EBFF0023F8
:10615000C1F80435BFF36F8FBFF34F8F08BD00BF89
:1061600000E0014010B5094C0123C4F80435BFF329
:106170006F8FBFF34F8F0160FFF7D4FF0023C4F888
:106180000435BFF36F8FBFF34F8F10BD00E00140A8
:106190000E4B10B50124C3F80445BFF36F8FBFF356
:1061A0004F8F01EB8204401AA14208D1074B002215
:1061B000C3F80425BFF36F8FBFF34F8F10BD431893
:1061C00051F8042B1A60FFF7ADFFEDE700E0014046
:1061D00010B5054C22681AB904495120FFF79EF901
:1061E0002368BDE81040184754240020DDC70E0086
:1061F00038B50D4628B90C497720FFF78FF90020F4
:1062000038BD0A4B9842FAD10020FFF74BF9084BF2
:106210001C7914B901221D601A710020FFF752F990
:10622000002CECD01120EBE7DDC70E000020004071
:106230005424002018B906499B20FFF76FB9054B7D
:10624000984201BF044B00221A601A71704700BFC8
:10625000DDC70E00002000405424002000234350DE
:1062600082B043580193019B02B0704710B5036898
:106270002F2B044604D9074940F2CD10FFF74EF901
:1062800023681F2B83BF03F01F03236002484FF0D6
:10629000A04010BDFBC00E000003005007B502ABCC
:1062A00043F8040D1846FFF7E1FF019B03F5E07387
:1062B000022240F8232003B05DF804FB1FB5012340
:1062C0008DF80030044BCDE90110D3E90012684687
:1062D000904705B05DF804FB5C2400207FB5454A7B
:1062E000D2F82461002E63D010464FF49271FFF76C
:1062F000B5FF02238DF80030D2F88034C2F8803424
:106300000393D2F83C3502933B4BDA6801920022AA
:10631000C3E906226846D3E900129047354AD2F80D
:1063200044317BB14FF4A2711046FFF797FF324B17
:10633000996939B10021C3E90611D968D2F83C0541
:10634000FFF7BCFF2B4AD2F82031B3B14FF4907164
:106350001046FFF783FF0123D360274B596961B1D2
:10636000D2F84C150291002299688DF80020019115
:106370005A616846D3E9001290471E4AD2F8583154
:10638000A3B14FF4AC711046FFF768FF1A4B59697F
:1063900061B1D2F84C150291002299688DF8002065
:1063A00001915A616846D3E90012904704B070BD6C
:1063B000D2F81031002BB1D04FF488711046FFF79E
:1063C0004DFF0D4BD2F83C0599698842A6D1DC6996
:1063D000D96864B1D2F8005225F02005C2F8005205
:1063E0001A699C61DA60DE61FFF768FF96E79C61DD
:1063F000FAE700BF002000405C2400202DE9F047B0
:10640000054686B091460C4619B97549CF20FFF76D
:1064100085F8744B2E79242202FB0632984692F8B6
:106420002020002A40F0D7806F492868FFF7E0FE5F
:106430000746002840F0D18023685A1C15D006A8D2
:1064400040F8143DFFF712FF019A01239340C0F872
:10645000083506A8236840F8183DFFF707FF009BA2
:1064600003F5E073032240F823206368581C0AD028
:1064700006A840F8103DFFF7F9FE029B03F5E07314
:10648000002240F823202B68A269C3F82425217D2F
:10649000637D2A680B43C2F86C35D4E900122B687F
:1064A000C3F80C15C3F81425237D012B2DD1A36847
:1064B000591C0AD006A840F80C3DFFF7D7FE039BF5
:1064C00003F5E073002240F82320E3685A1C15D03E
:1064D00006A840F8043DFFF7C9FE059A0123934042
:1064E000C0F8083506A8E36840F8083DFFF7BEFE8F
:1064F000049B03F5E073032240F82320D4E9022132
:106500002B68C3F80815C3F810252423734308EB40
:106510000302C2F80490226948F80320B9F1000F81
:1065200047D04FF488712868247FFFF797FE4FF417
:1065300090712868FFF792FE4FF492712868FFF778
:106540008DFE4FF4A2712868FFF788FE4FF4AC71FE
:106550002868FFF783FE2B68244AC3F804232B68BE
:10656000072C4FEA133A4FFA8AF903D920496B20D6
:10657000FEF7D4FFB9F1000FACBF09F160431D4B2A
:106580004FEA4414B8BF0AF00F0AE4B2AABF03F5F9
:10659000614303F80A4083F800432B681B0B5AB28F
:1065A000012103F01F0301FA03F35209124941F8D4
:1065B00022302B680822C3F80025242303FB06831E
:1065C0000022C3E906225A61012283F820203846BE
:1065D00006B0BDE8F0870827F9E71127F7E700BF05
:1065E00018C80E005C240020DD620E00100342007B
:1065F0004DC80E0014ED00E000E100E02DE9F84385
:10660000334E0579242303FB056304465B6883B19D
:106610000368304AC3F8082303681B0B5AB20121F0
:10662000520903F01F0301FA03F320322A4941F80B
:1066300022302268D2F8003223F02003C2F8003260
:10664000236801225A604FF4AC712068FFF706FE00
:106650002368DA602368D3F85821002AFBD000228F
:10666000C3F8002523684FF0FF32D3F80C05D3F8A8
:106670001495D3F80875D3F81085C3F80C25C3F822
:10668000142523689042C3F80825C3F8102501D0CB
:10669000FFF704FEB9F1FF3F02D04846FFF7FEFDC9
:1066A000B8F1FF3F02D04046FFF7F8FD7B1C02D057
:1066B0003846FFF7F3FD2068FFF7BCFD242303FBFA
:1066C0000565002385F820306B60BDE8F88300BFC6
:1066D0005C2400201003420000E100E02DE9F843B3
:1066E000394E0779242303FB0763044693F82030CF
:1066F000012B8846914604D0344940F22D10FEF714
:106700000DFFB8F1000F04D130494FF49770FEF738
:1067100005FFB9F1000F04D12C4940F22F10FEF70C
:10672000FDFE237913B9B9F5803F04D327494FF40F
:106730009870FEF7F3FE08F06043B3F1005F3DD1BF
:106740002379242505FB03635A69002A38D105FB08
:1067500007654FF49071C5F81490C5F8088020685B
:10676000FFF77CFD4FF4AC712068FFF777FD2368DD
:106770006969A868C3F84405C3F84815236801216E
:1067800099606B68F3B92368D3F82011D3F85821C6
:1067900019B9002AF8D00F2009E0002AFBD1012204
:1067A000DA602268D2F85831002BFBD00020242375
:1067B00003FB076600237361BDE8F8831020FBE745
:1067C0001120F9E71046F7E75C24002018C80E00F6
:1067D0002DE9F041484E0479242303FB0463054668
:1067E00093F82030012B8846174604D043494FF4D4
:1067F000C070FEF793FEB8F1000F04D13F4940F29C
:106800008110FEF78BFE27B93C494FF4C170FEF7AB
:1068100085FE2B7913B9B7F5803F04D3374940F291
:106820008310FEF77BFE08F06043B3F1005F61D197
:10683000242303FB0463596821B12B684FF40472CD
:10684000C3F80823242303FB04639A6952B1DA696D
:10685000002A3DD021B12B684FF40472C3F8042301
:10686000112033E09F61C3F80C80DA614FF4887126
:106870002868FFF7F3FC4FF4A2712868FFF7EEFCDD
:106880002B68C3F83485C3F838752B682ABB0122FE
:106890001A602A792B68242101FB0261496819BB1F
:1068A000D3F81041D3F84411D3F8240114B909B92D
:1068B0000028F5D0242303FB02660023984214BF6E
:1068C000032018469942B36118BF0F20BDE8F0813C
:1068D000C3F81080DF610122C8E7D3F8002242F03C
:1068E0002002C3F80022D4E74FF40472C3F8042353
:1068F0000020EBE71020E9E75C24002018C80E0018
:1069000028B139B10023C1E900301846704748F278
:106910001050704748F21350704730B1036848F286
:1069200040508B4208BF0020704748F2105070471B
:1069300028B148F21150914208BF0020704748F238
:106940001050704770B506460C461D46FFF7D8FF3D
:1069500050B9B3794AB1AB420AD111462046FEF78D
:10696000A1FB08B9044B236070BD48F21050FBE74F
:1069700048F21150F8E700BF7052464D2DE9F0473C
:106980000C4605461349204616469846DDE9087927
:10699000FFF7C3FF80B963685A7949465200384609
:1069A000FFF7C6FF40B996B145B94FF4DA700A490E
:1069B000FEF7B4FD48F21550BDE8F087089743464E
:1069C000324621462846BDE8F047FEF77BBB48F239
:1069D0001050F1E77052464D7FC80E0010B50446C6
:1069E00038B149B141600B68984708B9044B23603E
:1069F00010BD48F20150FBE748F21050F8E700BF25
:106A00006E524648F0B448B107680A4EB74209D101
:106A100059B16AB14368F0BC5B68184748F201504D
:106A2000F0BC704748F20250FAE748F21050F7E71E
:106A30001046F5E76E524648F0B460B107680C4E58
:106A4000B7420CD171B143681568DC68A5420CD31C
:106A50009B68F0BC184748F20150F0BC704748F200
:106A60000250FAE748F21350F7E748F21450F4E7FF
:106A70006E5246482DE9F041044617469846DDE936
:106A80000656FFF7ABFF60B9424639462046FFF78E
:106A9000B9FF30B9324629462046BDE8F041FFF73C
:106AA000CBBFBDE8F0810000F8B50A4F0A4C0B4D92
:106AB000E41B0121E40829700026A64203D1022329
:106AC0002B700020F8BD57F8363098470028F9D1D0
:106AD0000136F2E744EC0E004CEC0E00802400205E
:106AE00038B50C46054618B908493320FEF716FD9F
:106AF000611E29442846884200D938BD03780A78A7
:106B000000F8012B01F80139F5E700BFBDC80E0000
:106B100070B50D461446064618B90A494520FEF7D9
:106B2000FDFC1DB907494620FEF7F8FC621E324401
:106B3000013DB24200D270BD15F8013F02F80139A3
:106B4000F7E700BFBDC80E0070B5164604460D46F7
:106B5000FFF7DEFF3246A919A019BDE87040FFF724
:106B6000D7BF38B50D460446FFF7BAFF294660196E
:106B7000BDE83840FFF7B4BF08B507281BD8DFE8E9
:106B800000F004121A1A1A041A040120FEF770F910
:106B90000020FEF729F90120FEF726F90220BDE8C2
:106BA0000840FEF73BB90120FEF738F90220BDE8A6
:106BB0000840FEF719B908BD08B5FDF7C9FFFDF794
:106BC00067FD0028FBD10D4D642445F001054FF40D
:106BD0007A40A847013CFAD1094B1B68DB0700D576
:106BE00000BEBFF34F8F0749074BCA6802F4E0624B
:106BF0001343CB60BFF34F8F00BFFDE790C90E007A
:106C0000F0ED00E000ED00E00400FA0507B5074BE9
:106C1000074C0092E41AE40824040B460246054996
:106C200044F00100FDF7D6FEFFF7C6FF54EC0E005E
:106C300064EC0E003CC90E0008B5064A064B074935
:106C40009B1ADB081B04024643F00100FDF7AEFE71
:106C5000FFF7B2FF54EC0E0064EC0E0073C90E0097
:106C600010B500F00DFF002210464FF4805100F0E7
:106C7000C9FA024608B1FFF7DFFF1548C0F57E21CB
:106C800000F0C0FA01460028F5D11248124CFDF779
:106C9000A1FCFDF7CFFB114B1149E41AE4082404D1
:106CA00044F00300FDF77EFE0E4800F061F9002875
:106CB000E1D1FDF7EDFC0028FBD10B4944F00100C8
:106CC000FDF770FEFDF7E4FC0028FBD1D3E700BF21
:106CD00000400E00D1750E0064EC0E0054EC0E0066
:106CE00096C90E00796B0E00A2C90E000369C16837
:106CF0008B429DBF8268D21802F1FF3203F1FF334D
:106D000094BF501A581A70472DE9F041D0E9026734
:106D10000446F61B4068964288461546384405D915
:106D200005F0C5F83D44E560BDE8F0813246AD1B95
:106D300005F0BDF82A4608EB0601606805F0B7F8D3
:106D4000F1E72DE9F843C5680646894617464FF036
:106D500000083469B3687068A54228BFE418013C94
:106D6000621B5C1BBC4228BF3C46944228BF1446B1
:106D700049462844224605F09AF8B3682544AB42B8
:106D800008BF00253F1BA044A144F560E1D1404667
:106D9000BDE8F88310B5114C114AA2610223C4E981
:106DA0000433104BE361A2644FF480530E4A236214
:106DB000E264002310220D49A362E01D6362E362D6
:106DC000A3656365E365226505F084F808492046FC
:106DD00005F080F82023A37110BD00BFF04500200E
:106DE000C7C90E009124002081240020D0C90E00C4
:106DF000D4C90E00F8B5184C182300FB033503FB6B
:106E000000402544C46A012C0F46164611D003D316
:106E1000022C1BD000240AE02846FFF767FF8642B9
:106E200005D8324639462846FFF76EFF34462046DD
:106E3000F8BD2846FFF75AFF8642344628BF04466D
:106E4000224639462846FFF75FFFF0E72846BDE8AF
:106E5000F840FFF776BF00BFF0450020FFF79ABF6C
:106E6000014B01221A707047B438002008B5FDF7B5
:106E70006FFEFDF70DFC0028FBD1BFF34F8F0549D6
:106E8000054BCA6802F4E0621343CB60BFF34F8F37
:106E900000BFFDE700ED00E00400FA0508B5094871
:106EA000094B0A49C01AC008000440F00400FDF76D
:106EB00079FD074B074800221A70BDE8084002F030
:106EC000ADBA00BF64EC0E0054EC0E00DBC90E003E
:106ED000B43800206D6E0E0008B50748074B08490E
:106EE000C01AC008000440F00300FDF75BFDBDE8D8
:106EF0000840FFF7D3BF00BF64EC0E0054EC0E0057
:106F0000F1C90E00831E10B50446052B09D8DFE831
:106F100003F0120303080F0F09494FF4701000F03B
:106F200017FB084B1B684BB12046BDE810401847C3
:106F3000FFF7B4FFF5E702F041F9F2E710BD00BF3B
:106F4000D96E0E00B838002008B50648064B074930
:106F5000C01AC008000440F00400FDF723FD002023
:106F600008BD00BF64EC0E0054EC0E0079CB0E009F
:106F7000F8B56E4B6E4C6F49E41AE408240444F0F3
:106F8000040705463846FDF70DFD6B4B6B4A1D6047
:106F90004FF0A0430020C3F8642702F055FA0646DC
:106FA00040B900F083FC012800F0B48004D302282B
:106FB00000F0B8800320F8BD4FF08043D3F80054B0
:106FC00015F4803547D04FF48032C3F8002435469D
:106FD0005B4E336A012B51D05A4944F00300FDF750
:106FE000E1FC59493846FDF7DDFC4FF4701400F020
:106FF000A1FD564A20211820FEF77EF908B1FFF7BF
:107000001BFE534B1A6802F0F802B02A06D11A6828
:10701000D20742BF1A6802F04E021A60FFF794FFCF
:107020000028C7D120464B4900F092FA4A4801F0A7
:10703000A3FA0028BED149493846FDF7B3FC00F059
:10704000BFFDFEF7DDF9FDF723FB0028F7D120BFD8
:1070500040BF20BFF3E7D3F8202502F0F802A82AAA
:107060000AD1D3F82025D00706D5D3F8202502F081
:107070005602C3F82025ABE70125A9E743F2040334
:107080001A68374B9A420FD11DB996F86032012B1E
:107090000AD0726B33484FF4805103F033F818B9BB
:1070A000314944F002009AE702F0C2FA01461DB9E4
:1070B00096F8A132012B06D0B2692C4803F022F8D1
:1070C00008B92B49EDE72B493846FDF76BFC4FF02B
:1070D000A043D3F81035990101D4274982E71C4B0E
:1070E0001B6813F0B10F01D024497BE702F0DAF9F5
:1070F00000287FF45FAF224D2870224802F08EF9FD
:107100002B7823B920494FF40170FEF707FA00F0FD
:107110003FF801E0FFF7C2FE1C4944F00100FDF713
:1071200041FC47E74FF4A02461E700BF54EC0E0098
:1071300064EC0E0005CA0E00B83800200C000300F5
:10714000684600201CCA0E00BACA0E009434002003
:107150001C050040D96E0E00056F0E0029CB0E00F5
:10716000DBE5B151C84800204ACA0E000949002099
:1071700085CA0E00ADCA0E00DDCA0E00FCCA0E00A4
:10718000B4380020616E0E0039CB0E001DCB0E000E
:1071900070B5164B164C174D1749E41AE408240431
:1071A00044F004064FF480523046FDF7FFFBD5F85B
:1071B000802012493046FDF7F9FB4FF0FF33C5F848
:1071C0008030C5F8803101F0FAFA20B10C4944F062
:1071D0000100FDF7E7FBFDF75BFA0028FBD14FF458
:1071E0008050BDE8704000F049B800BF54EC0E007C
:1071F00064EC0E0000E100E093CB0E00C9CB0E0062
:10720000F3CB0E00F0B5C1F30B048CBBB0F57F2FB0
:107210002ED8184D184F2B68002A08BF0226224688
:1072200018BF06262C46072B05D902B1236004207F
:10723000F0BD0122F7E71D0105F1804202F5F032B1
:107240003D44C2F80008C2F80418C5F80868D2F82E
:1072500000C8604503F10103EBD1D2F80428914244
:10726000E7D1D5F808289642E3D123600020DFE774
:107270000720DDE7BC38002000E0014038B50446B7
:1072800027480022C0F58011FFF7BCFF054668B112
:10729000244B25482549C01AC008000440F00100CD
:1072A0002A46FDF783FB2846FFF7C6FC02F0C0F92B
:1072B0001F4B996901F6FF7121F47F61002221F0D3
:1072C0000F0101441046FFF79DFF054668B1154BBD
:1072D00015481849C01AC008000440F001002A46A9
:1072E000FDF764FB2846FFF7A7FCEFF305820023B8
:1072F000D4E9005483F3148883F3108883F311884E
:1073000083F31388C2F308021AB10B496E20FEF70B
:1073100005F985F308884FF0FF339E46204738BDB6
:1073200000400E0054EC0E0064EC0E0028CC0E0061
:10733000684600205FCC0E0093CC0E00F7B5264BBC
:1073400006462648C01AC00800040C4632462449A6
:1073500040F00400FDF72AFBB4F1807F37D32149C8
:107360008F20FEF7DBF86FF07F431F4FA34228BF4B
:107370002346D7F80455E41A1D44631E942B96BF88
:10738000963474607460347B25F07F4598BF963DD9
:10739000032C03D913497720FEF7C0F804F5A8732E
:1073A000124A47F823504FF4F86042F00102904728
:1073B0000F4BA200134400221A601B680193019B2B
:1073C0004FF48033A340C7F8043303B0F0BD952CCD
:1073D000C9D804499020C4E754EC0E0064EC0E00B8
:1073E00016CD0E002CCD0E000040024010CD0E0038
:1073F0004041024018490A7884B0002A29D14FF050
:107400008043A020D3F81834DB035EBF134B012266
:107410001A60134A0023136012680392039A114AF8
:10742000136012680292029A0F4A13601268019266
:10743000019A0E4A82F82403102050600C4A0D482D
:10744000C2F808350123036002201360C2F8040368
:107450000B7004B0704700BFC43800200800004023
:1074600000410240404102404441024000E100E04E
:1074700000400240084002402DE9F7432A4B1A68B9
:1074800042B12A490A6801320A6000221A601B6868
:107490000093009B2648274BDFF8B080264EC01A89
:1074A000C0080004A8F5102740F00405A7F5A06760
:1074B000336823B300233360B4003368019307EBD0
:1074C000040944444A461D49019B2846A4F510245A
:1074D000FDF76CFAA4F2F44319491A784FF480339B
:1074E0009340184A2846C2F808334A46FDF75EFA28
:1074F000A4F2FC43196849B14846FFF71FFF124B3D
:1075000004369E42D4D103B0BDE8F083A4F59F6356
:10751000196811B14846FFF711FFA4F5A06423686C
:10752000002BECD09847EAE704410240C038002025
:1075300064EC0E0054EC0E0040410240E3CC0E001F
:10754000F5CC0E00004002404841024014000020EB
:10755000F8B5114B114E044611483768C01AC008DF
:1075600000043A460D4640F004000E49FDF71EFAAD
:107570003A7B4FF4803393400B4AC2F808334CB146
:107580003668FFF737FF356021463046BDE8F840E2
:10759000FFF7D4BEF8BD00BF54EC0E00340000204D
:1075A00064EC0E00E3CC0E000040024070B5074BC7
:1075B0001C680E46A0600546FFF71CFF26602946A2
:1075C0002046BDE87040FFF7B9BE00BF380000207C
:1075D000034A044B1068D3F8043503EB006070478E
:1075E000C038002000400240014B01221A70704751
:1075F000C53800202DE9F341214BDA6A5F6A9D6CA2
:10760000AC2A1FD15B6B1D44FF1A1E4B1E4C1F4A38
:107610001F490097E41AE408240444F004082B46A8
:107620004046FDF7D7F93A462946184804F030FCA1
:10763000064668B917494046FDF7B4F9304602B02E
:10764000BDE8F081002DE0D102F008F80546DCE746
:107650003B462A4610494046FDF7B2F9FDF718F8B7
:107660000028FBD100F0ACFA3946284601F096F824
:1076700006460028E2D0094944F00100DCE700BFDB
:107680006846002054EC0E0064EC0E0000400E0032
:1076900077CD0E00ACCD0E00E3CD0E0010CE0E0067
:1076A0002DE9F04F3A4B17463A4A9B1A87B0DB0850
:1076B0001B040493814243F0040305468946039367
:1076C00008D135491846FDF76DF90024204607B06A
:1076D000BDE8F08F03D231494F20FDF71FFFC5F3FE
:1076E0000B031BB12D495120FDF718FFA9EB050332
:1076F0005FEA133B03D129495420FDF70FFF00F047
:1077000019FABBF1080F28BF4FF0080B07F6FF78F6
:107710004FEA0B334FEA183805930FB93C46D5E7CB
:10772000C34534BFDA46C2464FF0000251462846F0
:1077300034BF059E3E4600F0EBFF04460028C5D14D
:107740002B464A46164903980096FDF743F9F21C6A
:10775000234622F003024946284600F09BFF0446D8
:107760000028B3D10F4A136BBF1B3544B1441E44EC
:10777000166301F059FEA8EB0A0804460028CCD095
:10778000049B094943F00100FDF70CF99EE700BF97
:1077900064EC0E0054EC0E002ACE0E0039CE0E0022
:1077A00087CE0E0068460020A8CE0E002DE9F047D7
:1077B00001F066FF344C354BDFF8ECA03449DAF8C1
:1077C0004850DAF83080DAF83460E41AE408240427
:1077D00044F0040781463846FDF7E4F842F204031A
:1077E000EA5803F1A34303F5471303F2D7539A4230
:1077F00008D0284944F00100FDF7D4F803252846B5
:10780000BDE8F087DAF83020B242154405D12249AC
:107810003846FDF7C7F80025F1E7DAB94FF44053D1
:1078200038461B78142B81BF43F214031A681B4B94
:10783000B2FBF3F205F500531B78142B81BF42F223
:1078400014031649EB58B3FBF1F398BF0023144916
:10785000FDF7B6F8A6EB080202F6FF7222F47F628B
:10786000294622F00F0209EB0800FFF719FF054631
:1078700028B10C4944F00100FDF794F8BFE7BDE8DA
:10788000F04701F0D1BD00BF64EC0E0054EC0E00D7
:10789000AED00E00D3D00E0007D10E0040420F0034
:1078A00019D10E0042D10E00684600202DE9F047A4
:1078B0005C4B5D4C5D4F5E49E41AE408240444F0DF
:1078C00004084046FDF76EF8FB6AA52B00F08580A2
:1078D00009D8012B20D044F003005649FDF762F887
:1078E0000020BDE8F087AA2B00F08280AC2BF2D1FB
:1078F00051494046FDF756F850494046FDF752F8C9
:10790000FFF754FF054600287BD04D4944F00100A5
:10791000FDF748F8012620E04A494046FDF742F8C5
:107920007E6AD7F8489001F083FE3D6B464900EB34
:10793000050A4046FDF736F8396B49448A4514BFBD
:10794000721B00225046FFF7ABFE054668B13F4967
:1079500044F00100FDF726F80026FB6A3C492A4660
:1079600044F00100FDF72CF812E001F061FE2A4618
:107970003146FDF7B7FDBA6A9042814626D13549B6
:107980004046FDF70FF80123C7E90793BE612E4675
:107990003148324D01F00CFE002331482B7001F0CC
:1079A00043FD2B78814623B92E494FF4D170FDF762
:1079B000B5FDB9F1000F2CD196B33B6A012B2FD145
:1079C00040462949FCF7EEFF02208AE70346274993
:1079D00044F00100FCF7F4FFD9E725494046FCF7E5
:1079E000E1FFFFF7E3FE01260546002DD0D0B4E706
:1079F00020494046FCF7D6FFFFF7FCFD0026054670
:107A0000F3E7FFF7F7FD054608B11B497EE70126BE
:107A1000BEE744F001001949FCF7C4FF032060E70A
:107A200001205EE754EC0E0064EC0E006846002076
:107A3000E1CE0E00EDCF0E0096CF0E00A4CF0E00CB
:107A4000C1CF0E0002CF0E000CCF0E0042D10E00AF
:107A500006D00E0027CF0E008C460020C53800202F
:107A6000E9750E0039CE0E0038D00E003CCF0E0066
:107A700084CF0E008DCF0E00D7CF0E0094D00E0015
:107A800008B540F6F8700368013302D10749FEF7E4
:107A900069FB40F6FC700368013305D14FF47E2189
:107AA000BDE80840FEF75EBB08BD00BF00400E0009
:107AB0000A4AD2F800347BB109480023D2F80815ED
:107AC000D940C90748BF03F5C07103F1010348BF9E
:107AD00042F82100072BF1D1704700BF00000140A0
:107AE0003546526E08B50748074B0849C01AC0080A
:107AF000000440F00300FCF755FFBDE80840FFF725
:107B0000D7BF00BF74EC0E0054EC0E00CCD10E00B9
:107B100007B5074B00221A601B680193019BFDF714
:107B200017F8FCF7B5FD0028FBD103B05DF804FBA6
:107B30000001014070B5194E33784BBB184C194900
:107B4000194B641AE408D3F80024240444F0030415
:107B5000FAB1D3F8045515492A462046FCF726FF0A
:107B600040F616539D42B8BF1D46A5F54865FFF780
:107B70009FFF2A460E492046FCF718FF0D4928466C
:107B8000FFF714FD0C4B4FF480321A600123337061
:107B900070BD0A492046FCF705FFF7E7C63800200C
:107BA00074EC0E0054EC0E00000001405BD10E009E
:107BB00074D10E00E57A0E0000E100E0A6D10E00BF
:107BC000034BD3F800340BB1FFF772BF704700BF0F
:107BD000000001400023C0E90232C0E900118B8897
:107BE0001A440261B1F906301A4442610888003033
:107BF00018BF0120704710B542681188034600295C
:107C000039D002F110014160148A2CB9C2680168B0
:107C1000FFF7E0FF204610BD9078118900F0300496
:107C2000302C1BD1947C04F03004302C16D1908879
:107C30001969091A19610021907810F0300F02BFFC
:107C4000986801309860908A084419690144196164
:107C5000B2F91620114459610120DCE700F0F0046C
:107C6000202C02D150894143E6E700F0C000802873
:107C700008BF0421E0E70846CDE770B54568044633
:107C80000E4663681A88B24204D19B7803F00F0352
:107C9000082B07D12046FFF7AEFF6368AB42F0D157
:107CA000002070BD0120FCE743681A44426011B116
:107CB00001399A4201D10120704713F8010B01F8F4
:107CC000010FF6E710B5836804460BB9002010BD1C
:107CD0000368012298470028F8D0A368013BA360FD
:107CE000F5E72DE9F3410F460DF107018046FFF757
:107CF000E9FF064620B90026304602B0BDE8F08113
:107D00009DF80740220613D504F07F0407250DF1E6
:107D100007014046FFF7D6FF0028ECD09DF807206A
:107D200002F07F03AB401C43130605F1070501D4A5
:107D30003C60E1E7232DEAD1DDE770B54268927837
:107D400002F00F01082986B003461FD103691C68A1
:107D500000260CB906B070BD236826739D68626862
:107D600029466846FFF736FF6368049304F10C0365
:107D70000593AB7803F0C003802B08BF231D684632
:107D800008BF0493FFF7D9FFA468E2E712F0C0012F
:107D900020D102F0300010280ED15A6911705A68B3
:107DA00018699378D46803F00F03072B09D10146B3
:107DB000204600F017F8CDE79006F0D55B691980F2
:107DC000C8E71289214614B104F071F8C2E704F043
:107DD00079F8BFE78029BDD10069002192060160D2
:107DE000B8D5EBE77FB50A4601466846FFF7F2FED5
:107DF00030B16846FFF7A1FF6846FFF7FCFEF7E7E2
:107E000007B05DF804FB000030B5044685B01546A8
:107E1000A9B90268114B9A4211D0102D06D82A46F2
:107E200069462046FFF7F0FF05B030BD10226946D5
:107E30002046FFF7E9FF0028F6D0103DEDE7A368E4
:107E4000AB4201D20020EFE723682A46204698473C
:107E50000028F7D0A3685D1BA560E5E7A97C0E00AC
:107E6000F7B50E4601A907461546FFF73AFFA8B138
:107E7000019A0123D3184FF0000404D2B17801F025
:107E8000C001802901D1204608E031899942FAD306
:107E900029463846FFF7B8FF019BEC5403B0F0BD0C
:107EA00073B50E4601A905461446FFF71AFFB8B18F
:107EB000019BB3F5803F07D202229A1804D2B17811
:107EC00001F0C001802901D1002009E031899142EF
:107ED000FAD321461A4621F8023B2846FFF794FFC1
:107EE00002B070BD10B5034C82600022C0E90041B1
:107EF000C26010BDA97C0E002DE9F04F824685B00E
:107F00000D464FF000084FF0000900240DF10F015D
:107F10005046FFF7D7FEF8B19DF80F1001F07F0231
:107F20005FFA82FB4FF0000CCDE900BC009AA4F18F
:107F3000200CC4F1200322FA03F302FA0CF71F43CA
:107F40001346A34048EA03080B0649EA070904F16F
:107F5000070404D4C5E9008905B0BDE8F08F462CBC
:107F6000D4D10020F8E773B50D4669461446FFF7F3
:107F7000C3FF68B12B89082B0CD1DDE90056C4E999
:107F80000056DDE90023B34206BFAA4201200020CB
:107F900002B070BD042B05D1DDE90001206005466B
:107FA0000026EEE7022B03D10098208085B2F7E788
:107FB000012B05D1DDE90001207000F0FF05EFE79E
:107FC0000020E5E737B50D4669461446FFF794FFF4
:107FD00030B12A89082ADDE9003103D1C4E9003132
:107FE00003B030BD042A18464FEAE37108D123607C
:107FF0001A460B468B4206BF824201200020EFE763
:10800000022A04D11BB223801AB2D317F2E7012A45
:1080100003D15BB223705AB2F7E70020E0E7F7B56F
:108020000C46002119702170116001A90746154600
:108030001E46FFF756FE30B9BB6813B901233370F3
:10804000002003B0F0BD01990029F7D0CB0801F062
:1080500007012B602170F4E713B5044605291FD8EA
:10806000DFE801F0030F151E1E1C012201A92046A6
:10807000FFF7CAFE18B19DF90430002BF5DB02B002
:1080800010BD082200212046FFF7BEFEF7E701A938
:10809000FFF727FE0028F2D0019AF3E70422F1E768
:1080A0000020ECE773B50D4601A90446FFF719FE61
:1080B000064618B90026304602B070BD94E80F009D
:1080C00085E80F0001998A42F4D3A960A3685B1A7E
:1080D000A360F0E72DE9F0415568AB7813F0C00ECE
:1080E00088B006468C46144604D0BEF1400F6AD0D4
:1080F000002546E003F00F025D4903F03003102B2A
:1081000051F822701DD006D8002BF1D122692946E2
:10811000B847054635E0202B19D0302BE8D16369EC
:1081200029881980072A0AD1636820691A8971464B
:1081300003F0C8FE63682169D868FFF753FE22691F
:108140003EE0636901221A7022696168E0E7BCF1D0
:10815000020FD4F8148027D1042A25D804A9FFF7E8
:10816000A1FF05460028C3D0069B2BB16168B8F873
:1081700000304A899A4208D8059B7360069B002B01
:10818000B6D1284608B0BDE8F0810889226903FB12
:10819000002204A8B84728B1B8F800300133A8F885
:1081A0000030E1E70546E7E7B8F8003021692A89A1
:1081B00003FB0212698999429AD90133A8F8003069
:1081C00061683046A4E717693B6807F1040813B9F2
:1081D000FFF742FF9DE7022913D104A9FFF762FFD1
:1081E000002885D03B686168424604A89847054648
:1081F00000283FF47DAF069B002BF3D1059B7360F5
:10820000BFE701292BD009D305297FF471AF0422E0
:108210000DEB0201FFF7F8FD042525E0002501AB79
:10822000591901350B2D3FF463AF01223046FFF79A
:10823000EBFD00283FF45CAF01AB2B4413F9013C8C
:10824000002BECDB0B4B049301ABCDE90535002390
:1082500007933B686168424604A8984759E708229B
:1082600001A9FFF7D1FD08250028EBD140E700BFA9
:10827000DCD10E00A97C0E002DE9F04F91B0044630
:10828000002604A8CDE90266FFF7A4FCA3683BBB67
:10829000DDE9053404A89D78FFF7ADFC0028F7D18F
:1082A00015F0300F03D1059B1B8803B10134002C5E
:1082B00000F0A9806309002202A9934240F09C804B
:1082C00010AA02EB830304F01F04C4F120044FF052
:1082D000FF3053F8383CE040C31A584258410DE093
:1082E0000DF1030301AA0DF102012046FFF797FEED
:1082F00038B99DF80330002BCAD1002011B0BDE879
:10830000F08F019904A8FFF7B8FC002850D1019B19
:10831000B3427FD3059D059A937803F00F03082B92
:1083200073D004A8FFF767FC059B9D42F3D14FF083
:10833000FF36019FB7426DD3089B9DF80290D4F899
:1083400008801D684FF0010AA368002D5FD0984592
:108350009CD12B68D3F800B0BBF1000F08D04B467E
:108360003A4629462046D8470028C6D0AD68EBE7F4
:10837000D3F808B0BBF800309F42F7D16A6859467D
:108380000AA8FFF727FC6B680E9305F10C030F9307
:108390009BF8023003F0C003802B04BF2B1D0E930B
:1083A0000AAA85F80CA049462046FFF793FEDBE7B2
:1083B000059B9B7813F0300F0FD1069A3F2A0CD8FB
:1083C000510910AB03EB810102F01F02012393401E
:1083D00051F8382C134341F8383CE5689DF80220E9
:1083E0001DB104AB01992046A84704AA9DF80210CC
:1083F0002046FFF76FFE12E051F8225001357FF45E
:108400007DAF013259E7012078E7168891E798455A
:108410007FF43CAF9DF802102046FFF71DFE0028B8
:108420007FF434AF69E770B50C4606461546114631
:108430002046FFF7D7FC2A4621463046BDE870406B
:10844000FFF71ABFF0B585B00C46CD686946074600
:108450001646FFF727FE68B1E06858B1A37803F02D
:108460003003202B32462946684605D1FFF7DBFF53
:10847000019B7B6005B0F0BDFFF7FEFEF8E72DE93C
:1084800077480E466946FFF737FD88B1DDE90023DE
:10849000002502F001045FEA530C4FEA320B54EA64
:1084A000050308D06FEA0B026FEA0C03C6E900234C
:1084B00003B0BDE87088C6E900BCF9E737B50D46E2
:1084C00069461446FFF7DBFF68B12B89082B0CD1F6
:1084D000DDE90001C4E90001DDE900238B4206BFAC
:1084E00082420120002003B030BD042B03D100984C
:1084F0002060C117F0E7022B04D1BDF900002080F5
:1085000000B2F6E7012B04D19DF90000207040B2C3
:10851000EFE70020E7E713B504220C460DEB02015C
:10852000FFF772FC08B1019B236002B010BD114639
:10853000FFF7F1BF13B508220C466946FFF764FC4C
:1085400018B1DDE90023C4E9002302B010BD1146D3
:10855000FFF7F0BF831F012B10B5044602D800209F
:1085600000F0ECFF034B1B681BB12046BDE8104038
:10857000184710BDC838002038B5104B104C186093
:10858000104B1149E41AE408240444F00300FCF7FA
:1085900009FA0020FFF7DEFF0C4800F097FF0546C0
:1085A00020B90A48BDE8384000F070BC02460849CE
:1085B00044F00100FCF7FAF9284638BDC83800201D
:1085C00064EC0E0054EC0E00B4D30E0055850E0082
:1085D000C7D30E0030B51A490B6885B004460BB1FD
:1085E000013B0B601748184A63682578801AC00859
:1085F000000440F004008BB90B68144A144900933E
:10860000012D18BF0A46A3681249FCF7E3F9636914
:108610009BB1E06805B0BDE8304018470A68029297
:1086200022690192A26800920949084A012D18BFE7
:108630000A460949FCF7E8F9E9E705B030BD00BF93
:10864000CC3800207CEC0E0054EC0E00F1D30E0070
:10865000F7D30E00FDD30E0023D40E0008B5084852
:10866000084B0949C01AC008000440F00400FCF798
:1086700099F9002205490648BDE80840FDF74EBAC1
:108680007CEC0E0054EC0E00C9D40E00C8C20E00E3
:10869000280200202DE9F7439846174C174BDFF8C6
:1086A0006C90E41AE408D9F8003024040546CDE9BA
:1086B00000230E460B4617461149024644F00400BB
:1086C000FCF794F92946CDF800803B4632460D4828
:1086D000FDF73CFA054640B9D9F800300133C9F836
:1086E0000030284603B0BDE8F0830246064944F056
:1086F0000200FCF75BF9F4E77CEC0E0054EC0E0092
:10870000F1D40E002802002034D50E00CC38002011
:108710002DE9F341134B144C144EE41AE40833686A
:108720000093240405460B460F4690461049024626
:1087300044F00400FCF74EF9294643463A460D48FA
:10874000FDF754FA054630B93368013333602846E3
:1087500002B0BDE8F0810246074944F00200FCF790
:1087600025F9F4E754EC0E007CEC0E00CC38002028
:108770005FD40E00280200209CD40E00014B18701C
:108780000B207047D0380020024B002218781A7056
:10879000704700BFD038002018DF704730B585B073
:1087A000054610220C466846002103F08BFBA40806
:1087B000684601950294FFF7EFFF05B030BD1FB585
:1087C000062100234FF480526846CDE90012CDE91E
:1087D0000233FFF7E1FF072802BF4FF000511846B0
:1087E0000A6005B05DF804FB084B09480949C01A46
:1087F00010B5C008000440F00400FCF7D3F8064BA5
:1088000006201B68BDE81040184700BF54EC0E005E
:1088100084EC0E001DDB0E00DC3800200A2803D992
:108820000B38C0B2FFF7AABF7047000070B505460D
:1088300086B00020FDF716FA014690B1244A1821AF
:108840002846FCF77DFD024648B12248224B2349C9
:108850001B1ADB081B0443F00100FCF7A7F806B065
:1088600070BD1822684603F02DFB04238DF80030FC
:10887000194C184B1A4EE41A1A4B1A6D3368E40857
:1088800024049A4244F004041AD117492046FCF704
:1088900089F8164B3168186801F046FE8DF8010022
:1088A000FFF7BCFFD5E901138DF801006846984732
:1088B0000F4800F0B9FD9DF801200E492046CCE795
:1088C00001238DF801306846D5E901139847F2E796
:1088D0002D880E0054EC0E0084EC0E009DDA0E0084
:1088E000D438002068460020C6DA0E00D8380020B0
:1088F000E9870E00F5DA0E002DE9F041836888B0B3
:10890000044623B9AA4940F2CF20FCF707FE1622FD
:1089100000210DF10A0003F0D5FAA64EA6492278EF
:108920008DF80820761AF608012336048DF80930F0
:1089300046F004051F460C2A00F25582DFE812F0CB
:108940000D00B300A500B300B3005302B3009D00B7
:10895000B300950026003D00AA0098492846FCF780
:1089600021F88DF80C709DF8092095492846FCF7F0
:108970001DF8D4E9011302A898479DF80930012B8E
:1089800000F01B828F4B05201B6815E28E4928469C
:10899000FCF708F84FF08053D3F800210392D3F886
:1089A00004210492D3F80C2192020692D3F81021EC
:1089B000920205921B690793D5E78449844E2846A5
:1089C000FBF7F0FF227C83492846FBF7EFFF43F2D9
:1089D0000403326A1B6880498B420CBF02230123C7
:1089E000012A4FF001028DF80920227C08BF0133D3
:1089F00052B902238DF80C30F3680493774B05933A
:108A0000C3F57E230693AEE7012A17D143F2040093
:108A10000068884212D100234FF440528DF80C3088
:108A20001278142A84BF43F214031B6804934FF492
:108A30008053059343F208031B68E3E79A4209D287
:108A400001238DF80C30B368049300F017FEB3696E
:108A50000590D7E762492846FBF7A4FFFF238DF86E
:108A60000C300023CDE90433CCE75E492846FBF700
:108A700099FF237C8DF80C3075E75B492846FBF79E
:108A800091FF238AADF80C306DE758492846FBF773
:108A900089FF68E728465649FBF784FF494B0720C2
:108AA0001B6898475FE7062A524F01D0012A01D17F
:108AB00023693B703B78012B0AD0022B00F0AE807B
:108AC0004D4946F00100FBF76DFF00233B7003E1C9
:108AD000013A072A66D8DFE802F004651444655DB0
:108AE000651E46492846FBF75DFF364B03201B6891
:108AF0009847606901F0D6F9FFF790FE8DF80900FC
:108B000031E73F492846FBF74DFF314BDA6B1B6CD1
:108B10000392049327E7236923B9254940F21310F0
:108B2000FCF7FCFCA38A23B921494FF48A70FCF7B7
:108B3000F5FC34492846FBF735FFA18A206901F08E
:108B4000C9F9FFF76BFE224B8DF80900DA6B1B6C3D
:108B50000493E3680392002B3FF405AF2069984724
:108B600001E729492846FBF71DFF2849284801F05D
:108B70002FFAFFF753FE01288DF809007FF4F3AEBA
:108B8000002000F051FC08B922497FE70A238DF844
:108B90000930E8E620492846FBF704FF4FF400734C
:108BA0000593B2E702494FF4BC70FCF7B7FCDAE674
:108BB0008BD50E0084EC0E0054EC0E00D4D50E00C4
:108BC000F5DA0E00DC380020F7D50E001AD60E00BC
:108BD000684600203DD60E00DBE5B15100400E0096
:108BE0005AD60E0071D60E0088D60E00A2D60E0000
:108BF000C6D60E003C0000205EDA0E00DED60E0067
:108C000008D70E002CD70E0055D70E00D438002000
:108C1000D838002080D70E00A5D70E00013A072AC9
:108C200000F2DD80DFE812F00800DB009D00AC0000
:108C3000DB00CC00DB0063006E492846FBF7B2FE88
:108C400001F078F930B96C4946F00100FBF7AAFE53
:108C500008239CE7626932B9684946F00100FBF7D6
:108C6000A1FE032393E7C2F30B0343B1644B6549B1
:108C70005B6D096813448B4201D06349EDE7B2F59F
:108C8000805F06D9614946F00100FBF78BFE0423A3
:108C90007DE75B4F5B497B6D0968D018884206D938
:108CA000009146F001005A49FBF794FED0E77A6440
:108CB000FA6CBA643B65574A3B636169106801F618
:108CC000FF710022090B1844FFF722FD30B1524911
:108CD00046F00100FBF766FE052358E7BB6C0093E6
:108CE0003B6D7A6C4D492846FBF774FE3BE64C49D8
:108CF0002846FBF757FE01F01DF90028A8D0404F89
:108D0000A18AD7E914329B1A7A6C0B44934201D999
:108D10004449A2E73F4A3B6B1268206903EB020813
:108D200007F14802FCF7DEFBE368064623B93E493B
:108D30004FF4F870FCF7F2FBE368A28A2169404621
:108D4000FFF7A8FC08B1E36808E7A28A3B6B04962A
:108D500013443B63A38A3A6DBE6413443B6503939B
:108D600001E6274E31492846FBF71CFEB36C326DF5
:108D70002F492846FBF724FEB36C0493336DEEE7CE
:108D800028462C49FBF70EFE1D48D0E91473426CAF
:108D9000FB1A934205D0284946F00100FBF710FE6C
:108DA00056E7836CC3640021416447652046FFF7A2
:108DB0003DFD224B1B680420984708B0BDE8F081B8
:108DC0001F492846FBF7EEFD0D4B4FF480519A6C7E
:108DD0001B6D05910091049203931A4983E7124990
:108DE00040F29720E1E6184946F00300FBF7DEFD6C
:108DF0000223CCE6CFD70E00F6D70E002BD80E00FC
:108E000068460020D438002044D80E0065D80E00F3
:108E100089D80E00D8380020FAD80E0011D90E00DB
:108E20004CD90E0072D90E008BD50E0089D90E00D8
:108E3000AAD90E00C0D90E00E8D90E00DC380020F7
:108E40000CDA0E0033DA0E007EDA0E0010B58368FD
:108E50008BB10A4A1821FCF773FA044648B1084856
:108E6000084B0949C01AC008000440F00200FBF793
:108E700099FD204610BD0724FBE700BFF9880E00CE
:108E800084EC0E0054EC0E006FD50E0038B505468C
:108E9000C0B10020FFF7E2FB044648B900F0F0FF44
:108EA00001F048F830B9084B00201D60FFF766FC60
:108EB000204638BD0549064801F08AF80128F2D05D
:108EC0000324F5E70724F3E7DC380020D43800203A
:108ED000D8380020011F0148FCF7EEBBD0EC0E0093
:108EE00013B5074C01AB0A4601462046FDF76AF868
:108EF0009DF8042003482146FDF7F0FB02B010BDA9
:108F00007F3A00204400002010B5064C23783BB186
:108F1000054B984204D00548FDF770FB00232370F1
:108F2000002010BDE03800204CEC0E004400002072
:108F30002DE9F047354B1A7888B004469846002A48
:108F400061D1334B334E3449344DF61AF6083604AA
:108F500046F0040A5046FBF725FD31482C60FCF72B
:108F600043FBA9460446002830D12D482D4F2E4DF5
:108F7000FCF778FB2D4B83220330C3E90104DA6050
:108F80001C702B4B7B602B4BC7E902322A4B3B6199
:108F90002A4B7B610FCD6C460FC495E80F0084E827
:108FA0000F0003220623CDE9002307210523CDE985
:108FB0000213234A234804976946FDF78BF80446B9
:108FC00040B1214946F00100FBF7ECFC204608B017
:108FD000BDE8F08701221D491D48FDF7F9FB044655
:108FE00020B11C4946F00100FBF7DCFC50461A4951
:108FF000FBF7D8FCD9F80030012088F80000002BDE
:10900000E4D09847E2E70024E0E700BFE038002022
:1090100054EC0E0094EC0E009CDB0E00E4380020B3
:10902000D0EC0E00B43A002068DB0E00CC3A0020F1
:10903000E18E0E00D58E0E00983A00204CEC0E000A
:109040005D900E0040000020B8DB0E00B03A00201A
:1090500044000020D1DB0E00E8DB0E0070B5037881
:10906000012B0D4602D0022B33D070BD037A1BB307
:1090700043681A481978FCF7D9FF064601221849B7
:109080001848FDF7A5FB002EEFD1144C2846D4E973
:10909000011201F0D9FB1448FCF7E4FA134B144A0F
:1090A0009B1ADB081B04054640B9124943F0010036
:1090B000BDE87040FBF776BC0D26DFE702460E499F
:1090C00043F003000335FBF771FCC4E90156267039
:1090D000CBE7C068BDE87040FDF7AEBDCC3A0020DC
:1090E000B03A002044000020D0EC0E0094EC0E00BA
:1090F00054EC0E000EDC0E0028DC0E0010B5002231
:10910000044658210430FCF7EDF923681B1A584235
:10911000584110BD2DE9F04716464FF460721F46C6
:10912000054688461E4C02F0B3FE1E4BE41AE408C6
:10913000240444F0040A814650B91B495046FBF709
:1091400031FC16B90020BDE8F0874846B047F9E782
:1091500016495046FBF726FC2A4615495046FBF7B0
:1091600025FC002201212846FFF7D2FA30B111492F
:1091700044F00100FBF716FC0320E4E74FF46072B3
:109180004146384602F093FE33464FF4607239464A
:109190002846FFF77FFA0028D4D00749E8E700BF48
:1091A0009CEC0E0054EC0E00B3DE0E00FDDE0E0053
:1091B00011DF0E0031DF0E0054DF0E002DE9F84301
:1091C00058480368013348D0FFF798FF8046564D52
:1091D000564B2E68564C574FE41A3368E408013357
:1091E0004FEA044400F097803046FFF787FF0028DD
:1091F00074D07368012B7ED00022C32106F518704D
:10920000FCF770F9D6F85C321A1AD2F1000949EB72
:109210000209B8F1000F23D044F004064649304655
:10922000FBF7C0FB4FF460723E49424802F03FFE3C
:10923000B9F1000F2DD041493046FBF7B3FB296847
:109240003F485422043102F032FE29683D4840F282
:10925000C7225C3102F02BFE1BE04FF00008B6E79E
:10926000834209D1384944F00300FBF79BFB4FF4DC
:10927000607229682F48EDE7344944F00200FBF79B
:1092800091FB4FF4607200212A4802F01BFE02237A
:109290007B607D68012D1FD12D4944F00300FBF751
:1092A00081FB2C49402201F2C71002F000FE2A493E
:1092B0001C2201F2C71002F0FAFD284987F8A152DA
:1092C0000023042201F2862087F8603287F8E23218
:1092D00002F0EDFD02237B60BDE8F883B8F1000FDA
:1092E000CAD0154944F00400FBF75CFB4FF46072F0
:1092F0000C493846AEE7B8F1000FB3D044F004068D
:1093000030460D49FBF74EFB4FF460720549384675
:1093100002F0CDFD8FE7B8F1000FADD04FF000099E
:109320007AE700BF00F00F004C00002054EC0E0064
:109330009CEC0E0068460020DEDC0E00F3DC0E0024
:109340006C460020C44600201DDD0E0076DD0E00B8
:10935000DADD0E00C44700200448002084460020C7
:1093600070B50D4C0646002258212046FCF7BAF88D
:10937000002244F8040CC32104F51770FCF7B2F87E
:10938000251FC4F8580232462946044B0448BDE85C
:109390007040FFF7BFBE00BF6C460020DC3A0020E3
:1093A00000F00F00F8B5164B164C174DE41AE40800
:1093B0000E46240407462A68144944F00300FBF7CC
:1093C000F5FA3368013313D111494FF4C170FCF73A
:1093D000A5F83A460F4B28683146FFF79BFE024638
:1093E00060B144F001000C49BDE8F840FBF7DEBA7B
:1093F0003046FFF783FE0028EBD1E5E7F8BD00BF5C
:1094000054EC0E009CEC0E004C00002006DE0E001A
:1094100030DE0E005C3E002076DE0E000149FFF7D4
:10942000C1BF00BF00F00F0038B505460020FFF7B0
:1094300097FF044618B903492846FFF7B3FF2046B3
:1094400038BD00BF6846002038B5114B114C124999
:10945000E41AE4082404054644F00400FBF7A2FAE9
:109460002846FFF7FBF8054638B10C49024644F0A0
:109470000100FBF79BFA032038BDFFF79FFE28464B
:10948000FFF7D2FF0028F7D002460549EFE700BFFB
:1094900054EC0E009CEC0E0056DC0E0079DC0E0045
:1094A000A4DC0E0008B50648064B0749C01AC008E0
:1094B000000440F00200FBF775FA002008BD00BF71
:1094C0009CEC0E0054EC0E003CDC0E002DE9F84341
:1094D000144B154CDFF86090144D1549E41AE4085C
:1094E000A5EB09052404ED0844F0040407462A46C8
:1094F0002046FBF75BFA0026AE4202D14FF000088F
:109500000BE059F8363038469847804640B103465C
:10951000324608492046FBF753FA4046BDE8F88337
:109520000136E9E754EC0E0064EC0E0054EC0E003A
:10953000DBDF0E00FFDF0E004CEC0E002DE9F843E0
:10954000154B164CDFF86490154D1649E41AE408E3
:10955000A5EB09052404ED0844F0040407462A4657
:109560002046FBF723FA0026AE4202D14FF0000856
:109570000CE009EBC60338465B689847804640B16B
:109580000346324608492046FBF71AFA4046BDE832
:10959000F8830136E8E700BF54EC0E0064EC0E00DF
:1095A00054EC0E008CDF0E00B1DF0E004CEC0E0010
:1095B00008B50C22002102F085FC024B00221A6340
:1095C00008BD00BF6846002008B543F20400124BF6
:1095D00002689A421ED1002304221049FFF75AF86C
:1095E00058B10F4B0F481049C01AC008000440F092
:1095F0000100BDE80840FBF7D5B90C4B1A6A43F2ED
:109600000801012A08BF18629A6909680A44A2F58C
:1096100080529A6108BD00BFDBE5B1512CE00E001D
:1096200054EC0E0064EC0E00F3E10E0068460020DE
:1096300043F204031A68084B9A4201BF43F208033D
:10964000186800F6FF7020F47F600CBF20F00F0058
:109650004FF48050704700BFDBE5B15108B5FFF70C
:10966000E7FF054B9B69184400F6FF7020F47F600C
:1096700020F00F0008BD00BF68460020FFF7D8BFEC
:109680004FF48050704700002DE9F04F89B08146BB
:10969000019205936D4A6E4B04919B1ADB081B04E3
:1096A00043F004046B4902932046FBF77BF94A46DA
:1096B00069496A4E6A4D6B4F2046FBF777F9049B68
:1096C0006949002B0CBF32462A462046FBF76EF94B
:1096D000019B6649002B0CBF32462A462046FBF709
:1096E00065F9059B6249002B0CBF32462A4620468D
:1096F000FBF75CF943F204035E491A685E4B2046AF
:109700009A4214BF32462A46FBF750F95B4920467D
:10971000FBF748F9BB693A6A59492046FBF750F90B
:109720007B6AFA6A57492046FBF74AF94FF000086E
:109730000697B346AA465FFA88F5012D5BD0022D45
:1097400068D0FFF78BFF019A0346002A51D0069A92
:10975000166A721E564256414B4F9F4205D24B49E4
:109760000393B120FBF7DAFE039B0793FF1A049BD8
:1097700047494F4538BF0123424620460393FBF734
:1097800015F9079B43491A462046FBF70FF94F4549
:109790002CBF5A46524640492046FBF707F9002E97
:1097A0000CBF5A4652463D492046FBF7FFF8039B43
:1097B0003B49002B0CBF5A4652462046FBF7F6F8B1
:1097C000039B53B14EB9B8F1020F3BD008F1010829
:1097D0000135B8F1030FEDB2ADD14F451ED2029B5A
:1097E000304943F00200FBF7DDF8042009B0BDE882
:1097F000F08F019EB0E7FFF71BFF059A03463AB9C9
:1098000043F2040216681C4AB61A18BF0126A3E7E1
:109810002E46A1E701264FF480539DE7022D0DD17E
:1098200021492046FBF7BEF8FFF7CEFE20461F4930
:10983000FBF7B8F81E48FFF7BBFE01E0002DF5D19D
:109840000020D3E74F45EBD2C9E700BF54EC0E0030
:1098500064EC0E0030E00E004EE00E0068E00E00FA
:1098600063E00E00684600206EE00E007FE00E0010
:109870008DE00E00A2E00E00DBE5B151B2E00E007B
:10988000C1E00E00E1E00E0000100E0001E10E004C
:1098900044E10E004EE10E0063E10E0078E10E009F
:1098A0008BE10E009CE10E00C8E10E00E1E10E002C
:1098B0008046002010B5084C4FF40072FF2120466E
:1098C00002F000FB20220021A4F1240002F0FAFAA9
:1098D000002344F82C3C10BDC44600202DE9F04F75
:1098E0004049414E8A6B414DDFF82891DFF828A1AD
:1098F000DFF828B185B06F465C313846FEF7F2FAE2
:1099000097E80F004FF0000886E80F00384BF3602F
:109910004FF447724146284689F80080CAF8008013
:10992000CBF8008002F0CEFA2A4632493046FEF7E4
:109930007AFD044650B93048304B3149C01AC0084E
:10994000000440F00100FBF72DF814E099F80090B6
:10995000B9F1000F04D095F86C312C78A3B374B131
:10996000264B25482749C01AC008000440F00100D2
:10997000FBF718F80024204605B0BDE8F08F95F8F5
:109980007241002CF7D0DBF80020DAF800103846DE
:10999000FEF7A8FA97E80F0086E80F004FF4B272BE
:1099A000414605F5BA7002F08DFA05F5BA7216490E
:1099B0003046FEF738FD044680B90F480F4B134977
:1099C000C01AC0080004BCE7002CD4D0AC79002C2D
:1099D000D1D008350E4B4C461D60CCE705F5BA7565
:1099E000F8E700BF68460020284500200C42002010
:1099F000AD9A0E0044D30E00A4EC0E0054EC0E0001
:109A000031E70E005EE70E0090D20E007DE70E00FB
:109A1000E4450020084200200442002000420020CB
:109A200010B590F8553013F0FB0F08D190F8642072
:109A30002AB1846E74B30C600124204610BD13F06B
:109A4000010403D090F8564004B1846D9B07F1D512
:109A500090F85C30002BEDD00F4B026EC3F57E23E7
:109A60009A4201D81444E5E70C490D48401AC00851
:109A700000040C4940F00100FAF7A2FF0424074B50
:109A800007480949C01AC008000440F00100FAF76D
:109A900089FFD2E70F24F2E700400E0054EC0E00DD
:109AA000A4EC0E00CCE70E00E9E70E0030B45B68D2
:109AB000DA68134B9A4208D1124C226812B9124943
:109AC0000A6822B1114B00221A7030BC7047D0E9ED
:109AD0000132981813F9015B002DA0EB0302F9DBAA
