:020000022000DC
:1070000000000420B5720200DD720200DF7202008F
:10701000E1720200E3720200E5720200000000006B
:10702000000000000000000000000000E772020005
:10703000E972020000000000EB720200ED72020033
:107040007DA70200EF720200E9B00200EF720200B9
:10705000EF720200EF72020081AB0200EF720200D9
:10706000EF720200EF720200FDBD0200EF7202003B
:10707000EF720200EF720200EF720200EF72020084
:10708000EF720200B9900200EF720200EF7202008C
:10709000EF720200EF720200B9130300EF720200F8
:1070A000EF720200EF720200EF720200EF72020054
:1070B000EF720200EF72020000000000000000000A
:1070C000EF720200EF720200EF720200EF72020034
:1070D000EF720200EF720200EF720200EF72020024
:1070E000EF720200EF720200EF7202000000000077
:1070F00000000000EF72020000000000EF720200CA
:10710000000000000000000000000000000000007F
:10711000000000000000000000000000000000006F
:10712000000000000000000000000000000000005F
:10713000000000000000000000000000000000004F
:10714000000000000000000000000000000000003F
:10715000000000000000000000000000000000002F
:10716000000000000000000000000000000000001F
:10717000000000000000000000000000000000000F
:1071800000000000000000000000000000000000FF
:1071900000000000000000000000000000000000EF
:1071A00000000000000000000000000000000000DF
:1071B00000000000000000000000000000000000CF
:1071C00000000000000000000000000000000000BF
:1071D00000000000000000000000000000000000AF
:1071E000000000000000000000000000000000009F
:1071F000000000000000000000000000000000008F
:1072000010B5054C237833B9044B13B10448AFF3E0
:1072100000800123237010BD3832002000000000E0
:107220008454030008B5034B1BB103490348AFF373
:10723000008008BD000000003C32002084540300A0
:10724000154B002B08BF134B9D46A3F5803A002138
:107250008B460F461348144A121A0AF0C5FA0F4B10
:10726000002B00D098470E4B002B00D098470020F1
:10727000002104000D000D48002802D00C48AFF397
:1072800000800AF04FFA2000290007F015F90AF0F3
:1072900035FA00BF000008000000042000000000D4
:1072A0000000000038320020C0460020000000002E
:1072B000000000000649074A074B9B1A03DD043B08
:1072C000C858D050FBDC02F071FFFFF7B9FF000097
:1072D000E8550300482A002038320020FEE7FEE788
:1072E000FEE7FEE7FEE7FEE7FEE7FEE7FEE7FEE776
:1072F000704700BF00B583B0044B0093044A40239D
:1073000000F036F803B05DF804FB00BF157302000F
:107310005832002002B32DE9F843114B114E884634
:10732000144643F0010903270025224608EB050116
:10733000002007F0CBF903461D444FF47A40E41ACD
:1073400023B9337833B1C847013F06D001233370E6
:10735000002CEAD1BDE8F88370473770BDE8F883A8
:107360005034030054320020704700BF07F062BA67
:10737000F0B595B0002415460F4608461E4602F0AB
:1073800061FC384623460895082205A91A9D0996EE
:107390000D950A948DF82C400C9402F0ADFC9DF8EC
:1073A00014308DF81140DDE9061003F00302012AC4
:1073B000CDE9020127D0022A04D0384602F046FC6B
:1073C00015B0F0BDBDF81650C3F3C2038DF81030F0
:1073D000AD090826082D2C4628BF0824334622462E
:1073E0000EA9384602F088FC2D1B214608AB02AAE4
:1073F0000EA8264400F0DEFD002DEBD1384602F049
:1074000025FC15B0F0BDBDF81460059DC6F38316CC
:10741000C3F3C204B2000EA9384608238DF8104009
:10742000C5F3952502F068FC08AB324628460EA944
:10743000009302AB00F018FD384602F007FC15B0CF
:10744000F0BD00BF08B5FFF791FF0421034800F02D
:10745000C1FC034B01225A7108BD00BFD055030087
:10746000482A0020F0B5324C85B004F5836001F065
:10747000E1FE04F2144001F0DDFED4E9013703EA35
:107480000702D01C04EB800114F8200010F0040067
:1074900044D003F1020C0E7806F00306012E654677
:1074A00035D0022E02F1030621D004EB860100281C
:1074B000F1D104EB82020133D26801923B4004EB2C
:1074C000830302F00302012ADE6829D0022A23D1B5
:1074D000BDF806309B090333360C05EB93051548C0
:1074E00001F0B4FE00B16560304605B0F0BD4B88D8
:1074F0000CEB931307EA0302D11C03F1020C14F8FE
:107500002100654604EB810100F00400CFE70B8801
:10751000C3F383136344EDE70026E0E79D1CC8E74F
:10752000BDF80430C3F38313360C1D44D7E700BF06
:10753000683300207C3700200B4B0C4810B500222C
:10754000FF21C3F818249960C3E90022C3F814246A
:1075500083F8202402F018FB044610B9044802F016
:1075600081FD204610BD00BF683300203C5503005C
:107570007434030021B9124B03EBC000006870475C
:10758000104A0F49521AD20815D030B40E4D2B882C
:10759000834212D0002303E035F82340844205D013
:1075A00001339A42F8D1002030BC704701EBC30090
:1075B000006830BC7047104670470846F8E700BFC7
:1075C000945403003C55030038320020094B013924
:1075D00003EBC00003290BD8DFE801F00208060422
:1075E0000220704740797047007970470420704747
:1075F00000207047945403002DE9F04383B002ABA0
:10760000002203F8012DDFF8DC9007461846884673
:10761000D9F8084001F0C4FBD9E90132D9F800607B
:10762000134401339B1B012B58D809F21C4501213F
:10763000284601F0E7FDFFF715FF0146284601F057
:10764000E1FDD9E90132D9F80010134401335B1A86
:10765000012BECD90A400332052302319DF80700C3
:1076600049F82230C9F8001001F0C0FB00211C4885
:1076700001F0BEFD80F31000731C234009EB83036F
:1076800000043440033440EA1740D86019F824302D
:1076900067F3C50309F8243039F824306FF38913F0
:1076A00029F8243059F8242068F39F221346012139
:1076B00061F301036FF3820349F8242009F82430B1
:1076C00099F820341BB906E000F00EF818B1D9E99A
:1076D00000329A42F8D103B0BDE8F0833146B9E7F1
:1076E00084370020683300202DE9F047934C0023B5
:1076F00084B0C4F81834BFF34F8FD4E9015605EABB
:107700000602D31C04EB830114F82330580719D563
:1077100027680B7803F00303012B43D0022B03D11E
:107720004B88023505EB931506EA0502D4F81804D8
:10773000D31C04EB830128B9AF4239D914F82330A4
:107740005B07E6D404EB82026B1CD26801923340E3
:1077500004EB830302F00302DB680293022A05F1C3
:10776000020700F08D80012A26D0D4F810543DB1D4
:107770002B6828469B689847EB681D68002DF7D159
:107780006F48704B7049C01AC008000440F00200F6
:10779000FFF732FFD4E90030C01A18BF012004B04F
:1077A000BDE8F0870B880235C3F383131D44BBE7A4
:1077B000676004B0BDE8F087BDF804206348C2F3F9
:1077C0008313062B28BF062363F389120233990023
:1077D000ADF8042002F0DAF980460028C5D002F0A6
:1077E00031FA0023082201A9404602F051FABDF8FF
:1077F000043013F4707F00F09F806FF0010AAAEB51
:10780000050A082506EA070103312B46042204EB8A
:107810008101404602F03CFABDF8043007F101094D
:107820000AEB0902C3F3831393424F4605F10405A3
:10783000E8D8D4F81834002B68D1D4F8105465B1C6
:10784000EB685A7928464146002A5BD02B681B68B2
:107850009847EB681D68002DF2D1404602F0F6F91A
:1078600004A8002300F80D3D01F09AFAD4F818346A
:107870000BB9C4F804909DF8030001F0B7FA89E74A
:10788000BDF8063031484FEA93194D46502D28BFB8
:10789000502565F38F1305F10801ADF8063002F0AD
:1078A00075F9804600283FF460AF26EA070A0AF11E
:1078B000010A02F0C7F94FEA8A0A0023082201A947
:1078C000404602F0E5F955452BD9EBB2BAF1000F6D
:1078D00020D006EA0701A3EB0A03033104EB810180
:1078E000DDB252460823404602F0D2F92A460AF198
:1078F00008031749404602F0CBF909F1030907EBE9
:10790000990996E71D68002D9AD1A6E7404602F036
:107910009DF93FE72A4608230D49404602F0B8F991
:10792000EBE706EA0701033104EB81012A4608234D
:10793000404602F0ADF9E0E7B9467AE76833002047
:10794000C454030094540300803403003C550300E6
:10795000743300202DE9F04782B002AB002403F815
:10796000014DDFF8ECA00746184691468846DAF844
:10797000084001F015FADAE90132DAF80060134440
:1079800001339B1B022B5ED80AF21C4501212846BD
:1079900001F038FCFFF766FD0146284601F032FC95
:1079A000DAE90132DAF80010134401335B1A022BD2
:1079B000ECD90A400332033145239DF807004AF809
:1079C0002230CAF8001001F011FAB31C23400AEB70
:1079D000830300211D48C3F80C9001F009FC80F3DB
:1079E0001000731C23400AEB83030004344003346B
:1079F00040EA1740D8601AF8243067F3C5030AF844
:107A000024303AF82430012161F389132AF8243014
:107A10005AF8242068F39F22134661F301036FF3A1
:107A200082034AF824200AF824309AF820341BB93B
:107A300006E0FFF759FE18B1DAE900329A42F8D1B0
:107A400002B0BDE8F0873146B3E700BF84370020BD
:107A5000683300202DE9F04F83B002AD002405F813
:107A6000014D3B4C8046284693469A468946A56878
:107A700001F096F9D4E90132276813440133DB1B86
:107A8000032B63D804F21C460121304601F0BAFBF7
:107A9000FFF7E8FC0146304601F0B4FBD4E90132BF
:107AA0002168134401335B1A032BEDD90A400332DA
:107AB000852344F8223004319DF80700216001F04D
:107AC00095F9BA1CFB1C2A402B4004EB820204EB04
:107AD000830300211F48C2F80CB0C3F80CA001F0CA
:107AE00087FB80F310007B1C2B4004EB8303000416
:107AF0003D40033540EA1840D86014F8253068F35B
:107B0000C50304F8253034F82530022262F38913C6
:107B100024F8253054F8252069F39F2213460121CB
:107B200061F301036FF3820344F8252004F8253044
:107B300094F820341BB906E0FFF7D6FD18B1D4E95C
:107B400000329A42F8D103B0BDE8F08F3946ADE774
:107B500068330020843700202DE9F04F83B002AE57
:107B6000002406F8014D3E4C8046304693469A4626
:107B7000A568894601F014F9D4E901322768134455
:107B80000133DB1B042B69D804F21C46012130466B
:107B900001F038FBFFF766FC0146304601F032FB8E
:107BA000D4E901322168134401335B1A042BEDD967
:107BB0000A400332C52344F8223005319DF80700FE
:107BC000216001F013F9B81CFA1C28402A403B1D23
:107BD0002B4004EB800004EB820204EB8303C0F82B
:107BE0000CB00021C2F80CA01E480C9ADA6001F01B
:107BF000FFFA80F310007B1C2B4004EB830300048E
:107C00003D40033540EA1840D86014F8253068F349
:107C1000C50304F8253034F82530032262F38913B4
:107C200024F8253054F8252069F39F2213460121BA
:107C300061F301036FF3820344F8252004F8253033
:107C400094F820341BB906E0FFF74EFD18B1D4E9D3
:107C500000329A42F8D103B0BDE8F08F3946A7E769
:107C600068330020843700202DE9F04F89B008AE3A
:107C7000002406F8194DCDE902239946139B4D4C7B
:107C80000593149B129F06938046159B04973046DC
:107C900092460793A5688B4601F082F8D4E9013239
:107CA000276813440133DB1B072B00F2818004F2A9
:107CB0001C460121304601F0A5FAFFF7D3FB01462F
:107CC000304601F09FFAD4E90132216813440133B0
:107CD0005B1A072BEDD90A40033240F2851344F8B2
:107CE000223008319DF80700216001F07FF8BB1CAD
:107CF0002B4004EB8303F91C07F1040CC3F80CA020
:107D000029400CEA050C7E1DFB1D2B402E4004EB88
:107D1000810104EB8C0CBA1D04EB830E2A40129BEC
:107D2000C1F80C9004EB8606CCF80C3004EB820210
:107D3000139BF360149BD3600021159B1E48CEF863
:107D40000C3001F055FA80F310007B1C2B4004EB43
:107D5000830300043D40033540EA1840D86014F81E
:107D6000253068F3C50304F8253034F825300622A1
:107D700062F3891324F8253054F825206BF39F22F1
:107D80001346012161F301036FF3820344F82520B8
:107D900004F8253094F820341BB906E0FFF7A4FC62
:107DA00018B1D4E900329A42F8D109B0BDE8F08F99
:107DB000394690E76833002084370020044BD3E92C
:107DC00000239A4201D0FFF78FBC0020704700BF0C
:107DD0006833002030B4184DD5F8104400215CB150
:107DE000E3681A798A4204D116E0DB681A798A427C
:107DF00012D01B68002BF8D1C3681971D5F8103464
:107E000093B1DA68C36812681A60D5F81034DB6879
:107E1000186030BC0846704701310A29DFD14FF0A5
:107E2000FF31084630BC7047C5F81004C2681360C3
:107E3000084630BC704700BF6833002038B5094B96
:107E4000D3F81044012583F820544CB1E3685D71E8
:107E5000236820465B689847E3681C68002CF5D1CE
:107E600038BD00BF683300202DE9F04784B01D46BF
:107E70000C9C002394F80C802373EB8881460E46FB
:107E80001746002B40D1297A05290ED06B7AA88895
:107E900073BB404B53F821A00021FFF76BFB524608
:107EA00003463D49204601F049FA062F09D8DFE88C
:107EB00007F0046A4249525D33004946204601F00A
:107EC0003DFA2B7A052B05D06B7A5BB933492046F6
:107ED00001F034FA204601F025FA84F80C8004B051
:107EE000BDE8F0872E4A2F49204601F027FAEDE73A
:107EF000FFF76CFB2C4B2B4953F82020204601F058
:107F00001DFA297AA888C4E7254A00922749284AF9
:107F1000204601F013FAB6E7D6E90410D6E90023AB
:107F20000390D6E902070291CDE9000749462046B1
:107F300001F004FAC5E74946D6E90023204601F0DE
:107F4000FDF9BEE7B168D6E9002320460091494615
:107F500001F0F4F9B5E7D6E90201D6E90023019171
:107F600000904946204601F0E9F9AAE7D6E90371F5
:107F7000B068D6E900230291CDE9000749462046C2
:107F800001F0DCF99DE732684946204601F0D6F958
:107F900097E700BF04350300F8340300B43E030044
:107FA000F03403002044030098340300D834030065
:107FB000D0340300082900D970472DE9F04F1D4641
:107FC000904600232A7B2B7385B0B8F806300392C5
:107FD00007460E46002B7BD198F80810052911D0D2
:107FE00098F80930B8F80400002B63D13C4B53F8E3
:107FF00021400021FFF7BEFA2246034639492846B0
:1080000001F09CF9DFF8FCB0DFF8FC90002405E0FB
:108010003A5D013401F092F9082C09D0A642494694
:108020002846F5D85946013401F088F9082CF5D1D5
:108030002D49DFF8D8B0DFF8D890284601F07EF956
:1080400000240CE017F804A0BAF17E0F23D92E22E9
:1080500049462846013401F071F9082C08D0A6429F
:10806000F0D859462846013401F068F9082CF6D1B9
:1080700098F80830052B02D098F80930A3B91B49AD
:10808000284601F05BF9284601F04CF9039B2B735D
:1080900005B0BDE8F08F09F06DFB504452464378BF
:1080A00013F0970FD3D0D3E7114A1249284601F0B5
:1080B00045F9E4E7FFF78AFA0F4B0E4953F8202001
:1080C000284601F03BF998F80810B8F804008DE74D
:1080D000074A009209490A4A284601F02FF97BE72E
:1080E00004350300F8340300C8340300B43E030031
:1080F000F03403002044030098340300D834030014
:10810000D0340300C4340300BC340300A441030092
:10811000CC34030070B51A4B1D789DB1194B1C6807
:108120002378C0B2984210D004F10802002306E080
:1081300014F833108142164602F1080206D00133CA
:108140009D42F5D100231B78FFDE264602F008FD94
:108150007378A3F10103B3FA83F35B09834200D080
:1081600070BD094BD3E900231343F9D1074B0848ED
:10817000196800224908BDE8704000F02FBC00BF1C
:10818000243800207838002050380020283800207B
:10819000303800202DE9F04F9D4E337887B0002B0A
:1081A00000F030819B4F9C4DDFF8788200244FF027
:1081B0000109D7F800B01BF8340002F0D1FC0BEB3A
:1081C000C4031BF834B05B784FEA5B0C1BF0010E64
:1081D00015F80C10A3F10103B3FA83F314BF0A09D5
:1081E00001F00F025B09042A00F2D080DFE812F0F0
:1081F0009800D000690048000500834200F0E98043
:10820000BEF1000F0CBFF0230F233078194005F8A2
:108210000C10A8B1D7F800C09CF800305B4500F006
:10822000E7800CF10802002304E01CF833105945E4
:1082300000F0DF8001338342964602F10802F4D158
:108240004FF000030DF117008DF817300023039352
:1082500000F0A6FDABF12002CBF1200329FA03F3D5
:1082600009FA02F21A4309FA0BF103920291D8E9D2
:108270000023DDE9020122EA000023EA01017DE09A
:10828000834232780CD0BEF1000F0CBFF0230F23D5
:1082900003EA01030CBF04214021194305F80C1027
:1082A0000134944285DBD8E90023134306D05B4BAD
:1082B0005B4819680022490800F090FB07B0BDE850
:1082C000F08F834276D1BEF1000F14BF0F23F0234D
:1082D00003EA0103327814BF30210321194305F862
:1082E0000C10002ADFD0D7F800C09CF800305B45A6
:1082F00000F08B800CF108010023013393428E467D
:1083000001F10801CCD01CF833005845F5D1DEF856
:108310000430002BC4D05846012198473278BFE77B
:10832000834233D1BEF1000F0CBFF0230F2303EAC9
:1083300001030CBF0121102119434FF000030DF17F
:1083400017008DF817300023019305F80C1000F08A
:1083500027FDABF1200309FA03F301930198CBF158
:10836000200129FA01F1084309FA0BF1019000916B
:10837000D8E90023DDE900011043194302460B460A
:108380009DF81700C8E9002300F030FD327887E738
:10839000834213BF0023202302221A46BEF1000F9E
:1083A00012BF0F20F020134601400B4305F80C309C
:1083B000327875E7BEF1000F0CBFF0230F2303EAFC
:1083C00001030CBF01211021194305F80C1032786C
:1083D00066E7BEF1000F14BF0F23F02303EA010389
:1083E00014BF30210321194305F80C10327857E7E8
:1083F000E646DEF80430002B3FF422AF0021584659
:1084000098471DE7DFF81C804DE7E6467FE700BF91
:1084100024380020783800205838002028380020E0
:108420003038002050380020092A40D9F0B583B0F8
:108430000E460546144602F01DFA002831D0204AA7
:108440002049214B15600E70202200211F481C601E
:1084500009F0CAF91E4B00200021741EC3E9000177
:10846000E4B236B305EBC4041A4E083D032701E01D
:10847000A5421ED09DF8063020788DF8047003F0D8
:10848000FC036FF382038DF80630A3788DF8053076
:10849000324601A902F0F8F9083C0028E8D003B000
:1084A000F0BD02F09DF90028C9D003B0F0BD07204F
:1084B0007047094A0948002100F082FA03B0F0BD74
:1084C0007838002024380020283800205838002030
:1084D000503800201581020095810200703503009C
:1084E00070B5084D2B785BB1074E0024336801212D
:1084F00013F8340002F0B8FA2B780134A342F5D80F
:10850000002070BD243800207838002000B585B0E8
:1085100000230390194601AA44F20100CDE901337A
:1085200000F004F805B05DF804FB00BF10B572B6AA
:10853000FFF784FCFFF742FC0028FBD1104B114CE5
:108540001149E41AE408240444F00100FFF754F848
:108550000E4B1B68DB0700D500BE44F002000C493F
:10856000FFF74AF8BFF34F8F0A490B4BCA6802F472
:10857000E0621343CB60BFF34F8F00BFFDE700BF46
:1085800094540300C454030080350300F0ED00E070
:108590008C35030000ED00E00400FA0559B142B14A
:1085A000531E1A4005D1826001608380C26010466C
:1085B0007047092070470E20704700BF10B4034673
:1085C0008468C0689A88001B82420AD3D8681C68F5
:1085D00002400020A154DA680132DA605DF8044BF1
:1085E000704704205DF8044B704700BF0346806865
:1085F000DA6890420DD010B498689A881C680240DE
:108600000020A25C0A709A6801329A605DF8044BFF
:1086100070470520704700BFD0E90223D1E902016D
:10862000994208BF90422CBF01200020704700BF34
:108630002DE9F04F87B0039000F0FCFC40B19B495E
:10864000D1E9002312F1807443F10005C1E900452E
:1086500000210398964C00F009FD60B1236853B1E6
:10866000944B25681B7823B11DB12B7F002B40F064
:108670002D81002323600121039800F0F7FC0028DE
:1086800040F0F38005A98C4800F074FD18B38B4EC0
:10869000884F894D0378012B00F0C680C0F0CC8054
:1086A000022B0ED130464FF0000801F013FD30B11F
:1086B00080F81C80304601F00DFD0028F8D1012320
:1086C0003B7005A9284600F083FD05A9284600F067
:1086D00051FD0028DED1794E794FDFF8D09103E0CB
:1086E0000D2855D000232360304601F0F9FC2368A3
:1086F000002800F0B48063B12368D0E90201D3E917
:108700000223994208BF90423BD223681B7F002B73
:108710007FD1304601F0DEFC0546D5E9022338461C
:10872000CDE9002300F0B4FCD9E90023DFF89481FF
:1087300012EB000A43F1000BD8E900239B4508BF68
:10874000924503D21AF1807A4BF1000BDDE900016A
:10875000B0EB0A0061EB0B01012871F1000313DBA0
:10876000DFF864A1504559D8AA684FF49603002158
:10877000384600F0D9FB0028B2D12368002B67D01F
:10878000256007B0BDE8F08F0021384600F062FC9C
:10879000484B1B78002BA5D02B7F002BA2D038464E
:1087A00000F076FCD8E90023D9E900ABCDE900233D
:1087B0001AEB00024BF1000310461946DDE90023D5
:1087C000994208BF904203D210F1807041F100013C
:1087D000D5E90223994208BF904261D32B6903B9BE
:1087E0002B77D5E905309847296900293FF47AAFFE
:1087F0002B7F002B3FF476AFD5E9022312EB010A61
:1088000043F1000BC5E902AB2946304601F04EFCAE
:1088100068E72168304601F049FC7AE7384600F005
:1088200037FC00EB0A02A0E741682368994213D0A5
:10883000304601F059FC44E743681A7F002A7FF470
:1088400040AF01221A774168304601F02FFC38E72B
:10885000039800F03BFB93E70023236031E7002BF4
:108860008FD1039800F036FB8BE71548DFF8548072
:1088700000F00EFC0D4BD3E90067D8E9002316EB9E
:10888000000947F1000A9A4508BF914548465146FC
:1088900003D219F180704AF10001C8E90001F1E644
:1088A0002946304601F002FC1CE700BF803800205A
:1088B0000039002088380020E4380020A03503006B
:1088C000502A0020F8380020FFFFB4001D4800F0B7
:1088D000DFFB1D4A1D4BD2E90067D3E9002316EBED
:1088E000000847F10009994508BF904540464946B0
:1088F00003D218F1807049F10001D5E902239942B1
:1089000008BF904219D32B6903B92B77D5E90530FD
:108910009847296900293FF4ACAE2B7F002B3FF428
:10892000A8AED5E90223561843F10007C5E902674E
:108930002946074801F0BAFB9BE62946044801F0A6
:10894000B5FB96E6502A002080380020F838002039
:10895000A035030010B5134B13491B68134882B0B0
:1089600058220193082300F0B1FB044610B12046C1
:1089700002B010BD0E4A0F4801A900F04FFA04469C
:108980000028F4D101210B4800F04AFB01231946CD
:10899000094A084800F0A2FA084B012220461A7042
:1089A00002B010BD9C3503008C380020E438002054
:1089B00031860200502A0020FFFF7F008838002007
:1089C0004AB1A1F101010368B1FA81F14909C3E992
:1089D0000412002070470720704700BF037F0BB1CF
:1089E000002070472DE9F048826182B004461F489C
:1089F0000D4600F04DFB1E4B1E49D3E90023D1E983
:108A0000006712EB000B43F1000CBC4508BFB345F7
:108A100003D21BF1807B4CF1000C1BEB050221699A
:108A20004CF10003C4E9022379B901A9124800F00E
:108A300065FB88B100254460057001A90E4800F06F
:108A400089FB68B902B0BDE8F088256101A90A4830
:108A500000F054FB0028EDD1042002B0BDE8F088FE
:108A6000024800F019FB2846ECE700BF502A00201E
:108A700080380020F8380020E438002030B5002588
:108A800083B00446057701A90B4800F037FB78B1A5
:108A900001234460037001A9074800F05BFB08B99B
:108AA00003B030BD054800F0F7FA284603B030BDEA
:108AB000042003B030BD00BFE4380020502A00205D
:108AC00030B50478012C83B027D017D3022C13D1F2
:108AD000384B394D1A78C168AA5C01918DF8004075
:108AE000002A3FD103F10C000122344902F06CFD51
:108AF000334B68461B68984703B030BD3149324854
:108B0000FFF774FD002843D002A8032300F8083DB6
:108B10002B4B1B68984703B030BD037ABBB1436849
:108B20002A4D19782846FFF749FD28B3244B0190B8
:108B30008DF800401B6868469847A968EB68AA88CA
:108B40005B1A9A4203D2224B01221A70D4E7194BC6
:108B5000194A1B781949D35C01224BB91D4802F010
:108B600033FDC9E7181D0122144902F0EDFFBFE7EC
:108B7000194802F0E9FFBFE7AA68EB689A42DCD027
:108B800002AB0F4A03F8080D126818469047D4E765
:108B90000848094A0378D35C2BB9012209490C30F3
:108BA00002F0A0FCA8E701220649043002F068FFA9
:108BB000A2E700BF582A0020404600202C390020A0
:108BC00004390020303900201C39002008390020E9
:108BD00018390020642A00205C2A00202DE9F04585
:108BE000324C89B02260002955D00C4680468A88D4
:108BF0002F4809689A46FFF7D1FC10B109B0BDE8CB
:108C0000F085A289A1682B48FFF7C8FC0028F5D1A0
:108C1000294D98F810C0D8F81470284E0FCD6C4626
:108C20000FC495E80F0098F811501CF1000C18BF04
:108C30004FF0010C002D84E80F00D8F80850D8F848
:108C40000040D8F80430069714BF0E220022D8F84E
:108C50000C708DF8152069463046194A8DF81CA015
:108C60008DF814C0CDE90275CDE9003401F016FD90
:108C70000028C3D1D8F80030124A01331070BDD09B
:108C8000114A3378D35C53B906F10C0001220F4925
:108C900002F09AFCB2E7072009B0BDE8F085301D6C
:108CA00001220A4902F050FFA8E700BF0439002062
:108CB000083900201C390020B8350300582A00204C
:108CC000C18A020018390020404600202C390020BB
:108CD00070B5114C014611482678FFF787FC054610
:108CE0000EB9284670BD0E480E4A0378D35C0022A8
:108CF000227053B90C3001220B4902F065FC0028A8
:108D0000EFD0FFF703FC284670BD0122064904306E
:108D100002F01AFFF3E700BF1839002008390020DD
:108D2000582A0020404600202C39002070B501460A
:108D30001548FFF743FC044608B1204670BD134DAB
:108D4000134E2B78F35CABB905F10C0002F030FC4C
:108D50000028F2D10F490C48FFF748FC0028ECD15D
:108D60002B780C49F35C012243B90B48BDE87040F5
:108D700002F0B8BB281D02F0D9FEE9E70748BDE8BC
:108D8000704002F07DBE00BF1C390020582A002030
:108D90004046002030390020642A00205C2A002050
:108DA00070B4EFF3108472B60D4B9A68AAB90D49EE
:108DB0000D4E01259D60D1F8805035401D60C1F8F1
:108DC0008060D1F884505D604FF0FF33C1F884308B
:108DD000027004B962B670BC704701230370F8E7F3
:108DE0003446002000E100E0FC06FFBD094B9A6814
:108DF0007AB170B910B4EFF3108172B6064A1C68EC
:108E000014605C685460986001B962B65DF8044B08
:108E1000704770473446002000E100E0F8B5234E6B
:108E20004579234C234F0346234847F82520801BD0
:108E300004EBC506C0083679000486BB1A680D88A5
:108E4000C2F8085593F904208978002A1FDB02F143
:108E5000604202F561424901C9B282F8001393F9F8
:108E60000420164F1649012602F01F05520906FA82
:108E700005F547F822505A7904EBC20540F003008B
:108E80002E7144F83230FEF7B7FB0020F8BD0D4DCF
:108E900002F00F0249011544C9B22976DFE740F01C
:108EA00002000949FEF7A8FB0820F8BD945403000E
:108EB000343900203C390020D454030000E100E0A4
:108EC0000C360300FCEC00E0E835030003680122E7
:108ED0001A607047036801225A607047F0B4046852
:108EE0004FF480358D40C4F8085306688C00C6F8EE
:108EF000485304F5A0740668A4B20027375182B025
:108F000036590468019601F5A87122F07F42019E4E
:108F100044F821200268C2F8445313B10368C3F82F
:108F2000045302B0F0BC70472DE9F04788464FF477
:108F30008037016807FA08F7C1F848730168C1F87B
:108F40000873064600684FEA88040119D0F80455F2
:108F5000D1F84005C1F8405504F5A074A4B23168B9
:108F60004FF0000941F8049082B0401B095900916C
:108F700020F07F4001289A4622F07F45009B0BD1CC
:108F8000264B4FF4806043F001039847336843F861
:108F900004901B590193019B3368D3F80445C3F82F
:108FA00044732B1B23F07F43012B08F5A87817D1BE
:108FB00030681A4B013540F8285043F001034FF454
:108FC000806098473268D2F804359C4222D1C2F8BA
:108FD000447333680020C3F8047302B0BDE8F0871F
:108FE000336843F828503268D2F804156B1ACAF176
:108FF000FF1A013B0AF57F4A23F07F439A4509D3C4
:10900000002BE4D1013542F828503268D2F80435FB
:109010009942DCD00D2002B0BDE8F087E0350300B6
:1090200002680223C2F8443311B10268C2F8043363
:10903000704700BF0368D3F8040150B1002282B02A
:10904000C3F80421D3F804310193019B012002B03D
:10905000704770474FF48033026803FA01F1C2F899
:1090600048130368C3F80813704700BF890001F56F
:10907000A07189B20368585840B100225A5082B09A
:109080005B580193019B012002B07047704700BFFD
:109090000368D3F80405704790F9043005485A096D
:1090A000403203F01F03012101FA03F340F822309C
:1090B000704700BF00E100E0024A034B10681B68E4
:1090C000184700BF343900203C39002099B110B452
:1090D000B2FBF3F403FB1424A4B244B9C0E90014B6
:1090E00084608281C38120465DF8044B704709206B
:1090F0005DF8044B70470E20704700BF30B482B05B
:1091000050E8013F9DB2C48925448489A54228BF07
:109110002D1B0489A54202BFBFF32F8F002207E059
:10912000C5EA030540E80154002CE9D14FF00102E3
:109130008DF803200193019B9DF803200B602AB159
:109140000B880068184402B030BC704702F0FF037F
:109150001846F8E70A884B889A4201D000207047E9
:1091600050E8012FC2EA024240E80123002BF7D168
:109170000120704730B482B050E8023F1FFAA3F5D7
:10918000C488A54202BFBFF32F8F00220DE0C4891F
:1091900025448489A54228BF2D1BC3EA054540E824
:1091A0000254002CE8D14FF001028DF80320019306
:1091B000019B9DF803200B602AB14B88006818447E
:1091C00002B030BC704702F0FF031846F8E700BF5A
:1091D0000A884B889A4201D00020704750E8022F3D
:1091E000C2EA224240E80223002BF7D10120704757
:1091F00050E8002F0B4640E8003C9CF0000FF7D1F0
:109200001046704750E8003F03EB010240E8002C95
:109210009CF0000FF6D11046704700BF50E8003FA9
:10922000A3EB010240E8002C9CF0000FF6D11046A1
:10923000704700BF012350E8002F42EA030C40E8CA
:1092400000C191F0000FF6D160467047002350E84E
:1092500000CF0CEA030240E8002191F0000FF6D1A4
:1092600060467047B8B130B4D0E90112521A0468B0
:10927000D2B2531E2160DBB242B101680A685C1EA3
:10928000551C0D601370E3B2FF2BF6D1036800206C
:10929000187130BC70470E20704700BFF0B583B026
:1092A00002AB002503F8015D04461846FFF778FD80
:1092B000D4E900311A688A4210D9511E1960216818
:1092C000A3680F6812F8015C0A79268AE068DB1B44
:1092D000DBB29A4206FB050538BF0B719DF807000B
:1092E000FFF784FD284603B0F0BD00BF30B583B062
:1092F00002AB002203F8012D054618460C46FFF785
:109300004FFD2A681368591C1160E9682A8A641A9B
:10931000B4FBF2F41C709DF80700FFF767FD03B083
:1093200030BD00BF826842B110B504464369016890
:10933000006998470023A36010BD70470EB400B5C4
:1093400082B0039929B102AA04AB42F8043D00F0AF
:10935000A9F802B05DF804EB03B070472DE9F04FB7
:10936000924683B051450F4605461E46DDE90CB2D4
:10937000C0F092800B464FF00108B3FBFAF39A4518
:1093800008F10108F9D9B04538BFB04612F001091B
:10939000A96802D1BBF1000F54D1012402E0013EC3
:1093A0000AFB04F4012EFAD8B7FBF4F08245F7D992
:1093B0003B4E02E0A968B7FBF4F0335C2A680A2B45
:1093C00004FB107702EB010E01F1010029D0A86027
:1093D0008EF80030D5E90131994202D32846FFF7D3
:1093E000A1FFB4FBFAF4002CE4D1B9F1000F15D0C1
:1093F000BBF1000F12D0C34510D92024AB682A68F6
:10940000591CA960D454D5E901329A420BF1FF3BB3
:1094100014D2BBF1000F01D0C345EFD103B0BDE8BA
:10942000F08FA8604FF00D005054D5E9011088422C
:109430001DD2296801EB000E0130C8E72846FFF76E
:1094400071FFE6E7930722D42024C345A5D92B68F2
:109450004A1CAA605C54D5E9013199420BF1FF3BEB
:1094600010D2BBF1000F98D0C345F0D195E7284644
:109470000193FFF757FFAA682968019B501C01EB75
:10948000020EA4E72846FFF74DFFA968E9E7002E82
:109490000CBF30242024D8E74FF0010873E700BF49
:1094A00020360300002900F0B9822DE9F04F05466F
:1094B00087B091460C460E78DFF8C8A64FF00D0B2A
:1094C00013E0AB6828680A2E03F1010200EB0301E8
:1094D00000F04B82AA600E70D5E901329A4280F00A
:1094E0001B812678002E00F01E810134002E00F032
:1094F0001A81252EE5D12346002713F8012B2D2AAA
:1095000000F0E380302A00F0E4802B2A00F0D480C1
:109510002A2A00F00D81A2F13006F1B2092903D9FF
:109520007DE2A1F130060346184606EB860110F8ED
:10953000012BA2F13004092C02EB4101F1D92E2AB2
:1095400000F002814FF00008013301E013F8012B15
:1095500002F0FB0168291C46F8D0253A532AC0D8EE
:1095600001A353F822F000BF53990200E3940200D4
:10957000E3940200E3940200E3940200E394020007
:10958000E3940200E3940200E3940200E3940200F7
:10959000E3940200E3940200E3940200E3940200E7
:1095A000E3940200E3940200E3940200E3940200D7
:1095B000E3940200E3940200E3940200E3940200C7
:1095C000E3940200E3940200E3940200E3940200B7
:1095D000E3940200E3940200E3940200E3940200A7
:1095E000E3940200E3940200E3940200E394020097
:1095F000E3940200E3940200E3940200E394020087
:10960000E3940200E3940200E3940200E394020076
:10961000E3940200E3940200E3940200E394020066
:10962000E3940200E3940200E3940200E394020056
:10963000E394020037990200E3940200E3940200ED
:10964000E3940200E3940200E3940200E394020036
:10965000E3940200E3940200E3940200E394020026
:10966000DB960200BD980200E3940200E39402003E
:10967000E3940200E3940200BD980200E394020028
:10968000E3940200E3940200E3940200E3940200F6
:10969000E394020025980200E3940200E3940200A0
:1096A0009D970200E394020081970200E394020078
:1096B000E39402003799020047F004071C46234652
:1096C00013F8012B2D2A7FF41DAF47F001071C462C
:1096D000F5E747F002071C46F1E7D9F800301A1DFC
:1096E000C9F800201E78AB680A2E0CD12A68591CD4
:1096F000A96002F803B0D5E90123934203D32846B9
:10970000FFF710FEAB682A68591CA960D654D5E94A
:1097100001329A42FFF4E5AE2846FFF703FE2678B1
:10972000002E7FF4E2AE2B7B23BB07B0BDE8F08FA9
:10973000D9F80020111DC9F80010166862782E2A89
:1097400004F102007FF4FEAE5A78A2F13003092B37
:1097500000F2BD814FF0000808EB880802EB4808D2
:1097600010F8012FA2F13003092BA8F13008F3D92A
:109770000346E9E6284607B0BDE8F04FFFF7D2BD43
:10978000D9F800301A1DC9F800201968019743461E
:1097900000960A222846FFF7E1FDA2E6D9F800303C
:1097A0001A1DC9F80020D3F80080FB0700F1E880FB
:1097B000B8F1000F00F0A181404608F0B6F8074666
:1097C000BE4215D9A6B1202100E08EB1AA682B684F
:1097D000501CA8609954D5E901329A4206F1FF362F
:1097E00004D328460391FFF79DFD0399BE42ECD1B7
:1097F00008F1FF3818F8016F002E3FF472AEAB6825
:1098000028680A2E03F1010200EB030100F09081A9
:10981000AA600E70D5E901329A42EBD32846FFF7D1
:1098200081FDE7E7D9F80020131DC9F80030AB68C7
:1098300029681768581C3022A860CA54D5E901234A
:10984000934280F0E6802A68581C7821A860D154A1
:10985000D5E90123934280F0D7800F2F03D93A46F0
:1098600012090F2AFCD84FF080560DE0AA6081F84B
:109870000080D5E901329A4202D32846FFF752FD13
:1098800036093FF42EAEAB68B7FBF6F21AF8028049
:109890002868B8F10A0F06FB127700EB030103F109
:1098A0000102E3D1AA6000F803B0D5E901329A427F
:1098B00080F049812B6899180132D7E7D9F8003038
:1098C0001A1DC9F80020196881EAE173A3EBE1735E
:1098D000092B40F30E81AA480122A0FB03C3DB0839
:1098E000092B02F10102F8DC4245134638BF43461A
:1098F000039307F00203002E40F09580002B00F048
:10990000B780B8F1000F00F0F680F80740F1B080A2
:109910000029C0F2FF807A0700F1C88007F0030336
:10992000022B00F0A780CDE9006743460A222846B3
:10993000FFF714FDD5E5D9F800301A1DC9F800204D
:10994000196801974346009610222846FFF706FD46
:10995000C7E5AB682A68581C2521A860D154D5E911
:1099600001329A42FFF4BDADD6E6AA6000F803B01A
:10997000D5E901329A423FD2296811440132A9E562
:109980004146A1EB080311F8017BD7B1AB68D5F8CC
:1099900000C00A2F03F101020CEB030000F0AF80BE
:1099A000AA600770D5E901329A42EAD328460391AA
:1099B000FFF7B8FC0399A1EB080311F8017B002F16
:1099C000E4D19E427FF68DAD202702E0002E3FF4C9
:1099D00088ADA9682A68481CA8605754D5E90121B8
:1099E000914206F1FF3604D328460393FFF79AFC11
:1099F000039BB342EAD174E52846FFF793FCAB68BA
:109A000029685A1C194465E52846FFF78BFCAB68AA
:109A100023E72846FFF786FCAB6814E77047184633
:109A2000002623468BE5002920DB7A071ED41BB1D4
:109A3000B8F1000F3FF46CAFF8073FF569AFBEB166
:109A4000039BB342BFF464AF2023AA68501CA860F4
:109A500028688354D5E90102824206F1FF3640D2DC
:109A600036B1039AB242F0D1164651E7013EDEE725
:109A700000264DE7B8F1000F7FF455AF002E6AD0F5
:109A8000039BB342BFF44FAF3023AA68501CA860B9
:109A900028688354D5E90102824206F1FF3618D2C4
:109AA000002E58D0039AB242EFD13CE7AA68531C6B
:109AB000AB602B682B209854D5E901329A42FFF411
:109AC0002DAF28460491FFF72DFC049926E70346A5
:109AD00038E52846CDE90413FFF724FCDDE904133B
:109AE000DEE72846CDE90413FFF71CFCDDE904138B
:109AF000B6E70122F8E646460AE7474660E6AA606E
:109B00000CF803B0D5E901329A4226D22B68981896
:109B1000013245E7AA68531CAB602B682D2098548E
:109B2000D5E901329A42C1F10001FFF4F7AEC8E76E
:109B3000AA6000F803B0D5E901329A4217D2296829
:109B40001144013264E62846FFF7ECFBA9682B6854
:109B50004A1C19448AE60026E5E628460391FFF7E9
:109B6000E1FBA8682B680399421C184418E72846B3
:109B7000FFF7D8FBAB6829685A1C194448E600BFB8
:109B8000CDCCCCCC20360300FFF76CBB2DE9F041E7
:109B9000058ACE1C043D2E440746B6FBF5F6FFF7BA
:109BA0007DFB78B3F6B24FF48073013E0446C58066
:109BB0000760838027D08046002509E06379AE42A4
:109BC00003F101036371C8F80000076080461AD0F2
:109BD0003846FFF763FB01350028EFD16679721E26
:109BE00014D02346013082421B68FBD11F684EB15E
:109BF000002523682146013538461C46FFF776FBD1
:109C0000AE42F6D100242046BDE8F0812768EFE798
:109C1000F8B546790146701E11D00A46002301337B
:109C200098421268FBD1176846B100240D680134D0
:109C30003846FFF75BFBA6422946F7D1F8BD0F680F
:109C4000F3E700BF04300121FFF7DCBAF8B50121CA
:109C500004460430FFF7E2FAC0B200B1F8BD6679FD
:109C6000721E12D02346013082421B68FBD11F684E
:109C7000002EF3D0002523682146013538461C46C6
:109C8000FFF734FBAE42F6D1F8BD2768F2E700BF1C
:109C90002DE9F843C788467907FB06F6043E02EB38
:109CA000030C0446664503F1040015468846B0FBE4
:109CB000F7F238BFF51A07FB120012B1013A246817
:109CC000FCD13E1AAE4228BF2E469DB14FF000098E
:109CD0000430AD1B2044324608EB090107F079FD42
:109CE000AF42B14424683E464FF0000028BF2E46E4
:109CF000002DEDD1BDE8F8832DE9F843C7884679FA
:109D0000154607FB06F6043E05EB030C1A1D6645D7
:109D100004468846B2FBF7F038BFF51A07FB10215E
:109D200010B101382468FCD17E1AAE4228BF2E46FD
:109D30009DB14FF0000904312144AD1B324608EBC0
:109D4000090007F046FDAF42B14424683E464FF09B
:109D5000000128BF2E46002DEDD1BDE8F88300BFDD
:109D600033DF704741DF7047064A074B10B50024C8
:109D700014701C60BFF35F8F0449054800F080F940
:109D8000204610BD493900204C39002030360300F0
:109D90004039002000B583B002A8002300F8013D3F
:109DA000FEF7FEFFF1EE103A23F09F03E1EE103ACA
:109DB000BFF35F8F0A4B4022C3F884219DF8070050
:109DC000FFF714F807F0F2FA28B920BF40BF20BF10
:109DD00003B05DF804FBFFF7C5FF03B05DF804FBBB
:109DE00000E100E0F8B5264D064601212846FFF7C0
:109DF000FFF9BFF35F8FD0B9042E2FD0214B1A7813
:109E000092B9214C012226701A70204E73687BB1E2
:109E1000374604E0384600F03DF9736843B11B68EB
:109E2000207898470028F5D1BFF35F8F2860F8BDF0
:109E3000FEF704F8FDF7C2FF0028FBD12378023BB0
:109E4000012B0DD907F0B2FAB8B94FF080430122C7
:109E5000C3F80025BFF34F8F20BFFDE70A4CD4E7BE
:109E6000BFF34F8F0A490B4BCA6802F4E0621343F9
:109E7000CB60BFF34F8F00BFFDE7FFF771FFE4E753
:109E80004C39002049390020483900204039002051
:109E900000ED00E00400FA05F0B583B002AB002548
:109EA00003F8015D044618460F46FEF779FF236864
:109EB000A2681E685868904238BF451CAE4213D055
:109EC0005D6859688A420CD800225A60E26860686E
:109ED000531E072B46D8DFE803F0423E4531454587
:109EE000451901315960F1E7207C002840D15D68B7
:109EF00059688A4244D9013159602268A1681368BF
:109F00008B4234BF013300231360DFE7D7E900231E
:109F100000EBC500C0E90023226813685068834243
:109F200014D8C31A91689DF80700994238BF93600E
:109F3000FEF75CFF0024204603B0F0BD3B6840F80C
:109F400025302268136850688342EAD9A16801313C
:109F50000144CB1AE6E73B8820F81530DCE73B7874
:109F60004355D9E7394605FB020007F032FCD3E739
:109F70009DF80700FEF73AFF0424204603B0F0BD29
:109F80005860BAE770B582B002AB002403F8014D07
:109F9000044618460E461546FEF702FF2368196868
:109FA0005A6891424DD018682DB91A68A1688A4242
:109FB00038BF551C1D60E2686168531E072B33D8FB
:109FC000DFE803F0121C32273232320401EBC00109
:109FD000D1E900239DF80700C6E90023FEF706FF3C
:109FE0000024204602B070BD0B5C33709DF8070062
:109FF000FEF7FCFE0024204602B070BD31F81030A0
:10A0000033809DF80700FEF7F1FE0024204602B0E1
:10A0100070BD51F8203033609DF80700FEF7E6FE72
:10A020000024204602B070BD00FB0211304607F04C
:10A03000D0FB9DF80700FEF7D9FE0024204602B0B1
:10A0400070BD9DF80700FEF7D1FE0524204602B042
:10A0500070BD00BF036818685B68C01AB0FA80F072
:10A0600040097047826800239360826813618268A8
:10A0700053618268D360826853608268136070475E
:10A0800001600B6843604A68934204BF0023436049
:10A09000704700BF436843B1026891680B44436056
:10A0A0005268934204BF00234360704770B5446810
:10A0B000064620680D4618B908E02468206828B1D3
:10A0C000B368294698470028F7D1206828602560A2
:10A0D00070BD00BF4368186808B102681A60704715
:10A0E00043681868704700BF4068036873B18B42CB
:10A0F00003D107E0814204D0034618680028F9D153
:10A10000704718460B680360012070471846704777
:10A1100030B4184DA5F59472AB1ADB1003EBD37372
:10A120005B1002EBC30152F83330984228BF0C4653
:10A1300005D311E052F8333098420CD221468B1AE5
:10A14000DB1003EBD3735B108A4202EBC304F1D341
:10A15000094830BC70470D46984204D904F1080202
:10A16000AA42D9D3F4E76068034B002808BF184619
:10A17000EFE700BF903703005436030070B5161E9A
:10A1800007DD0C468D1914F8010BFEF7CFFDA54233
:10A19000F9D1304670BD00BF10B50C462046FEF721
:10A1A00097FD0528FAD0012010BD00BF10B44FF074
:10A1B00080414FF080520020C1F80C015E4BC1F885
:10A1C0001001C1F83805D2F80414C3F82015D2F8EC
:10A1D0000814C3F82415D2F80C14C3F82815D2F8C3
:10A1E0001014C3F82C15D2F81414C3F83015D2F893
:10A1F0001814C3F83415D2F81C14C3F84015D2F85B
:10A200002014C3F84415D2F82414C3F84815D2F822
:10A210002814C3F84C15D2F82C14C3F85015D2F8F2
:10A220003014C3F85415D2F83414C3F86015D2F8BA
:10A230003814C3F86415D2F83C04C3F86805D2F8A2
:10A2400040043E49C3F86C050968D2F84424C3F8B9
:10A250007025082924D04FF08043D3F80024D2077A
:10A2600044BF6FF00102C3F80024354AD2F88830A9
:10A2700043F47003C2F88830BFF34F8FBFF36F8F82
:10A280004FF01023D3F80022002A23DBD3F8043246
:10A29000002B1FDB2B4B2C4A1A605DF8044B7047D8
:10A2A0002A4B1B68002BD6D129482A4A2A4C046025
:10A2B0002A492B4BFB20C2F818050A681B6829485D
:10A2C00022F00F0203F00F0313434FF400720B60F0
:10A2D0000260C0E7244B0122C3F80425D3F8002410
:10A2E000002AFBD04FF0102312221F49C3F800228E
:10A2F000D1F80034002BFBD04FF0102212211A4B62
:10A30000C2F80412D3F80024002AFBD00022164918
:10A31000C3F80425D1F80034002BFBD0BFF34F8FD6
:10A320000749124BCA6802F4E0621343CB60BFF3E3
:10A330004F8F00BFFDE700BF00C00040300100109C
:10A3400000ED00E06C2A00200090D00334010010E2
:10A350008C56004000F0004048810300E40E0040AD
:10A36000580200104096024000E001400400FA0547
:10A37000074B1B5C1F2B8ABF064A4FF0A04203F01D
:10A380001F03D2F80405D840C04300F00100704715
:10A39000803B030000030050074B1B5C1F2B86BF54
:10A3A00003F01F0305494FF0A041012202FA03F315
:10A3B000C1F80C35704700BF803B0300000300501C
:10A3C000074B1B5C1F2B86BF03F01F0305494FF093
:10A3D000A041012202FA03F3C1F80835704700BF1B
:10A3E000803B0300000300504FF0A04310B44FF433
:10A3F00080404FF400544FF400414FF48032C3F8D2
:10A400000845C3F80805C3F80815C3F808255DF822
:10A41000044B70474FF0A04310B44FF480404FF40A
:10A4200000544FF400414FF48032C3F80C45C3F898
:10A430000C05C3F80C15C3F80C255DF8044B7047E8
:10A440000A4B195C1F298ABF09484FF0A04001F050
:10A450001F01D0F8043501228A4022EA030113408B
:10A46000C0F80815C0F80C35704700BF803B0300EA
:10A4700000030050074B1B5C1F2B8ABF064A4FF09E
:10A48000A04203F01F03D2F81005D840C04300F0EB
:10A49000010070477C3B0300000300500B2809D0EB
:10A4A0000C2809D0182809D019280CBF03204FF018
:10A4B000FF3070470020704701207047022070472E
:10A4C000014B185C704700BF7C3B0300C20730B4EF
:10A4D0000ED483070AD54FF0A0430C22C3F82C27D3
:10A4E000C3F83027C3F86027C3F8642730BC70472F
:10A4F0004FF0A0430322C3F834274FF40055C3F8AC
:10A5000038274FF48044C3F83C274FF40041C3F888
:10A5100040274FF48032C3F80855C3F80845C3F804
:10A520000815C3F80825D4E710B570B101280BD180
:10A530000D4C2369A0703BB1D3E9002301202261B7
:10A5400098472369002BF7D110BD074CA36801225F
:10A550006270002BF8D0D3E900230020A260984756
:10A56000A368002BF7D1EFE75039002070B910B580
:10A57000074CA368012262703BB1D3E9002300209D
:10A58000A2609847A368002BF7D110BD704700BFA9
:10A590005039002030B5012883B01CD015D30328D2
:10A5A00011D100F0CDF802A800231F4C00F8013DA6
:10A5B000FEF7F6FBE368013BE360E56865B39DF8F1
:10A5C0000700FEF713FC03B030BD184B0122C3F89F
:10A5D000802003B030BD02A80023134C00F8013DD9
:10A5E000FEF7DEFB237853B1E3689DF807000133E3
:10A5F0000122E360A270FEF7F9FB03B030BD0C4806
:10A600006360A3602361E36000F08CF806F0CEFE87
:10A6100030B101232370E7E700F0A4F8A570CEE77E
:10A6200000F08EF8F5E700BF5039002000E100E0AF
:10A6300029A5020030B585B0047845688DF8004042
:10A64000D0E90240064A074B039053F821300195A8
:10A650008DF8084052F821106846984705B030BD83
:10A66000643900206C39002030B585B00478456825
:10A670008DF80040D0E90240064A074B039053F89A
:10A68000213001958DF8084052F82110684698470E
:10A6900005B030BD643900206C3900202DE9F0434D
:10A6A000DFF8748006784B7F08F806300D460746C1
:10A6B00096460FCD89B06C460FC495E80F003D78E3
:10A6C000DFF85890DFF858C018F8055049F826E030
:10A6D00084E80F004CF82600049665B1BEF1000F27
:10A6E0000B4A694607F1040008BF002201F0BCF8DC
:10A6F00009B0BDE8F083BEF1000F064A694607F1D4
:10A700000C0008BF002200F0FBFD09B0BDE8F0839B
:10A7100035A6020069A60200404600206C390020E0
:10A7200064390020054A13792BB901211060537157
:10A730001846117170478520704700BF743900209A
:10A74000074B1A68D20704D4C021012283F80013F2
:10A750001A604FF080430122C3F81825704700BFEC
:10A7600000E100E0044B01221A604FF08042D2F871
:10A770001834DB03FBD470470C00004010B5154BB8
:10A780001A6882B07AB10021134A19601B685079A7
:10A7900000934FF080410123009CC1F8083310B9A9
:10A7A0001168537188470D4B1A6882B100221A60F4
:10A7B0001B6801934FF080420221074B0198C2F8B9
:10A7C00008131B68012002B0BDE81040184702B012
:10A7D00010BD00BF0001004074390020040100409A
:10A7E00030B5204C94F86A5083B0002D36D14FF02C
:10A7F000FF332946062204F16400C4E90033C4E9AA
:10A800000233C4E90433C4E90633C4E90833C4E9B4
:10A810000A33C4E90C33C4E90E33C4E91033C4E984
:10A820001233C4E91433C4E91633236606F0DCFF9F
:10A830000D4A0E4B0E491D60C02082F806034020D1
:10A8400010601B68019301984FF0004301222846D5
:10A8500084F86A20C1F8043303B030BD082003B087
:10A8600030BD00BF7C39002000E100E07C61004089
:10A8700000600040034B93F86A00003018BF0120CD
:10A88000704700BF7C390020F0B5744B1C1894F958
:10A890003050002D6ADA8E78C6F340069646002EB8
:10A8A0005ED11D6A013500F0C48009240C2553F8DF
:10A8B000247001375DD004F1010C53F82C7001377E
:10A8C00000F0C280A71CAF4248D253F827200132C3
:10A8D00000F0BC8004F1030CAC453FD253F82C705F
:10A8E000013700F0B18004F1040CAC4536D253F8C6
:10A8F0002C70013700F0A88004F1050CAC452DD276
:10A9000053F82C70013700F09F8004F1060CAC4521
:10A9100024D253F82C70013700F0968004F1070C14
:10A92000AC451BD253F82C70013700F08D8004F138
:10A93000080CAC4512D253F82C70013700F084801B
:10A9400004F1090CAC4509D253F82C7001377BD0C7
:10A950000A34AC4202D2DC6A013409D00420F0BDD2
:10A960001D68013574D001240825A0E70820F0BD3A
:10A970000B241F1865B243F824E087F83050002EEE
:10A980005ED08A7854071AD4D60741D41F284A7853
:10A9900087BF334E00F01F0404464FF0A04604F575
:10A9A000E074920046F824202E4EC40800F0070CF4
:10A9B000375D012202FA0CF23A4332558A780C785C
:10A9C00012F0020209D1083D2B44104693F8602092
:10A9D00042EA841483F86040F0BDAB0003F1804389
:10A9E00003F5C0430202D3F8101521F44F3121F4CE
:10A9F0004071C3F810152404D3F8101504F4403442
:10AA000002F47C5222430A43C3F810250020F0BD13
:10AA10001F2887BF124A00F01F0404464FF0A042CF
:10AA200002EB8402D2F8004724F00204C2F8004787
:10AA3000BAE7082684F83060C3F820E0354634468B
:10AA40001C4484F858009CE7644692E73C4690E733
:10AA500000251A6084F8305093E700BF7C3900204D
:10AA600000030050E039002070B43A4D2E1883B036
:10AA700096F93030072B20DD2B4493F858309B0992
:10AA8000032B45D0012B14BF4FF440314FF400315C
:10AA90001F284DD900F01F002F4B03EB8000D0F88A
:10AAA000002722F44032C0F80027D0F800370B43CB
:10AAB000C0F8003703B070BC7047DAB2072AF9D883
:10AAC000980000F1804000F5C04003F14002D0F84A
:10AAD0001045920092B244F0010402F18042C0F8A5
:10AAE000104502F5C04200200190019C1060002931
:10AAF000E0D096F9302055F82220002ADAD0012241
:10AB0000164902FA03F3C1F8043303B070BC70476E
:10AB10001F2810D9104BD3F8103500F01F00C34088
:10AB200013F0010F0CBF4FF400314FF44031B3E785
:10AB30004FF0A043B1E74FF0A0421346D2F81025E2
:10AB4000C24012F0010F14BF4FF440314FF40031F6
:10AB5000A3E700BF7C3900200003005000600040E4
:10AB60001F288ABF054B4FF0A04300F01F00D3F809
:10AB7000103523FA00F000F0010070470003005088
:10AB80002DE9F047002388B0CDE90233CE4A16689C
:10AB9000012E00F03B821E46CC4B1A68012A00F0C1
:10ABA0002782CB4B1A68012A00F01482C94B1A681D
:10ABB000012A00F00182C84B1A68012A00F0EE81D8
:10ABC000C64B1A68012A00F0DB81C54B1A68012ABE
:10ABD00000F0C881C34B1A68012A00F0B581C24B4E
:10ABE0001A68012A0FD100221A601B6801934FF0E6
:10ABF000A042019BD2F81025BC4B0292D3F810352D
:10AC0000039346F0004616F0FF0F1AD0B84F002409
:10AC10000125A30003F180432E4203F5C0434FEA10
:10AC200045050BD0D3F8100557F82420D3F810159C
:10AC3000C0F30520C1F3014102B190470134082C53
:10AC4000E7D1002E02DB08B0BDE8F087A84CA74F83
:10AC50004FF0FF33CDE9063394F960300DF1100861
:10AC600000225D1CC8F8042004924FF0010600F099
:10AC7000F4805FFA83FC2CF0C00008AB4FEAD009E7
:10AC800003EB090E0CF007031EF8082C06FA03F379
:10AC900012EA030521D022184FEA9C1192F93020C4
:10ACA00054F82220002A00F02981032900F028818D
:10ACB0001F2800F2F98005464FF0A04C0CEB850CE4
:10ACC0001EF8185CDCF800E71D40CEF3014E40F0A2
:10ACD000DF80BEF1030F00F0BF8194F96130581C92
:10ACE00032D0DBB223F0C00008AA4FEAD00E02EB4C
:10ACF0000E0C03F007011CF8082C06FA01F912EA01
:10AD0000090F21D02218990992F9302054F82220F5
:10AD1000002A00F0FB80032900F0FB801F2800F2CE
:10AD2000E98003464FF0A04E0EEB83031CF818ECAD
:10AD3000D3F800C71EEA090FCCF3014C40F0B880ED
:10AD4000BCF1030F00F0AE8194F96230591C30D091
:10AD5000DBB223F0C00008AA4FEAD00E02EB0E0CC3
:10AD600003F007011CF8082C06FA01F912EA090F92
:10AD70001FD02218990992F9302054F82220002A75
:10AD800000F0D880032900F0D8801F287CD8034623
:10AD90004FF0A04E0EEB83031CF818ECD3F800C75D
:10ADA0001EEA090FCCF3014C64D1BCF1030F00F093
:10ADB000658194F963305A1C34D0DBB223F0C000B3
:10ADC00008AA4FEAD00E02EB0E0C03F007021CF8A3
:10ADD000081C06FA02F2114224D004EB000999097A
:10ADE00099F9309054F82990B9F1000F00F098804B
:10ADF000032900F098801F288BBFBE464FF0A04E5D
:10AE000003F01F0303460EEB83031CF818ECD3F882
:10AE100000C71EEA020FCCF3014C20D1BCF1030F96
:10AE200000F00181002D3FF40EAF4FF0A0430299D6
:10AE3000D3F81035D7F81025994203D103999142E0
:10AE40003FF401AFDDE90401CDE9023294F960304D
:10AE50005D1CCDE906017FF40CAF00253DE7BCF198
:10AE6000020FDFD1032900F03481B9F1000F40F067
:10AE7000F180D7E7BCF1020F9BD1032900F02681B6
:10AE8000002A96D0904794E703F01F03BE4681E75F
:10AE9000BEF1020FE1D1032900F021810025002A33
:10AEA0003FF41BAF904718E70CF01F05BC4605E7C1
:10AEB000BCF1020F7FF448AF032900F00D81002A96
:10AEC0003FF442AF90473FE700610040046100401B
:10AED000086100400C6100401061004014610040B6
:10AEE000186100401C6100407C610040000300507C
:10AEF0007C39002003F01F03BE4615E70329ACD1BF
:10AF000018F809501D4308F80950D1E603297FF4C9
:10AF10001BAF18F80EA04AEA090A08F80EA0FDE6D1
:10AF200003297FF47FAF18F80EA04AEA020A08F856
:10AF30000EA060E703297FF43CAF18F80EA04AEAA0
:10AF4000090A08F80EA020E7664AD2F8042317067B
:10AF50007FF545AE00221A601B680093009B46F007
:10AF600080063CE65F4AD2F8042352067FF532AEF3
:10AF700000221A601B680093009B46F0400629E6F9
:10AF8000584AD2F8042391067FF51FAE00221A60BA
:10AF90001B680093009B46F0200616E6514AD2F843
:10AFA0000423D0067FF50CAE00221A601B680093C4
:10AFB000009B46F0100603E64A4AD2F80423140721
:10AFC0007FF5F9AD00221A601B680093009B46F0E4
:10AFD0000806F0E5434AD2F8042355077FF5E6ADAD
:10AFE00000221A601B680093009B46F00406DDE512
:10AFF0003C4AD2F8042397077FF5D3AD00221A60AC
:10B000001B680093009B46F00206CAE53549D1F85B
:10B01000041311F0010104D0136013680093009B26
:10B02000BAE50E46B8E503297FF41FAF4FF4003CA4
:10B03000D3F8002722F44032C3F80027D3F80027C2
:10B04000013542EA0C02EDB2C3F80027B9F1000F56
:10B050003FF4EBAEC847E5E603297FF420AF4FF499
:10B060000035DCF8003723F44033CCF80037DCF847
:10B0700000372B43CCF80037012510E703297FF474
:10B08000FFAE4FF4003ED3F800C72CF4403CC3F8A9
:10B0900000C7D3F800C701354EEA0C0CEDB2C3F877
:10B0A00000C7EDE603297FF40AAF4FF4003ED3F862
:10B0B00000C72CF4403CC3F800C7D3F800C70135E3
:10B0C0004EEA0C0CEDB2C3F800C7F8E64FF4403E70
:10B0D000D9E74FF4403CABE74FF4403EE7E74FF48D
:10B0E0004035BEE700600040014B1B68184700BFB9
:10B0F000E8390020104B984201D00020704730B54D
:10B1000083B002A8002300F8013D0D46FDF748FE7C
:10B110000A4B1C7934B19DF80700FDF767FE11203A
:10B1200003B030BD01229DF807001D601A71FDF7C4
:10B130005DFE2046F4E700BF00200040E839002013
:10B1400030B56D4AD2F8043399058BB068D5D2F882
:10B150002431002B64D00023C2F82431D2F82431EA
:10B1600001934FF40171654B0198C2F8081393F8ED
:10B17000291009B9012151605F4902228DF8182078
:10B18000D1F88024C1F880249869D96809920022F6
:10B19000CDE90710C3E90622D3E9001406A8A047A9
:10B1A000554AD2F81C31CBB1544B5869196A8842C0
:10B1B0006BD851490022C1F81C21D1F81C11029111
:10B1C0000299596951B1586999688DF81820089009
:10B1D0005A61079106A8D3E900129047464AD2F86F
:10B1E0004431DBB10021454BC2F84411D2F844018F
:10B1F00093F829100090009809B1012111609A6913
:10B2000062B10022586AD9689A610122CDE907101B
:10B210008DF8182006A8D3E9001290470BB030BD76
:10B22000354AD2F804335B07BAD5D2F80831002B7F
:10B23000B6D0324B996900293CD00021C2F80811E0
:10B24000D2F8081104910499D868596AD2F81825DF
:10B2500042545A6A996901325A625A6A8A429FD1A3
:10B26000DA691968002A2ED0D8685D6A1C699A616B
:10B27000079000220120DC60DA615A628DF8180024
:10B2800008955B6806A898478AE793F8281001F0AC
:10B29000FF0000298DD1C2F81C01D2F81C110391C6
:10B2A00003999C68186A196A205C01311962C2F816
:10B2B0001C0593E7C2F80811D2F80801059005981B
:10B2C000D2F81825C9E793F8292012B90A4A0120B3
:10B2D0005060094A4FF40170C2F80803586ADA68EE
:10B2E00008900024012007928DF818005A689C618C
:10B2F00006A8904754E700BF00200040F039002026
:10B300002DE9F041714F06792C2505FB067582B0B9
:10B3100095F82A30002B40F09A800D4604466C497F
:10B3200000689046FFF7E6FE002840F08C802B680E
:10B33000591C19D01F2B4FF001028ABF65494FF0ED
:10B34000A04103F01F0302FA03F3C1F808352B688C
:10B350001F2B86BF03F01F035E4A4FF0A04203F588
:10B36000E073032142F823106B685A1C0BD01F2B8B
:10B3700086BF03F01F03574A4FF0A04203F5E07366
:10B38000002142F823102368AA69C3F82425297DE7
:10B390006B7D22680B43C2F86C35D5E90012236837
:10B3A000C3F81425C3F80C152B7D012B53D02C2387
:10B3B00003FB06F3FA18C2F804802A69FA50B8F1C0
:10B3C000000F2DD022682B7F434D0021C2F81C11A5
:10B3D000D2F81C2100922268DDF800C0C2F84411A6
:10B3E000D2F84411226801910199C2F804532168EE
:10B3F000090B4AB25B01002ADBB261DB02F1604259
:10B4000002F5614282F800332368344D1B0B5AB2B7
:10B41000520903F01F03012101FA03F345F822301A
:10B420002C23246803FB0673002204250121C4F8A1
:10B43000005583F82A10C3E9062283F829205A61AF
:10B4400002B0BDE8F081112002B0BDE8F081082013
:10B4500002B0BDE8F081AB68591C0BD01F2B86BF32
:10B4600003F01F031B4A4FF0A04203F5E0730021D5
:10B4700042F82310EB685A1C1BD01F2B4FF001021F
:10B480008ABF14494FF0A04103F01F0302FA03F3EF
:10B49000C1F80835EB681F2B88BF03F01F0303F5C5
:10B4A000E0738CBF0B4A4FF0A042032142F82310F7
:10B4B000EB682268A968C2F80835C2F8101576E76B
:10B4C000074A01F00F010A4413769DE7F039002086
:10B4D00041B10200000300508000020000E100E0E2
:10B4E000FCEC00E0F0B5314E05792C2303FB05633D
:10B4F00085B05C69002C53D15A6199601C6283F855
:10B5000028400268C2F81C41D2F81C11026802915E
:10B510000121029F91600268D3F808C0C2F81C4163
:10B52000D2F81C1101910199D3F820E0196A5F68E3
:10B530001CF80EE001311962C2F81CE517B1204673
:10B5400005B0F0BD5C691A6A0168944203D819E03D
:10B5500093F828203ABBD1F81C21002AF8D0C1F872
:10B560001C71D1F81C210392039AD3F820E01A6AC7
:10B570001CF80EE001321A62C1F81CE51A6A944206
:10B58000E9D80168D1F81C31002BFBD00123CB6036
:10B5900000202C2303FB056500236B6105B0F0BD83
:10B5A000112005B0F0BD0F20F3E700BFF0390020F7
:10B5B0000379044A2C2101FB03235869003018BF8A
:10B5C00001207047F0390020F0B4514D04792C234C
:10B5D00003FB045386B05F6827B103684FF401761C
:10B5E000C3F808632C2303FB04539E696EB1DE6924
:10B5F0000EB3002F00F0848003684FF40172112015
:10B60000C3F8042306B0F0BC704793F829709A6120
:10B61000D9605E62DE61002F60D02C2202FB0452F2
:10B620000168536853B14FF40173C1F8043300202B
:10B6300006B0F0BC70471961DA61EEE7C1F8443139
:10B64000D1F844310393039B0368D3F82461D3F802
:10B650000871D3F8441157B9002936D1002EF4D01F
:10B660002C2303FB04540023A3610320E0E7002EF6
:10B67000F6D161BB966996B1C3F80811D3F80811E9
:10B6800004910499D668516AD3F818357354536AF3
:10B69000916901335362536A9942D5D808E0C3F8DF
:10B6A0000861D3F8081105910599D3F81835536A44
:10B6B0002C2303FB0454002294F82930A2610BB31D
:10B6C0000368012110461960B2E7002EC8D12C236F
:10B6D00003FB04540023A3610F20A9E70368C3F808
:10B6E0002471D3F8242103680192019AC3F80871E8
:10B6F000D3F8082103680292012202991A608CE7AC
:10B70000112095E7026801211846516090E700BFBB
:10B71000F0390020F0B5524BD3F824218BB0002A29
:10B720006ED00021C3F82411D3F824210492022200
:10B730008DF81820049AD3F880044A4AC3F880048C
:10B740000990D3F83C05D3680890C2E90611079325
:10B750001168536806A89847414BD3F84421BAB101
:10B760000021404AC3F84411D3F84441906903943E
:10B77000039C68B1D3F83C35D06808930123C2E933
:10B78000061107908DF8183006A8D2E900139847E3
:10B79000334BD3F82021BAB10021C3F82011D3F8DC
:10B7A0002021029201202F4A029CD860506958B192
:10B7B000D3F84C05936808908DF8181051610793E1
:10B7C00006A8D2E900139847254BD3F85821AAB10F
:10B7D0000021C3F85811D3F85801224A019001986A
:10B7E000506958B1D3F84C05936808908DF818103B
:10B7F0005161079306A8D2E9001398470BB0F0BD3A
:10B80000D3F810110029A7D0C3F81021D3F81011D4
:10B810001448059105998169D3F83C458C429BD128
:10B82000C569C768D0E900168DB1D3F800C285613B
:10B830002CF02005C261C3F800520369C3600122E5
:10B84000CDE907748DF8182006A8B04784E70123D6
:10B850008561CDE907748DF8183006A8B0477BE7FD
:10B86000002000401C3A00202DE9F04307797E4E6D
:10B870004FEAC70808EB070306EB830387B093F88A
:10B880002030002B40F0B0800D4604467749006818
:10B890009146FFF72FFC002840F0A2802B68591C2E
:10B8A00019D01F2B4FF001028ABF71494FF0A04100
:10B8B00003F01F0302FA03F3C1F808352B681F2BAE
:10B8C00086BF03F01F036A4A4FF0A04203F5E073FE
:10B8D000032142F823106B685A1C0BD01F2B86BF24
:10B8E00003F01F03624A4FF0A04203F5E07300210A
:10B8F00042F823102368AA69C3F82425297D6A7DAC
:10B9000023680A43C3F86C25D5E900312268C2F8E0
:10B910000C35C2F814152B7D012B69D008EB0702FA
:10B920009200B318C3F804902B69B350B9F1000F1B
:10B9300045D021682A7F4F4D0023C1F81031D1F83E
:10B94000101101912168DDF804C0C1F82031D1F84F
:10B95000201102912168DDF808C0C1F82431D1F826
:10B96000241103912168DDF80CC0C1F84431D1F8ED
:10B97000441104912168DDF810C0C1F85831D1F8A4
:10B980005811236805910599C3F804532168090BE0
:10B9900053014AB2002ADBB25FDB02F1604202F5DA
:10B9A000614282F800332368334D1B0B5AB25209AF
:10B9B00003F01F03012101FA03F345F82230474445
:10B9C000226806EB8706002301240821C2F800152F
:10B9D00086F82040C6E90633736107B0BDE8F083FE
:10B9E000112007B0BDE8F083082007B0BDE8F08360
:10B9F000AB68591C0BD01F2B86BF03F01F031C4ADA
:10BA00004FF0A04203F5E073002142F82310EB68E9
:10BA10005A1C1BD01F2B4FF001028ABF14494FF054
:10BA2000A04103F01F0302FA03F3C1F80835EB68E5
:10BA30001F2B88BF03F01F0303F5E0738CBF0C4A74
:10BA40004FF0A042032142F82310EB682268A96856
:10BA5000C2F80835C2F8101560E7084A01F00F0176
:10BA60000A4413769FE700BF1C3A002015B7020076
:10BA7000000300501003420000E100E0FCEC00E095
:10BA800001F06043B3F1005F2CD1F0B40579264E8C
:10BA9000EF007C1906EB840482B0636923BB62610A
:10BAA000A1600268C2F82031D2F820C10268CDF846
:10BAB00004C0DDF804C0C2F85831D2F85821009211
:10BAC0000268DDF800C0D4F814C0C2F84415C2F80A
:10BAD00048C502680121916062684AB1184602B007
:10BAE000F0BC704710207047112002B0F0BC7047C6
:10BAF000036800E0B2B9D3F82011D3F85821002927
:10BB0000F8D07AB90122DA600268D2F85831002BF5
:10BB1000FBD000203D4406EB85060023736102B094
:10BB2000F0BC70470F20F5E71C3A00200379054A66
:10BB300003EBC30302EB83035869003018BF0120F5
:10BB4000704700BF1C3A002001F06043B3F1005F72
:10BB50007ED1F0B40579464CEB005E1904EB860605
:10BB600082B0766826B107684FF4047CC7F808C332
:10BB70002B4404EB83039D69002D42D19A61DD6162
:10BB8000D9600368C3F81051D3F8106103680196B7
:10BB9000019EC3F84451D3F8445103680095009DB9
:10BBA000C3F83415C3F83825036801221A600579F3
:10BBB0000368EE00721904EB820252685AB14FF426
:10BBC0000472C3F80423002002B0F0BC70470029BF
:10BBD00042D1002846D1D3F81021D3F84411D3F82C
:10BBE0002401002AF3D0354400284FF0000304EB71
:10BBF000850414BF032018469942A36118BF0F2083
:10BC0000E2E7DD693DB12EB303684FF40472C3F877
:10BC100004231120D8E71961DA610368C3F81051D1
:10BC2000D3F8106103680196019EC3F84451D3F81C
:10BC3000445103680095009DC3F83415C3F83825B6
:10BC40000268D2F8003243F02003C2F80032AEE7B7
:10BC5000102070471120B7E7354404EB85040F200E
:10BC6000A261B1E7354404EB85040320A161ABE791
:10BC70001C3A0020F0B40779374D7E00F419A40077
:10BC800005EB040C82B09CF80830002B60D12A51DF
:10BC90004A68CCF80420427972B19C469A0002F5B9
:10BCA000A072046844F802C00133A4584279019498
:10BCB000DBB29A42019CF1D80468CB78240B62B2C3
:10BCC0005B01002ADBB23DDB02F1604202F561421A
:10BCD00082F800330368DFF888C01B0B5CB20122D6
:10BCE000640903F01F0302FA03F34CF82430D0F880
:10BCF00000C04B78DCF8044503F0030324F0030490
:10BD00002343CCF80435D0F800C08B78DCF8084524
:10BD100003F0030324F003042343CCF80835006840
:10BD20000B78D0F810153E4421F00F0103F00F03FB
:10BD300005EB86050B43C0F8103500202A7202B0CF
:10BD4000F0BC7047054A04F00F0422441376C1E7A3
:10BD5000082002B0F0BC7047403A0020FCEC00E044
:10BD600000E100E00368054A01211960037903EB53
:10BD7000430302EB830302221A727047403A002009
:10BD80000368054A01211961037903EB430302EBC0
:10BD900083031972704700BF403A0020F0B407686F
:10BDA00040F20115D7F800428D4024EA0504C7F897
:10BDB0000042056882B0D5F800429DF81860234320
:10BDC0004FF48034C5F800328C4056B90368C3F88C
:10BDD0000843036801F5A87143F8212002B0F0BCC4
:10BDE00070478B0003F5A07305680026EE50ED58F0
:10BDF00003680195019DC3F80443EAE72DE9F0418A
:10BE0000114C124FDFF8488082B000254FF4803685
:10BE1000236804F5C04006FA05F20021013580B21E
:10BE200053B1D7F804331A4206D021602368019336
:10BE3000D8E90031019A9847042D04F10404E7D1B0
:10BE400002B0BDE8F08100BF40A1004000A000406A
:10BE5000403A00200220FEF7F3BA00BF2DE9F04778
:10BE60000D460646FEF71AFB03281ED8012D044690
:10BE70001DD00ED3022D18D11B4B00EB40041C44E7
:10BE8000657895B1194B1B687BB12846BDE8F04732
:10BE900018471748FCF7F2FD134B164A04EB440110
:10BEA0000B44125D9D78AA42EBD0BDE8F0870E4F9F
:10BEB0004FEA400808EB0003FA18FD5C53782BB9F1
:10BEC000A04447440B4BBA781A55DAE7DFF82890BC
:10BED00007484A464FF48041FCF780FD0028EFD127
:10BEE00089F80060ECE700BFB03A0020C43A0020B7
:10BEF000703A0020CC3A00204C3A002010B500786F
:10BF0000FEF7CCFA03280BD8064B00EB4000184490
:10BF1000407828B1044B1B6813B1BDE810401847A6
:10BF200010BD00BFB03A0020C43A0020B44B1B68DB
:10BF3000DB0700D4704770B5B24DB34E2B78347820
:10BF40006BB1B24B1B7800202870002B4BD0FEF752
:10BF500037FA0120FEF734FA0320FEF731FA172CE6
:10BF600040D8DFE814F0B600F400F400DC0008016B
:10BF7000CA001301EE00500043005000430061006E
:10BF800018001800180018001800660077008B00D1
:10BF90009F005D005D009E48FCF770FDD4F1110428
:10BFA000054600F00081002840F0FD80012C13D0F0
:10BFB000C82303FB04F44FF47A704FF400430021CC
:10BFC000C3FB04014FF4FA62002307F0B1F82A46DC
:10BFD00001468F48FCF702FD0220FEF7DDF98B4B8E
:10BFE00001221A7070BDFEF7FFF9B8E70123184669
:10BFF0002B70FEF725FA00224FF400518548BDE86A
:10C000007040FCF7EBBC012318462B70FEF718FAC2
:10C01000002240F266617F48BDE87040FCF7DEBC5C
:10C02000FEF7F8F9347070BDFEF7F4F90C233370A5
:10C0300070BD764B1B78002B00F0BF800020FEF710
:10C04000BFF90120FEF7BCF90320FEF7B9F912236E
:10C05000337070BD6D4B1B78002B00F0B180002059
:10C06000FEF7AEF90120FEF7ABF90320FEF7A8F9C1
:10C070000020FEF791F91323337070BD634B1B78DA
:10C08000002B00F0AD800020FEF79AF90120FEF7AA
:10C0900097F90320FEF794F90120FEF77DF91423A8
:10C0A000337070BD594B1B78002B00F0838000204B
:10C0B000FEF786F90120FEF783F90320FEF780F9E9
:10C0C0000020FEF769F90120FEF766F915233370A9
:10C0D00070BD4E4B1B78002B00F08A800020FEF7CD
:10C0E0006FF90120FEF76CF90320FEF769F9494862
:10C0F000FCF7C4FC0023337070BD0020FEF738F954
:10C10000002860D00020FEF75BF905233370002281
:10C1100040F6CD413F48BDE87040FCF75FBC0020D1
:10C12000FEF726F900285ED00020FEF749F943F219
:10C1300033310323337000223648BDE87040FCF7EA
:10C140004DBC0020FEF728F90723337070BD002096
:10C15000FEF70EF9D0B30020FEF732F9022C47F2B9
:10C16000333118BF4FF48031347000222948BDE8C4
:10C170007040FCF733BC0020FEF7FAF8D8B300207B
:10C18000FEF71EF94FF480310423D3E70020FEF7B9
:10C1900057F906233370002240F266611D48BDE85E
:10C1A0007040FCF71BBC0220FEF70AF9174B002277
:10C1B0001A7070BDFEF718F982E7FEF715F946E729
:10C1C000FEF712F954E7FEF7E7F89EE7FEF7E4F80A
:10C1D00041F69A1140F6CD43022C08BF1946C3E739
:10C1E000FEF702F958E7FEF7D7F840F6CD41A0E791
:10C1F000FEF7FAF87BE7FEF7CFF841F69A11C3E7AE
:10C20000BC3A0020C03A0020C83A00204D3A002035
:10C21000503A0020903A0020032801D900207047AE
:10C22000FEF728B938B5C54B1C6814F0010401D1DC
:10C23000204638BDC24C2378054663B1C14B1B78FC
:10C240000020207023B3FEF7BBF80120FEF7B8F8FA
:10C250000320FEF7B5F8172D00F26D81DFE815F029
:10C26000C300EC00EC001001D900230102013601EB
:10C2700028001B0028001B006A007100710071007B
:10C28000710071009A00AD0035004B00640064003D
:10C29000FEF7AAF8DFE7012318462370FEF7D0F86F
:10C2A00000224FF40051A848BDE83840FCF796BB87
:10C2B000012318462370FEF7C3F8002240F266619E
:10C2C000A148BDE83840FCF789BB9E4B1B78002B8A
:10C2D00000F016810020FEF773F80120FEF770F8D9
:10C2E0000320FEF76DF80120FEF756F8974B142255
:10C2F0001A7000249CE7934B1B78002B00F00381FD
:10C300000020FEF75DF80120FEF75AF80320FEF743
:10C3100057F80020FEF740F80120FEF73DF88B4B60
:10C3200015221A70002483E7FEF774F8874B002467
:10C330001D707DE7FEF76EF8844B0C221A70002406
:10C3400076E78348FCF79AFB0446D5F1110000F02C
:10C35000C580002C40F0C280012814D0C82505FB00
:10C3600000F54FF400434FF47A700021C3FB050140
:10C370004FF4FA62002306F0DBFE224601467448C1
:10C38000FCF72CFB04460220FEF706F86D4B012259
:10C390001A704DE76B4B1B78002B00F0AE8000202D
:10C3A000FEF70EF80120FEF70BF80320FEF708F861
:10C3B000664B12221A7000243AE7624B1B78002B5E
:10C3C00000F093800020FDF7FBFF0120FDF7F8FF50
:10C3D0000320FDF7F5FF0020FDF7DEFF5B4B132286
:10C3E0001A70002424E7574B1B78002B00F08E8036
:10C3F0000020FDF7E5FF0120FDF7E2FF0320FDF738
:10C40000DFFF5148FCF73AFB504B002204461A70FC
:10C410000EE70020FDF7ACFF002869D00020FDF7F3
:10C42000CFFF4FF48031494B474804241C70002251
:10C43000BDE83840FCF7D2BA0020FDF799FF00288C
:10C440006CD00020FDF7BCFF022D47F2333118BF3E
:10C450004FF480313D4B3C481D700022BDE8384010
:10C46000FCF7BCBA0020FDF7EBFF384B364806243A
:10C470001C70002240F26661BDE83840FCF7AEBA9D
:10C480000020FDF775FF002843D00020FDF798FF3E
:10C4900043F233312D4B2C4803241C700022BDE89D
:10C4A0003840FCF79BBA0020FDF762FF00283FD020
:10C4B0000020FDF785FF254B234805241C70002232
:10C4C00040F6CD41BDE83840FCF788BA0020FDF7C2
:10C4D00063FF1E4B07221A700024A9E60220FDF715
:10C4E0006FFF184B00221A70A2E6FDF77DFF72E77E
:10C4F000FDF752FF41F69A1195E7FDF775FF57E7F3
:10C50000FDF772FFEFE6FDF76FFF02E7FDF76CFF47
:10C5100077E7FDF741FF40F6CD41BBE7FDF73CFF74
:10C5200041F69A1140F6CD43022D08BF194691E716
:10C53000FDF732FFBFE700247AE600BFBC3A0020D7
:10C54000C03A00204D3A0020903A0020C83A00201E
:10C55000503A002038B5244B244A196083071060F4
:10C5600000F0010503D4CDB92C46204638BD204B40
:10C5700020480E240F2210211C701124DA709971AA
:10C580005C7240F233320421FBF74EFF0446B8B12F
:10C5900015B10120FDF79AFF204638BD0120FDF7B7
:10C5A00095FF154A15480021FCF70AFA04460028B1
:10C5B000F2D1134A13480121BDE83840FCF700BA14
:10C5C000FBF78EFF04460028E2D101460E4A0F48D1
:10C5D000FCF7F6F90446002DDED00120FDF776FFCA
:10C5E000002CD9D1DDE700BFC43A0020BC3A0020BE
:10C5F000B03A0020B83B03002DBF0200E03B03002F
:10C6000055BE0200D83B0300FDBE0200DC3B030028
:10C61000032811D8012A0BD0012919D00ED30229E1
:10C620000AD10E4B00EB4000034400205A707047C3
:10C6300001290AD00022EFE707207047074B00EBE3
:10C640004000034400209A70704700F10E02D2B2FD
:10C6500000EB400301490020CA547047B03A002063
:10C66000032819D808B5FDF72BFF1F2886BF0B4BF1
:10C6700000F01F004FF0A04303EB80030020D3F82D
:10C68000002722F44032C3F80027D3F8002742F4F1
:10C690004032C3F8002708BD062070470003005051
:10C6A00010B50388102B07D0112B04D1254B186827
:10C6B0000138186030B110BD224C216881B10131C0
:10C6C000216010BD01220221FFF7A2FF38B3072825
:10C6D00025D01D4B1B68002BEDD0BDE8104018473E
:10C6E00001220846FFF794FF38B1072805D0164B02
:10C6F0001B6803B198472168E1E707220221012066
:10C70000FFF786FF08B10728F1D10422022100209B
:10C71000FFF77EFF0028EED00728E8D1EBE70722DD
:10C7200002210120FFF774FF08B10728D1D10021B1
:10C7300008460A22FFF76CFF0028BCD00728C8D1A2
:10C7400010BD00BFD43A0020D03A002008B5002028
:10C75000FFF786FF10B1062800D008BD0120FFF7C3
:10C760007FFF0028F9D0062808BF002008BD00BFC1
:10C77000184B10B5186031B101200C46FFF74CFD85
:10C78000F8B102232370144B186808B1002010BDC3
:10C7900001220221FFF73CFF08B10728F7D1072249
:10C7A00002210120FFF734FF08B10728EFD1002153
:10C7B00008460A22FFF72CFF0028E7D00728E5D01B
:10C7C00010BDFFF729FD08B92070DCE70B232370AB
:10C7D000D9E700BFD03A0020D43A00203CDF7047B0
:10C7E0003DDF70476CDF70476DDF704775DF704766
:10C7F00076DF704777DF70477FDF704788DF7047ED
:10C800008FDF7047A4DF70470F4B10B5012204463D
:10C810000E481A7003F0B0FE98B9224602210B4868
:10C8200003F012FE50B900220221084803F0C0FEB6
:10C83000044608B1FBF76AFE204610BDFBF766FE12
:10C84000F1E7FBF763FEE8E7E93C0020BC3E00208F
:10C8500070B5134B134C8A89E41AE40824040E467D
:10C8600044F0030410492046FBF774F8B5682978B2
:10C87000602903D00D4804F0BFFFB568AA78012AEB
:10C8800009D020460A49FBF765F8A9780948BDE8B0
:10C89000704004F0B1BF0848BDE8704004F0ACBF80
:10C8A00094540300C4540300B4460300C04603007C
:10C8B000D0460300E44603008043030070B5154BE7
:10C8C000154C8A89E41AE40824040E4644F0030453
:10C8D00012492046FBF73EF8B5682978602903D055
:10C8E0000F4804F089FFB568AA78012A09D02046CC
:10C8F0000C49FBF72FF8A9780B48BDE8704004F00D
:10C900007BBFD5F80320D5F807100848BDE8704074
:10C9100004F072BF94540300C4540300B4460300EF
:10C92000C0460300D0460300E4460300044603006B
:10C9300070B58C680D462178602903D0104804F04A
:10C940005BFFAC68A278012A0FD00E4B0E480F494E
:10C95000C01AC008000440F00300FAF7FBFFA178FA
:10C960000B48BDE8704004F047BFD4F80730D4F856
:10C970000B20D4F803100748BDE8704004F03CBF1A
:10C98000C046030094540300C4540300D04603007F
:10C99000E4460300F0460300084A094B094910B574
:10C9A0009B1ADB081B04044643F00300FAF724FE3D
:10C9B0002046BDE81040FBF7A9BD00BF945403001A
:10C9C000C4540300E4480300084A094B094910B560
:10C9D0009B1ADB081B04044643F00300FAF70CFE25
:10C9E0002046BDE81040FBF791BD00BF9454030002
:10C9F000C45403007C49030070B51B4B1B4C8A894F
:10CA0000E41AE40824040D4644F003041849C0B0B5
:10CA100006462046FAF79EFFAB681978602902D0D7
:10CA20005B78032B1AD120461249FAF7E5FDB1884D
:10CA30007088FFF7E7FE68464FF48072002104F02B
:10CA4000D3FEAA89A968023A6846023104F0C1FE01
:10CA50006946094804F0D0FE40B070BD074804F0B4
:10CA6000CBFE40B070BD00BF94540300C45403001B
:10CA7000B446030080460300A4460300C0460300FA
:10CA800010B501460446044804F01CF8214603484A
:10CA9000BDE8104004F07CB9903E0020EC3C002042
:10CAA0008B681A78202A00D070475A78012AFBD167
:10CAB0009B78012BF8D1F0B5054685B08188408878
:10CAC0001D4C1E4EFFF79EFE1D481E49241A91F86C
:10CAD00004C00F684B780A78CDF808C0E408240435
