:02000002F0000C
:1010000000000420B5120F00DD120F00DF120F00E8
:10101000E1120F00E3120F00E5120F0000000000C4
:101020000000000000000000000000004D3F0F0025
:10103000E9120F0000000000EB120F00ED120F008C
:10104000EF120F00EF120F00EF120F00EF120F0060
:10105000EF120F00EF120F00EF120F00EF120F0050
:10106000EF120F00EF120F00EF120F00EF120F0040
:10107000EF120F00EF120F00EF120F00EF120F0030
:101080008D4D0F00EF120F00EF120F00EF120F0047
:10109000EF120F00EF120F00E1360F00EF120F00FA
:1010A000EF120F00EF120F00EF120F00EF120F0000
:1010B000EF120F00EF120F00000000000000000010
:1010C000EF120F00EF120F00EF120F00EF120F00E0
:1010D000F5460F00EF120F00EF120F00EF120F0096
:1010E000EF120F00EF120F00B5950F000000000087
:1010F00000000000EF120F0000000000EF120F00D0
:1011000000000000000000000000000000000000DF
:1011100000000000000000000000000000000000CF
:1011200000000000000000000000000000000000BF
:1011300000000000000000000000000000000000AF
:10114000000000000000000000000000000000009F
:10115000000000000000000000000000000000008F
:10116000000000000000000000000000000000007F
:10117000000000000000000000000000000000006F
:10118000000000000000000000000000000000005F
:10119000000000000000000000000000000000004F
:1011A000000000000000000000000000000000003F
:1011B000000000000000000000000000000000002F
:1011C000000000000000000000000000000000001F
:1011D000000000000000000000000000000000000F
:1011E00000000000000000000000000000000000FF
:1011F00000000000000000000000000000000000EF
:1012000010B5054C237833B9044B13B10448AFF340
:1012100000800123237010BD945B002000000000BB
:10122000F0C90F0008B5034B1BB103490348AFF3E6
:10123000008008BD00000000985B0020F0C90F008E
:10124000154B002B08BF134B9D46A3F5803A002198
:101250008B460F461348144A121A08F02FFA0F4B08
:10126000002B00D098470E4B002B00D09847002051
:10127000002104000D000D48002802D00C48AFF3F7
:10128000008008F0BDF92000290002F0A9FD08F057
:10129000A3F900BF000008000000042000000000C7
:1012A00000000000945B0020C8B300200000000094
:1012B000000000000649074A074B9B1A03DD043B68
:1012C000C858D050FBDC01F087FEFFF7B9FF0000E3
:1012D000F0CA0F0068590020945B0020FEE7FEE78B
:1012E000FEE7FEE7FEE7FEE7FEE7FEE7FEE7FEE7D6
:1012F0007047000007B5044B0093044A402300F0F8
:1013000032F803B05DF804FB11130F00B15B00204D
:101310002DE9F84389461446B2B10F4B0F4E032511
:10132000002743F00108224609EB0701002002F0E4
:101330009BFE0744241A48B933782BB14FF47A4006
:10134000C047013D02D13570BDE8F88301233370F9
:10135000002CE8D1F8E700BF30970F00B05B002009
:10136000704702F0B5BEF0B595B01C46164608466B
:101370000D4601F078FD1A9B0D93CDE90864002419
:101380002346082205A928460A948DF82C400C947F
:1013900001F092FD079B0293BDF81830ADF80C30B8
:1013A000BDF81A30ADF80E309DF814308DF81140AC
:1013B00003F00302012A1DD1BDF81440059EC3F3BA
:1013C000C203C4F383148DF81030A20008230EA9C1
:1013D000284601F071FDC6F3952608AB009322461E
:1013E00002AB0EA9304600F02DFC284601F03FFD6F
:1013F00015B0F0BD022AF8D1BDF81640C3F3C20300
:10140000A4098DF810300827082C264628BF082686
:101410003B4632460EA9284601F04EFDA41B08AB00
:1014200002AA31460EA8374400F070FC002CEBD124
:10143000DBE7000008B5FFF794FF0421064800F041
:1014400065FB002803DA0549412000F0F3FD044B59
:1014500001225A7108BD00BFA8CA0F0044970F00AF
:1014600068590020037813F0040216D003F0030338
:10147000012B03D0022B09D0012070470A68008895
:101480000232C0F3831002440A60F5E70B68428819
:10149000023303EB92130B60EEE710467047000037
:1014A0002DE9F04F89B00646871C08A80023484C58
:1014B00000F8113D0D46009200F050FD23682B60AE
:1014C000D4E90123DFF810811344226801339B1A09
:1014D000A8F1040BA8F10809BB421AD3009A002313
:1014E000002A6DD0012262F3010343F0040366F386
:1014F00089132168A2689DF80F000A4003320F4447
:1015000044F82230276000F059FD012009B0BDE801
:10151000F08F0121404600F07AFE584600F090FE20
:101520000DF1200A484600F08BFE60684AF8100D65
:10153000A5682840033004EB80005146FFF792FF76
:1015400002460498002AF4D105EA000304EB830361
:10155000811CDB6805930130054004EB850503F031
:101560000303012B0491ED6823D0022B08D0194905
:1015700001924FF4BF7000F05DFD019A154607E03F
:10158000BDF816309B0903332D0C01EB9303049334
:10159000484600F058FE08B1049B63602946404667
:1015A00000F035FED4E901231344226801339B1A6D
:1015B00092E7BDF81430C3F383132D0C0B44E6E718
:1015C000022262F3010343F0040366F39F5390E7A2
:1015D000C45C00209B970F00E06C00200D4B0E4870
:1015E00040F2FF3241F2180110B59A6000225A50C1
:1015F00041F21401C3E900225A5003F581531A70D5
:1016000001F0EAFB044610B9044801F06BFC2046E7
:1016100010BD00BFC45C002080CA0F00DC970F0023
:1016200030B50A4C71B10A4A0A49121BD20800238C
:101630009A4201D1002030BD31F82350854202D0BA
:101640000133F5E7034654F83300F4E710CA0F00FE
:1016500080CA0F00805B0020094B013903EBC000FA
:10166000032909D8DFE801F00A02040604207047C4
:10167000007970474079704700207047022070471A
:1016800010CA0F00034BD3E90030C31A5842584127
:10169000704700BFC45C00202DE9F04387B0FFF71E
:1016A000F1FF0646002840F00681844D41F2180300
:1016B000E850BFF34F8F6868AC68DFF8188206AF58
:1016C00047F8100D2040033005EB80003946FFF746
:1016D000C9FE029B18B1D8F80020002A61D004EAA4
:1016E0000302991C013305EB8202234005EB8303BF
:1016F000D268DB68049302F00303022B0392029189
:1017000067D1BDF80E306E484FEA9318B8F1500F0C
:10171000C14628BF4FF0500969F38F1309F1080142
:10172000ADF80E3001F070FB0746002800F0AD80E8
:1017300001F099FB03A900230822384601F0A6FB1B
:10174000029924EA01060136B600B1453AD95FFA9A
:1017500089F9A6B3F6B2A9EB0609214003315FFA75
:1017600089F4B146574E05EB810108234A463846B5
:1017700001F08CFB36B109F10803224631463846A8
:1017800001F084FB029B08F1030803EB980302932A
:1017900041F21803EB58002B4FD141F21003EC58E3
:1017A0005EE02A689A4204D86A60304607B0BDE815
:1017B000F08304EA0300033005EB800086E741492B
:1017C0003446D2E72140033108234A4605EB810124
:1017D000D5E7012B59D1BDF80C303948C3F383113B
:1017E000062928BF062161F3891302318900ADF86B
:1017F0000C3001F009FB0746002846D001F033FB0E
:101800000023082203A9384601F040FB0026BDF85A
:101810000C20C2F38312B31C96424FEA8303B7D263
:1018200002994A1C21400331029205EB81010422F6
:10183000384601F02BFB0136E9E7384601F017FB8B
:10184000FFF720FF80F00100C6B2AEE7E3685B79E6
:1018500023B1236839461B6820469847E3681C6813
:10186000002CF3D1384601F002FB06A800F8114D18
:1018700000F074FB41F21803EB580BB9029B6B604C
:101880009DF8070000F09AFBDAE741F21003EC58EC
:1018900054B90D4B0D480E49C01AC008000440F061
:1018A000020000F087F8CBE7236820469B68984742
:1018B000E3681C68ECE7002677E700BFC45C002003
:1018C00080CA0F00D05C002010CA0F0010CA0F00A1
:1018D000E8970F00DC6C00202DE9F74F2F4D804674
:1018E0000F46914601A9012218469B46D5F808A04B
:1018F000FFF7D6FD00283DD0019C0026A11C5E45C7
:1019000006EB010240D10021254800F04AFC80F39B
:10191000100B244B244A4FEA18499B1AB9EBD30FFA
:1019200004D3224940F2A31000F084FB631C03EAB5
:101930000A0305EB830349EA0B42DA6004EA0A036F
:101940000333012115F8232068F3C50205F823208D
:1019500035F8232066F3891225F8232055F8232033
:1019600067F39F2245F8232061F301026FF382029F
:1019700005F823200E4B1B781BB1FFF78DFE0028C6
:10198000FBD103B0BDE8F08F0AEA020205EB820248
:1019900059F82630D3600136B1E700BFC45C00209F
:1019A000E06C002080CA0F0010CA0F009B970F0048
:1019B000E46C002000231A46FFF78EBF13B502AC7B
:1019C000012344F8042D2246FFF786FF02B010BD24
:1019D00007B5CDE9002302236A46FFF77DFF03B078
:1019E0005DF804FB1FB5CDE90123069B039301AA13
:1019F0000323FFF771FF05B05DF804FB1FB5CDE9C8
:101A00000023069B0293079B03936A460423FFF778
:101A100063FF05B05DF804FB7FB5CDE90123089BAA
:101A20000393099B04930A9B059301AA0523FFF7DF
:101A300053FF07B05DF804FB2DE9F3478046304CB7
:101A4000D01C8A46174601A900228008A568FFF726
:101A500027FD002840D0DDF80490A66809F10200B7
:101A6000019001362840361AB6000330B74204EB25
:101A700080003BD83A46514607F015FE0021214828
:101A800000F08FFB80F3100009F101032B4004EB01
:101A900083034FEA184242EA0040D86005EA09038E
:101AA000033304EB830214F8231068F3C50104F830
:101AB000231034F823106FF38F1124F8231051886A
:101AC00067F38F11518014F82320022161F3010282
:101AD0006FF3820204F823200B4B1B781BB1FFF736
:101AE000DBFD0028FBD102B0BDE8F087324651464D
:101AF00007F0D9FDBA1B0AEB060104F10C00BBE7A5
:101B0000C45C0020E06C0020E46C002030B541F2A1
:101B10001003124AD4580023214651B9C4682371D6
:101B200041F21004155955B91051C2681160184698
:101B300030BDC9680D799D4209D00968EDE7ED68AF
:101B4000C1682D680D601259D2681060EFE701334B
:101B50000A2BE1D14FF0FF33E9E700BFC45C00205E
:101B600038B541F21002094B9C5803F5815201230C
:101B700013701D4604B938BDE3685D7123682046C3
:101B80005B689847E3681C68F4E700BFC45C00200A
:101B900010B5037A052B0C460FD0437A23B1084ABF
:101BA0000849204600F0FCFB0749204600F0F8FBFE
:101BB0002046BDE8104000F0E1BB002AF8D0F3E772
:101BC00033980F00E2C00F0055980F0073B5C3881B
:101BD00004460D4633B1144A00921449144A28466B
:101BE00000F0DEFB217A05291CD0637A4BB1A08876
:101BF000FFF732FD0F4B104953F82020284600F024
:101C0000CFFB227A0D4BA08853F822600021FFF70A
:101C100007FD0B4903463246284602B0BDE8704036
:101C200000F0BEBB02B070BD33980F0040980F00AB
:101C300038980F0000980F00E2C00F0064980F0062
:101C400058980F002DE9F04385B01F460C9D0023E6
:101C500006460C46904695F80C902B73294638465C
:101C6000FFF7B4FFB8F1060F09D8DFE808F0041257
:101C7000181F283340003146284600F091FB00220F
:101C800029463846FFF784FF85F80C9005B0BDE87B
:101C9000F08322683146284600F082FBEFE7D4E962
:101CA00000233146284600F07BFBE8E7A368009359
:101CB0003146D4E90023284600F072FBDFE7E368F1
:101CC0000193A36800933146D4E90023284600F02D
:101CD00067FBD4E723690293E3680193A368009349
:101CE0003146D4E90023284600F05AFBC7E7636970
:101CF000039323690293E3680193A3680093314639
:101D0000D4E90023284600F04BFBB8E708292DE969
:101D1000F84F80460E4617461C4635D8002593F8E6
:101D20000C901D7319461046FFF750FFDFF88CA08A
:101D3000DFF88CB0AE4229D918F805205946204664
:101D400000F02EFB0135082DF4D11A49DFF874B0EC
:101D5000204600F025FB4FF0000A564524D918F81C
:101D60000A507E2D17D92E225946204600F018FB26
:101D70000AF1010ABAF1080FEFD1012221463846D3
:101D8000FFF706FF84F80C90BDE8F88F5146204617
:101D900000F006FBD6E707F057FC2844427812F023
:101DA000970FE0D02A46DFE70349204600F0F8FA13
:101DB000DEE700BF2E980F002C980F002A980F0026
:101DC00024980F0030980F0012F0030310B511D1C2
:101DD000094C22604C1CE400A4B22244074C22604F
:101DE000074A1370074A1370074A1080074A1846BB
:101DF000118010BD0720FCE7886D0020846D002055
:101E0000806D0020906D00208C6D00208E6D002074
:101E10002DE9F3472B4D2B888B4206460C4617467F
:101E20004BD302A84FF0000800F8018D00F096F89F
:101E3000254B264A18781178CBB2254909888B4260
:101E400038BF0133C0B238BF5FFA83F840452ED0A7
:101E500092F800801378DBB2994286BF0133DBB27F
:101E6000002313709DF8070000F0A8F84FF6FF73E9
:101E7000984524D0DFF860A0DAF800304FEAC809AE
:101E800003EB090243F83870A6B19CB1114B2888C6
:101E90001B68224608FB0030314607F004FCDAF8E4
:101EA00000304B4400209C8002B0BDE8F0874FF624
:101EB000FF78D7E700209080F6E70920F4E70420B8
:101EC000F2E700BF8C6D0020906D0020806D002037
:101ED0008E6D0020846D0020886D0020F8B5124CB6
:101EE000124D264622782B789A4200D1F8BD2378ED
:101EF0000F48104A078812680F48DBB219B202EB8C
:101F0000C10C006852F83120BCF8041003FB070034
:101F100090470A4A23781288DBB29A4286BF01337F
:101F2000DBB200233370DDE7906D0020806D002070
:101F30008C6D0020886D0020846D00208E6D002047
:101F4000EFF30583C3F308032BB9EFF31480C04309
:101F500000F00100704701207047000070B5044692
:101F6000FFF7EEFF012803D01049432000F062F88C
:101F7000EFF3108672B60E4A9068012398B9936009
:101F80000C4B0D4DD3F8801029401160C3F88050E0
:101F9000D3F8841051604FF0FF32C3F884202070D2
:101FA00006B962B670BD2370FAE700BFC9980F008A
:101FB000C0AF002000E100E0FC06FFBD10B5044604
:101FC000FFF7BEFF012803D00949512000F032F885
:101FD000084B9A685AB154B9EFF3108172B6064AA9
:101FE00018681060586850609C6001B962B610BDF6
:101FF000C9980F00C0AF002000E100E030B53AB151
:102000001368DB430A4D0144884204D1D84330BDF4
:102010004FF0FF33F6E710F8012B5340082213F07E
:10202000010418BF2C46013A84EA5303F7D1EBE7C9
:102030002083B8ED07B5ADF8000001916A46002194
:1020400044F2020001F0A2FE03B05DF804FB10B5FB
:1020500061B1B2FBF3F403FB1424A4B244B9C0E9A8
:10206000001484608281C381204610BD0E20FCE7ED
:102070000920FAE782B050E8022FC188B2EB324F54
:102080004FF0000317BF92B241EA014142EA014119
:1020900004E04268B2EB324F08BF012340E802126D
:1020A000002AE8D18DF807309DF80730002B0CBFCF
:1020B0001120002002B0704737B550E8013F9DB2B3
:1020C000C48925448489A54228BF2D1B0489A542C3
:1020D00002BFBFF32F8F002207E0C5EA030540E8E7
:1020E0000154002CE9D14FF001028DF80320019337
:1020F000019B9DF803200B6002F0FF0322B10B88C7
:102100000068184403B030BD1846FBE70A884B88C6
:102110009A4209D150E8012FC2EA024240E8012365
:10212000002BF7D1012070470020704737B550E8E9
:10213000023F1FFAA3F5C488A54202BFBFF32F8F49
:1021400000220DE0C48925448489A54228BF2D1BA7
:10215000C3EA054540E80254002CE8D14FF00102E3
:102160008DF803200193019B9DF803200B6002F082
:10217000FF0322B14B880068184403B030BD1846F5
:10218000FBE70A884B889A4209D150E8022FC2EA3D
:10219000224240E80223002BF7D1012070470020A3
:1021A000704750E8002F0B4640E8003C9CF0000FC1
:1021B000F7D11046704750E8002F42EA010340E88B
:1021C000003C9CF0000FF6D11046704750E8003FED
:1021D00043EA010240E8002C9CF0000FF6D11046C3
:1021E000704750E8002F02EA010340E8003C9CF0F1
:1021F000000FF6D11046704750E8003F03EA010295
:1022000040E8002C9CF0000FF6D11046704750E8D3
:10221000003F03EB010240E8002C9CF0000FF6D1D8
:102220001046704750E8003FA3EB010240E8002C45
:102230009CF0000FF6D1104670470121FFF7BBBF9D
:102240000121FFF7C3BF0021FFF7CBBF0021FFF73C
:10225000D3BF000010B50446002834D003681BB972
:102260001A49FF20FFF7E6FE636823B917494FF4C8
:102270008070FFF7DFFEA36823B9144940F2011014
:10228000FFF7D8FEE36823B910494FF48170FFF7D8
:10229000D1FE238A23B90D4940F20310FFF7CAFE8D
:1022A000D4E9012321689B1ADBB20A60013BDBB24F
:1022B000FF2B226802D10020107110BD1168481C4C
:1022C00010600B70F2E70E20F7E700BF0F990F00C8
:1022D00037B5054620B914494FF49270FFF7AAFEAE
:1022E00002A8002400F8014DFFF738FE2A6869684B
:1022F00013688B4210D9591E116013F8014C2A8AB9
:10230000EB6802FB04342A68AB6811685B1A117928
:10231000DBB2994238BF13719DF80700FFF74EFEFC
:10232000204603B030BD00BF0F990F0037B50C46F3
:10233000054620B9104940F24710FFF77BFE24B94B
:102340000D494FF4A470FFF775FE02A8002300F8B2
:10235000013DFFF703FE2A681368591C1160EA6803
:10236000A41A2A8AB4FBF2F41C709DF80700FFF748
:1023700025FE03B030BD00BF0F990F0010B5044615
:1023800018B906493120FFF755FEA2682AB16369E2
:102390002168206998470023A36010BD47990F006A
:1023A0000EB433B5059D044618B912494220FFF713
:1023B00041FE63691BB90F494320FFF73BFE2368C9
:1023C0001BB90C494420FFF735FE63681BB9094966
:1023D0004520FFF72FFE3DB102AA06AB42F8043DAF
:1023E0002946204600F076F802B0BDE8304003B040
:1023F000704700BF47990F000A2938B504460D46BB
:1024000002D10D21FFF7F8FFA3682268591CA160D3
:10241000D554D4E901329A4204D32046BDE838406D
:10242000FFF7ACBF38BD00002DE9F84F9946DDE954
:102430000A431746824688460A460126BA420FD208
:102440004E4538BF4E4613F0010B01D164B900244C
:102450000125B9F1010F1AD909F1FF397D43F8E7D8
:10246000B2FBF7F20136E9E79B070ED5B9F1000F91
:102470000CBF30252025A642EAD2013C2946504611
:10248000FFF7BAFF002CF6D1E1E72025F3E7B8FB10
:10249000F5F39F42E2D9DFF83890B8FBF5F35046E8
:1024A00019F8031005FB1388FFF7A6FFB5FBF7F536
:1024B000002DF2D1BBF1000F02D00CB1A64201D326
:1024C000BDE8F88F20215046013CFFF795FFF4E767
:1024D00075990F002DE9F74F0E469046054620B935
:1024E000AC4940F25220FFF7A5FD6B6923B9A94919
:1024F0004FF41570FFF79EFD2B6823B9A54940F2F4
:102500005520FFF797FD6B6823B9A24940F256208A
:10251000FFF790FD002E00F03A8116F8011B00290C
:1025200058D0252940F0D180002702E047F001076C
:102530001646324612F8013B2D2BF7D0302B04D033
:102540002B2B05D147F00407F2E747F00207EFE72E
:1025500000242A2B06F101021BD1D8F80030191DE6
:10256000C8F800101B6816461C4433782E2B1CD16B
:1025700001364FF0000A314611F8012BA2F130006C
:10258000092814D80A2303FB0A23A3F1300A0E46B4
:10259000F1E712F8013CA3F130010929E5D80A213D
:1025A00001FB0434303C1646D3E74FF0000A3246B4
:1025B00012F8011B01F0FB0068281646F8D06929C3
:1025C00016D054D8582970D00ED825297DD033780C
:1025D000002BA2D12B7B002B00F0D980284603B022
:1025E000BDE8F04FFFF7CABE632968D06429EED179
:1025F000D8F80020111DC8F80010D2F8009089EA20
:10260000E972A2EBE9724FF0010B092A61DCD345B4
:1026100038BFD3462CB1B9F1000F01DB790700D5E3
:10262000013CBA0702D5BAF1000F04D0FB0702D46F
:10263000002C54D10024B9F1000F58DAC9F1000977
:102640002D212846FFF7D8FE07F00302022A05D104
:10265000BAF1000F02D1002C4DD10024CDE9004782
:1026600053460A2249462846FFF7DEFEAFE77329A4
:1026700054D016D87029AAD1D8F800301A1DC8F83D
:102680000020302128461C68FFF7B6FE7821284636
:10269000FFF7B2FE00220823CDE9003221461022C6
:1026A000E1E775292FD0782991D1D8F800100A1DBB
:1026B000C8F80020CDE90047534610222CE0D8F896
:1026C00000301A1DC8F8002019782846FFF794FE3C
:1026D0007DE70A230BF1010B92FBF3F295E7A3458B
:1026E000A9D220212846013CFFF786FEA0E7780703
:1026F000AAD52B21A5E7A345B0D230212846013C1D
:10270000FFF77AFEA7E7D8F80010CDE900470A1DC9
:10271000C8F8002053460A220968A4E7D8F8003018
:102720001A1DC8F80020F907D3F8009012D54F46BB
:10273000A7EB090B17F8011B41B9A345BFF447AF3D
:1027400020212846013CFFF757FEF6E72846FFF711
:1027500053FEEDE7B9F1000F17D0484606F0BEFF73
:102760000746BC4200D954B909F1FF3919F8011FD5
:1027700000293FF42CAF2846FFF73EFEF6E7202164
:102780002846013CFFF738FEEBE74F46E9E703B088
:10279000BDE8F08F85990F0070B50D4616460446CA
:1027A00018B908495520FFF745FC1DB905495620C1
:1027B000FFF740FC25602B6831462046BDE870409D
:1027C000184700BFBA990F002DE9F041DDF81880D5
:1027D0000E4617461D46044618B922498820FFF7C1
:1027E00029FC1FB91F498920FFF724FC23681BB966
:1027F0001C498A20FFF71EFC1DB91A498B20FFF7E0
:1028000019FC63685A68B5FBF2F302FB13531BB162
:1028100014498E20FFF70EFCB20703D01149912016
:10282000FFF708FCBB0703D00E499220FFF702FC1C
:10283000E3689E4204D36B1E22693344934203D95A
:1028400008499320FFF7F6FB2368CDF81880D3F8EA
:102850000CE03A462B4631462046F446BDE8F041AE
:10286000604700BFBA990F002DE9F0410D461646AA
:102870001F46044618B919499E20FFF7DBFB236861
:102880001BB916499F20FFF7D5FB1EB91349A0209D
:10289000FFF7D0FB63681B68013B2B4203D00F4955
:1028A000A320FFF7C7FBE3689D4207D363681B685B
:1028B0006A1E03FB06232269934203D90749A82015
:1028C000FFF7B8FB2368D3F810E032463B462946B1
:1028D0002046F446BDE8F041604700BFBA990F00BA
:1028E0002DE9F04108B10368C3B90E4E0E4B142216
:1028F0009B1B0024B3FBF2F3374602FB03F5A54212
:1029000001D1002008E03B5930190BB91434F6E727
:10291000DB6998470028F9D0BDE8F081DB69BDE8A4
:10292000F0411847805B0020945B0020014B43601E
:1029300000207047049A0F00084670470020704737
:10294000024B1868003018BF01207047946D0020BA
:1029500008B50248FFF77AFC002008BD946D0020FE
:1029600008B510461A4606F09EFE002008BD00007D
:102970002DE9F041804686B013480E4615461F46A5
:10298000FFF75BFC044630B1112018E006EB043081
:1029900001F028F80134A542F8D10B48FFF756FCA6
:1029A000D8F8083000246BB1022268468DF8002068
:1029B000CDE90146CDE9034505979847204606B085
:1029C000BDE8F0811846FAE7946D00202DE9F0414A
:1029D000804686B012480F4616461D46FFF72DFC6E
:1029E0000446D8B9AA083146384601F029F80C48FF
:1029F000FFF72CFCD8F8083073B101228DF80020C5
:102A00000C9A05926846CDE90147CDE903659847E0
:102A1000204606B0BDE8F0811846FAE71120F8E735
:102A2000946D002029DF704728DF704770B5056876
:102A3000AB6886B004460E4673B114220021684686
:102A400006F03CFEA36805932379019633B1012B70
:102A50000ED0AB686846984706B070BD01238DF86C
:102A6000003023690293E368039363690493F0E7FA
:102A700002238DF80030E3681B030293F5E7084654
:102A80007047002070470000024B187A003018BFD2
:102A900001207047846F0020034B187A0122B0FA9E
:102AA00080F05A7440097047846F002008B51046C2
:102AB0001A4606F0F8FD002008BD000008B51422F3
:102AC0000021044806F0FAFD0348FFF7D3FA00207E
:102AD00008BD00BF846F0020746F002010B5094C42
:102AE000094B43602046FFF7A8FB48B900F0DEFD24
:102AF0001C2320744FF4EE7204490548FFF7A7FA2F
:102B0000002010BD846F0020309A0F00986D0020C7
:102B1000746F002070B5234D234E2B7A2C463BB9A1
:102B200022492348FFF702FB306008B9686070BD96
:102B30000223237233681A7972B1012A22D018460F
:102B40000321FFF773FF00232372636017491848BE
:102B5000BDE87040FFF715BBD3E90520121A142A0F
:102B600028BF1422D3E903159208012A014438BF73
:102B700001222844FFF756FF50B11128DFD101236D
:102B80002372D4E7D3E903021044FFF74DFFF3E7C4
:102B9000237C002BCBD10146BDE87040022000F021
:102BA00009B800BF846F00209C6F0020986F002040
:102BB000746F002038B5831E012B43D8224C237A32
:102BC000002B3FD0022B09D103282ED01F4B00220F
:102BD0001B68E2601A793AB1012A20D0637C6BBB92
:102BE000BDE83840FFF796BFD3E905128D1A142DC2
:102BF00094BF521914329A619142EFD102284FF0DA
:102C0000000308BF19462372104B18BF0D21186826
:102C1000FFF70CFF0E490F48FFF7B3FADEE71A691A
:102C200001321A615B699A42E7E7E3680133082BD6
:102C300001D8E360D2E70023E360DFE7BDE8384076
:102C400000F024BD38BD00BF846F00209C6F0020C1
:102C5000986F0020746F002000F0FD03012B08D155
:102C6000044B00225A74421E504250411874FFF720
:102C700051BF7047846F002010B5064C201DFFF730
:102C8000DCFA28B9637C1BB9BDE81040FFF742BFEE
:102C900010BD00BF846F00202DE9F34180460D4632
:102CA0000F4801A916461F46FFF706FA0446A8B1C9
:102CB0001C22002106F002FD2D0B0123237101A926
:102CC000C4F80080A760E56066610548FFF71EFA5A
:102CD000FFF7D2FF002002B0BDE8F0810420FAE740
:102CE000746F00202DE9F74381468846104801A9FA
:102CF00017461E46FFF7E0F90446B0B11C2200213A
:102D000006F0DCFC00250A9BA36001A92571C4F82C
:102D10000090C4E9037866610548FFF7F7F9FFF70B
:102D2000ABFF284603B0BDE8F0830420FAE700BFFC
:102D3000746F00202DE9F74F99469DF830300193CC
:102D400088461746054618B92249B620FFF772F99A
:102D5000EA8895F805B00BFB02FBABF1040BCB4501
:102D600003D81C49C420FFF765F93E68B5F806A0F2
:102D700006EB09025A4509F1040188BFABEB0906CD
:102D8000B1FBFAF43E600AFB141144B9AAEB010747
:102D9000B74228BF37462EB903B0BDE8F08F2D6883
:102DA000013CF2E7019A043108EB0403681872B1A0
:102DB00001463A461846F61B06F075FCB2453C44FF
:102DC0002D6857464FF0000128BF3746E3E73A46E3
:102DD0001946F0E75C9A0F00FFF73CBAF8B5467960
:102DE0000146721E0546002393422D6803D300243A
:102DF000A64202D8F8BD0133F6E70F682846FFF770
:102E000095FA01343946F3E72DE9F843CD1C068ADB
:102E10000746FFF75DFA043E35440446B5FBF6F578
:102E2000F0B14FF48073EDB28380C680013D07603E
:102E300081464FF00008A84512D23846FFF748FAFD
:102E4000064648B163790133637108F10108C9F896
:102E5000000007608146EEE72046FFF7BFFF3446DB
:102E60002046BDE8F88301210430FFF7D0B910B542
:102E7000012104460430FFF7D5F910F0FF0F04D10B
:102E80002046BDE81040FFF7A9BF10BD30B585B0A2
:102E9000144604AA002542F8044D0095FFF74AFFA6
:102EA000039BA34203D00349F620FFF7C3F805B004
:102EB00030BD00BF5C9A0F0030B585B0144604AA3F
:102EC000012542F8044D0095FFF734FF039BA34210
:102ED00004D003494FF48070FFF7ACF805B030BD63
:102EE0005C9A0F0082680023936082681361826895
:102EF00053618268D3608268536082681360704750
:102F000038B50D46044618B908495020FFF792F825
:102F10001DB906495120FFF78DF825602B686360C5
:102F20006A68934204BF0023636038BD949A0F001F
:102F300010B5044618B90B496320FFF77BF82368E6
:102F40001BB908496420FFF775F8636843B122682C
:102F500091680B4463605268934204BF002363602E
:102F600010BD00BF949A0F000D4930B5A1F59472C1
:102F70000225914201D800200EE08B1ADB1093FB52
:102F8000F5F302EBC30452F83330834205D802D282
:102F900004F10802EDE7606830BD2146E9E700BFB3
:102FA000209C0F0008B5FFF7DFFF024B002808BF89
:102FB000184608BDE59A0F00054B1B68082B01BF9A
:102FC000044B1868B0FA80F0400918BF0020704721
:102FD000300100103401001008B54FF0804300228A
:102FE000C3F80C21C3F81021C3F838254FF08052E4
:102FF00003F54043D2F80414C3F82015D2F808149E
:10300000C3F82415D2F80C14C3F82815D2F81014FC
:10301000C3F82C15D2F81414C3F83015D2F81814CC
:10302000C3F83415D2F81C14C3F84015D2F8201494
:10303000C3F84415D2F82414C3F84815D2F828145C
:10304000C3F84C15D2F82C14C3F85015D2F830142C
:10305000C3F85415D2F83414C3F86015D2F83814F4
:10306000C3F86415D2F83C14C3F86815D2F84014BC
:10307000C3F86C15D2F84424C3F87025FFF79CFF01
:1030800010B1384B384A1A60FFF796FF18B1374B2A
:10309000FB22C3F81825FFF78FFF48B13449354BA1
:1030A0000A681B6822F00F0203F00F0313430B6042
:1030B000FFF782FF18B1304B4FF400721A604FF0E7
:1030C0008043D3F80024D20744BF6FF00102C3F855
:1030D00000242A4AD2F8883043F47003C2F88830BA
:1030E000BFF34F8FBFF36F8F4FF01023D3F8002241
:1030F000002A03DBD3F80432002B2FDA204B012205
:10310000C3F80425D3F80024002AFBD04FF0102286
:103110001221C2F80012D3F80024002AFBD04FF08D
:1031200010231222C3F80422154B1A46D3F80014B8
:103130000029FBD00021C3F80415D2F80034002B7D
:10314000FBD0BFF34F8F0D490E4BCA6802F4E0620B
:103150001343CB60BFF34F8F00BFFDE70A4B0B4A11
:103160001A6008BD8C5600404881030000F0004002
:10317000E40E0040580200104096024000ED00E0CE
:1031800000E001400400FA05705900200090D003CF
:1031900038B52022044608300D4606F084FA202275
:1031A000A91804F1280006F07EFA002038BD0000BE
:1031B0002DE9F3411B4D98461B4B036004460E4618
:1031C000284601211746FEF7ECFFBFF35F8F20BBB7
:1031D00000F0ECF83B46089ACDF8008006F10801B3
:1031E000204605F095F8044600F0EEF82B68012B18
:1031F00003D00E499320FEF71DFFBFF35F8F00231E
:103200002B606CB10A4A48F2425348F2165094427D
:1032100008BF184602B0BDE8F08148F20450F9E753
:103220002046F7E7CCAF0020DD55AABBE89F0F0092
:103230008408F0000C4B98420DD006D820B1013B19
:1032400098420BD048F216507047084B984208D06D
:103250000D339842F6D148F20350704748F20150BE
:10326000704748F2025070470102F0000202F0007D
:1032700008B5083005F0B6F8BDE80840FFF7DABF3A
:1032800010B5064C2268012A03D005499320FEF7A9
:10329000D1FEBFF35F8F0023236010BDCCAF0020B1
:1032A000E89F0F0013681F2B70B505460E461446A5
:1032B00019D901210F48FEF774FFBFF35F8FA8B93A
:1032C00000F074F8314605F1080005F0FDF80546F8
:1032D00000F07AF8FFF7D4FF2846FFF7ABFF08B9F4
:1032E0002023236070BD48F21450FBE748F20450DD
:1032F000F8E700BFCCAF00202DE9F04107460E46AD
:10330000174801211446FEF74CFFBFF35F8F18BB2F
:1033100000F04CF8DFF84C800837B4F5805F2546A4
:1033200028BF4FF480552A463146404606F0BBF987
:103330002A464146384605F06FF8641B2E44054680
:1033400008B9002CE9D100F03FF8FFF799FF2846B3
:10335000BDE8F041FFF76EBF48F20450BDE8F081D0
:10336000CCAF0020A06F0020024B0020C3F8000566
:10337000704700BF00A0025038B50A4B00251D6001
:10338000BFF35F8F084C0123C4F8003505F0CCF87B
:10339000C4F8005520B1052848F2035018BF032097
:1033A00038BD00BFCCAF002000A00250044B01226A
:1033B000C3F80025034B4FF480625A60704700BF8A
:1033C00000A0025000E100E0044B0022C3F80025F9
:1033D000034B4FF48062C3F88420704700A0025072
:1033E00000E100E010B503682F2B044604D907491B
:1033F00040F2CD10FEF71EFE23681F2B83BF03F0A3
:103400001F03236002484FF0A04010BD66A00F00CC
:1034100000030050032813B5044603D9084941208E
:10342000FEF708FE074B02A81B5D40F8043DFFF7BE
:10343000D9FF019A01239340C0F80C3502B010BDAA
:1034400034A00F0062A00F00032813B5044603D96F
:1034500008494720FEF7EEFD074B02A81B5D40F828
:10346000043DFFF7BFFF019A01239340C0F80835E0
:1034700002B010BD34A00F0062A00F0008B50020FC
:10348000FFF7E2FF0120FFF7DFFF0220FFF7DCFF7D
:103490000320BDE80840FFF7D7BF0000F7B5C2071B
:1034A000054611D5124F00240326E35D00936846BC
:1034B000FFF798FF009B013403F5E073042C40F8FC
:1034C0002360F2D1FFF7DAFFAB070FD5094E0024D6
:1034D0000C25A35D019301A8FFF784FF019B013434
:1034E00003F5E073042C40F82350F2D103B0F0BD93
:1034F00062A00F005EA00F0010DF704711DF704761
:1035000013B5044609496846FFF7FAFC019808B963
:1035100002B010BDD0E900312046984718B1684686
:10352000FFF706FDF2E71120F2E700BF98A00F00B9
:1035300013B5044607496846FFF7E2FC019B0BB947
:1035400002B010BD2046D3E9002190476846FFF73E
:10355000EFFCF3E7B0A00F00064B9A6822B11A689F
:1035600022F480021A607047034B4FF48002C3F8C4
:1035700080207047C0AF002000E100E00B4991F8C7
:1035800016335A09EC231341DB0706D5084B9A681A
:103590003AB94FF480030B60704742F2020000F02A
:1035A0000BBC1A6842F480021A60704700E100E028
:1035B000C0AF0020F7B5184F3C785CBB174E012513
:1035C00020463570FFF79CFF112820D02046FFF7DA
:1035D000AFFF134B1868019002A800F8054DFEF7E5
:1035E000BDFC104901A8FFF787FF0446B0FA80F040
:1035F000400938709DF80300FEF7E0FC3CB90A4B27
:1036000034701C70FFF7BAFF2846FFF791FF204681
:1036100003B0F0BD0824FAE7A17F0020A07F0020BE
:1036200091A00F008D3D0F00A27F0020F7B5154F30
:103630003B7813B3144E01203070FFF761FF11285F
:103640004FF000051BD00220FFF772FF02A800F820
:10365000015DFEF783FCFFF751FF04469DF807006C
:103660003D70FEF7ABFC2CB93470FFF775FF0320FB
:10367000FFF75EFF204603B0F0BD0824FAE72C46B2
:10368000F8E700BFA17F0020A07F0020054B1B783A
:1036900033B1054B1B780BB1FFF7C8BFFFF78ABFEB
:1036A00008207047A07F0020A17F0020014B1878E0
:1036B000704700BFA17F002007B508496846FFF7A3
:1036C0001FFC019B13B903B05DF804FBD3E9002094
:1036D00090476846FFF72CFCF3E700BFA4A00F005B
:1036E000FFF7EABF60DF704769DF704761DF70474F
:1036F00030B5114DADF5017D4FF4FA740DF10201B5
:1037000003A8ADF80240FFF7F1FF70B9294601A800
:10371000FFF7F6FB029B002BF0D003A8D3E90021B2
:10372000904701A8FFF704FCF4E7052801D000F05A
:1037300043FB0DF5017D30BD34A30F00024B1B7818
:103740000BB1FFF7D5BF7047A37F002018B1034B23
:103750000360002070470E20704700BF68590020AA
:1037600030B5054685B00C46002900F0B5805B4BAE
:103770000B600C22002101A805F0A0FF01238DF8A9
:10378000063022688DF80450062301A92020ADF8E8
:103790000830FFF7A9FF60B1FFF704FC504A514B16
:1037A00051499B1ADB081B04024643F00100FEF757
:1037B00005F90C22002101A805F080FF01238DF8F6
:1037C00005302268002301A940208DF806308DF8CD
:1037D0000730FFF789FF60B1FFF7E4FB404A414B38
:1037E00042499B1ADB081B04024643F00100FEF726
:1037F000E5F80C22002101A805F060FFF7232268FC
:103800008DF8045001A92320ADF80630FFF76CFFB6
:1038100060B1FFF7C7FB324A324B35499B1ADB08D0
:103820001B04024643F00100FEF7C8F80C220021F9
:1038300001A805F043FF012022688DF8040001A9CA
:10384000FFF752FF60B1FFF7ADFB254A254B294931
:103850009B1ADB081B04024643F00100FEF7AEF89A
:103860000C22002101A805F029FF4FF4B063226863
:10387000019301A9A120FFF737FF60B1FFF792FB89
:10388000174A184B1C499B1ADB081B04024643F0DD
:103890000100FEF793F80C22002101A805F00EFFAD
:1038A0009DF8043022686FF3000301A9A0208DF871
:1038B0000430FFF719FF68B1FFF774FB084A094BA2
:1038C0000E499B1ADB081B04024643F00100FEF779
:1038D00075F8002005B030BD0E20FBE768590020C8
:1038E00010CA0F0070CA0F00C4A00F000AA10F0079
:1038F00056A10F009DA10F00E9A10F003AA20F00F1
:10390000F8B506460768FFF7EDFE3368BB4205468B
:103910001DD9194B194C1A49E41AE408240444F03F
:1039200002042046FEF746F8336816493A46204618
:10393000FEF74EF84FF080533268D3F80C3112493D
:103940009B0203F100539A1A2046FEF737F825B977
:103950000E4B01221A702846F8BD2846FFF722FBBD
:10396000054A064B0A499B1ADB081B04024643F032
:103970000100FEF723F8EEE710CA0F0070CA0F002F
:103980008DA20F00BCA20F00EDA20F00A37F0020AC
:1039900017A30F004BDF70471FB50D4C01A8FFF7B1
:1039A000F9FF70B9214602A8FFF7AAFA039B002B82
:1039B000F4D00198D3E90021904702A8FFF7B8FAA4
:1039C000F4E7052801D000F0F7F904B010BD00BFFE
:1039D0004CA30F00024AD2F80034002BFBD07047F2
:1039E00000E001400A4908B50223C1F80435BFF3DD
:1039F0006F8FBFF34F8FC1F80805FFF7EBFF002370
:103A0000C1F80435BFF36F8FBFF34F8F08BD00BF00
:103A100000E0014010B5094C0123C4F80435BFF3A0
:103A20006F8FBFF34F8F0160FFF7D4FF0023C4F8FF
:103A30000435BFF36F8FBFF34F8F10BD00E001401F
:103A40000E4B10B50124C3F80445BFF36F8FBFF3CD
:103A50004F8F01EB8204401AA14208D1074B00228C
:103A6000C3F80425BFF36F8FBFF34F8F10BD43180A
:103A700051F8042B1A60FFF7ADFFEDE700E00140BD
:103A800028B139B10023C1E900301846704748F227
:103A90001050704748F21350704730B1036848F235
:103AA00040508B4208BF0020704748F210507047CA
:103AB00028B148F21150914208BF0020704748F2E7
:103AC0001050704770B506460C461D46FFF7D8FFEC
:103AD00050B9B3794AB1AB420AD111462046FFF73B
:103AE00057FB08B9044B236070BD48F21050FBE748
:103AF00048F21150F8E700BF7052464D2DE9F047EB
:103B00000C4605461349204616469846DDE90879D5
:103B1000FFF7C3FF80B963685A79494652003846B7
:103B2000FFF7C6FF40B996B145B94FF4DA700A49BC
:103B3000FEF780FA48F21550BDE8F0870897434633
:103B4000324621462846BDE8F047FFF731BB48F230
:103B50001050F1E77052464D64A30F0010B50446B3
:103B600038B149B141600B68984708B9044B2360EC
:103B700010BD48F20150FBE748F21050F8E700BFD3
:103B80006E524648F0B448B107680A4EB74209D1B0
:103B900059B16AB14368F0BC5B68184748F20150FC
:103BA000F0BC704748F20250FAE748F21050F7E7CD
:103BB0001046F5E76E524648F0B460B107680C4E07
:103BC000B7420CD171B143681568DC68A5420CD3CB
:103BD0009B68F0BC184748F20150F0BC704748F2AF
:103BE0000250FAE748F21350F7E748F21450F4E7AE
:103BF0006E5246482DE9F041044617469846DDE9E5
:103C00000656FFF7ABFF60B9424639462046FFF73C
:103C1000B9FF30B9324629462046BDE8F041FFF7EA
:103C2000CBBFBDE8F0810000F8B50A4F0A4C0B4D40
:103C3000E41B0121E40829700026A64203D10223D7
:103C40002B700020F8BD57F8363098470028F9D17E
:103C50000136F2E7F4C90F00FCC90F00A47F002071
:103C600038B50C46054618B908493320FEF7E2F985
:103C7000611E29442846884200D938BD03780A7855
:103C800000F8012B01F80139F5E700BFA2A30F00EE
:103C900070B50D461446064618B90A494520FEF788
:103CA000C9F91DB907494620FEF7C4F9621E32441E
:103CB000013DB24200D270BD15F8013F02F8013952
:103CC000F7E700BFA2A30F0070B5164604460D46E5
:103CD000FFF7DEFF3246A919A019BDE87040FFF7D3
:103CE000D7BF38B50D460446FFF7BAFF294660191D
:103CF000BDE83840FFF7B4BF08B507281BD8DFE898
:103D000000F004121A1A1A041A040120FFF7C6FB65
:103D10000020FFF77FFB0120FFF77CFB0220BDE8BE
:103D20000840FFF791BB0120FFF78EFB0220BDE8A2
:103D30000840FFF76FBB08BD08B5FDF711FFFDF7A1
:103D4000ABFC0028FBD10D4D642445F001054FF478
:103D50007A40A847013CFAD1094B1B68DB0700D524
:103D600000BEBFF34F8F0749074BCA6802F4E062F9
:103D70001343CB60BFF34F8F00BFFDE780A40F005C
:103D8000F0ED00E000ED00E00400FA0507B5074B98
:103D9000074C0092E41AE40824040B460246054945
:103DA00044F00100FDF71EFEFFF7C6FF10CA0F002A
:103DB00010CA0F0024A40F0008B5064A064B074995
:103DC0009B1ADB081B04024643F00100FDF7F6FDD9
:103DD000FFF7B2FF10CA0F0010CA0F005BA40F005C
:103DE00010B500F08BFF002210464FF4805100F018
:103DF00047FB024608B1FFF7DFFF1548C0F57E21FB
:103E000000F03EFB01460028F5D11248124CFDF7A8
:103E1000E5FBFDF70FFB114B1149E41AE4082404FC
:103E200044F00300FDF7C6FD0E4800F0DDF9002860
:103E3000E1D1FDF731FC0028FBD10B4944F0010032
:103E4000FDF7B8FDFDF728FC0028FBD1D3E700BF44
:103E500000100F004D480F0010CA0F0010CA0F00CD
:103E600086A40F00F93C0F0092A40F0038B1054B57
:103E70000360054B436001230372002070470E204E
:103E8000704700BFB33E0F008D3E0F0069B10B7845
:103E9000022B0CD1022804D003280CBF11200820CB
:103EA000704703230B70002070470E2070470820D6
:103EB000704710B50C4681B10B78042B04D8DFE8AD
:103EC00003F00E05030E0E00112010BD03F040F8A4
:103ED0000028FAD102232370F7E70E20F5E7082027
:103EE000F3E70000F8B5044680691649164A10F851
:103EF000025C521A0C230E46B2FBF3F23DB9206964
:103F0000534300229A4205D10123236013E04FF06E
:103F1000FF30F5E7B758AF4201EB020E06EB020C9B
:103F20000ED1471C08D1DEF80850D4E90223D4E9A9
:103F30000001A8472060F8BDDCF804708742F2D089
:103F40000C32DFE704CA0F0010CA0F001EF0040F86
:103F50000CBFEFF30880EFF30980FFF7C3BF00BF8A
:103F60000369C1688B429DBF8268D21802F1FF329B
:103F700003F1FF3394BF501A581A70472DE9F041EE
:103F8000D0E902670446F61B40689642884615460B
:103F9000384405D905F087FB3D44E560BDE8F08174
:103FA0003246AD1B05F07FFB2A4608EB0601606830
:103FB00005F079FBF1E72DE9F843C5680646894627
:103FC00017464FF000083469B3687068A54228BFEF
:103FD000E418013C621B5C1BBC4228BF3C46944277
:103FE00028BF144649462844224605F05CFBB368C6
:103FF0002544AB4208BF00253F1BA044A144F56007
:10400000E1D14046BDE8F88310B5114C114AA261D8
:104010000223C4E90433104BE361A2644FF48053DC
:104020000E4A2362E264002310220D49A362E01DC0
:104030006362E362A3656365E365226505F046FBA1
:104040000849204605F042FB2023A37110BD00BFA4
:10405000D0AF0020B7A40F00B57F0020A57F0020BF
:10406000C0A40F00C4A40F00F8B5184C182300FB1F
:10407000033503FB00402544C46A012C0F46164655
:1040800011D003D3022C1BD000240AE02846FFF7EE
:1040900067FF864205D8324639462846FFF76EFF4D
:1040A00034462046F8BD2846FFF75AFF864234467C
:1040B00028BF0446224639462846FFF75FFFF0E74F
:1040C0002846BDE8F840FFF776BF00BFD0AF00201C
:1040D000FFF79ABF41DF7047014B01221A7070470A
:1040E000D893002008B5FDF73BFDFDF7D5FA002871
:1040F000FBD1BFF34F8F0549054BCA6802F4E0625C
:104100001343CB60BFF34F8F00BFFDE700ED00E02E
:104110000400FA0508B50948094B0A49C01AC00845
:10412000000440F00400FDF745FC074B074800225F
:104130001A70BDE8084002F0C5BE00BF10CA0F00EB
:1041400010CA0F00CBA40F00D8930020E5400F0049
:1041500008B50748074B0849C01AC008000440F0DA
:104160000300FDF727FCBDE80840FFF7D3BF00BF01
:1041700010CA0F0010CA0F00E1A40F00831E10B573
:104180000446052B09D8DFE803F0120303080F0FDC
:1041900009494FF4701000F019FB084B1B684BB134
:1041A0002046BDE810401847FFF7B4FFF5E702F0DE
:1041B00059FDF2E710BD00BF51410F00DC93002014
:1041C00008B50648064B0749C01AC008000440F06D
:1041D0000400FDF7EFFB002008BD00BF10CA0F0070
:1041E00010CA0F0069A60F00F8B56D4B6D4C6E49F3
:1041F000E41AE408240444F0040705463846FDF7B1
:10420000D9FB6A4B6A4A1D604FF0A0430020C3F8F7
:10421000642702F06DFE064640B900F085FC0128D7
:1042200000F0B38004D3022800F0B7800320F8BD6B
:104230004FF08043D3F8005415F4803546D04FF446
:104240008032C3F8002435465A4E336A012B50D0D1
:10425000594944F00300FDF7ADFB58493846FDF7D6
:10426000A9FB4FF4701400F0A3FD554A202118203B
:10427000FDF7AAFD08B1FFF79FFD524B1A6802F047
:10428000F802B02A06D11A68D20742BF1A6802F0B3
:104290004E021A60FFF794FF0028C7D120464A4912
:1042A00000F094FA494801F0A5FA0028BED1484927
:1042B0003846FDF77FFB00F0C1FDFDF70FFEFDF76F
:1042C000EBF90028F7D1FFF705FFF4E7D3F8202535
:1042D00002F0F802A82A0AD1D3F82025D00706D583
:1042E000D3F8202502F05602C3F82025ACE70125BB
:1042F000AAE743F204031A68364B9A420FD11DB95C
:1043000096F86032012B0AD0726B33484FF480511B
:1043100003F04CFC18B9314944F002009BE702F06D
:10432000F5FE01461DB996F8A132012B06D0B269FF
:104330002B4803F03BFC08B92A49EDE72A493846E7
:10434000FDF738FB4FF0A043D3F81035990101D4A5
:10435000264983E71B4B1B6813F0B10F01D024499A
:104360007CE702F02DFE00287FF460AF214D28701D
:10437000214802F0A7FD2B7823B920494FF40170A2
:10438000FDF758FE00F03EF801E0FFF7C3FE1C49C0
:1043900044F00100FDF70EFB48E74FF4A02462E76C
:1043A00010CA0F0010CA0F00F5A40F00DC93002004
:1043B0000C00030048B000200CA50F00AAA50F00B8
:1043C000B88F00201C05004051410F007D410F00B7
:1043D00019A60F00DBE5B151A8B200203AA50F00E5
:1043E000E9B2002075A50F009DA50F00CDA50F0017
:1043F000ECA50F00D8930020D9400F0029A60F008C
:104400000DA60F0070B5184B184C194D1949E41A38
:10441000E408240444F004064FF480523046FDF7CB
:10442000CDFAD5F8802014493046FDF7C7FA4FF091
:10443000FF33C5F88030C5F88031C5F88430C5F841
:10444000843102F0D6F820B10C4944F00100FDF7A8
:10445000B1FAFDF721F90028FBD14FF48050BDE8F7
:10446000704000F049B800BF10CA0F0010CA0F001A
:1044700000E100E083A60F00B9A60F00E3A60F003D
:10448000F0B5C1F30B048CBBB0F57F2F2ED8184DBF
:10449000184F2B68002A08BF0226224618BF06269E
:1044A0002C46072B05D902B123600420F0BD012260
:1044B000F7E71D0105F1804202F5F0323D44C2F8F4
:1044C0000008C2F80418C5F80868D2F800C86045AA
:1044D00003F10103EBD1D2F804289142E7D1D5F8DA
:1044E00008289642E3D123600020DFE70720DDE7BC
:1044F000E093002000E0014038B504462748002240
:10450000C0F57F21FFF7BCFF054668B1244B254865
:104510002549C01AC008000440F001002A46FDF7F2
:104520004DFA2846FFF748FC02F0F0FD1F4B996951
:1045300001F6FF7121F47F61002221F00F01014497
:104540001046FFF79DFF054668B1154B1548184901
:10455000C01AC008000440F001002A46FDF72EFAF8
:104560002846FFF729FCEFF305820023D4E9005425
:1045700083F3148883F3108883F3118883F31388FB
:10458000C2F308021AB10B496E20FDF753FD85F303
:1045900008884FF0FF339E46204738BD00100F00BB
:1045A00010CA0F0010CA0F0018A70F0048B0002053
:1045B0004FA70F0083A70F00F7B5264B06462648E6
:1045C000C01AC00800040C463246244940F00400DA
:1045D000FDF7F4F9B4F1807F37D321498F20FDF73F
:1045E00029FD6FF07F431F4FA34228BF2346D7F812
:1045F0000455E41A1D44631E942B96BF96347460D0
:104600007460347B25F07F4598BF963D032C03D919
:1046100013497720FDF70EFD04F5A873124A47F8F9
:1046200023504FF4F86042F0010290470F4BA20074
:10463000134400221A601B680193019B4FF48033DE
:10464000A340C7F8043303B0F0BD952CC9D8044982
:104650009020C4E710CA0F0010CA0F0006A80F0070
:104660001CA80F000040024000A80F00404102407B
:1046700018490A7884B0002A29D14FF08043A0203D
:10468000D3F81834DB035EBF134B01221A60134AC0
:104690000023136012680392039A114A1360126890
:1046A0000292029A0F4A136012680192019A0E4A0E
:1046B00082F82403102050600C4A0D48C2F80835D7
:1046C0000123036002201360C2F804030B7004B0DE
:1046D000704700BFE89300200800004000410240FE
:1046E000404102404441024000E100E000400240FD
:1046F000084002402DE9F7432A4B1A6842B12A4983
:104700000A6801320A6000221A601B680093009B4D
:104710002648274BDFF8B080264EC01AC008000498
:10472000A8F5102740F00405A7F5A067336823B368
:1047300000233360B4003368019307EB0409444459
:104740004A461D49019B2846A4F51024FDF736F979
:10475000A4F2F44319491A784FF480339340184A6D
:104760002846C2F808334A46FDF728F9A4F2FC436C
:10477000196849B14846FFF71FFF124B04369E42A5
:10478000D4D103B0BDE8F083A4F59F63196811B1DB
:104790004846FFF711FFA4F5A0642368002BECD076
:1047A0009847EAE704410240E493002010CA0F0052
:1047B00010CA0F0040410240D3A70F00E5A70F0029
:1047C000004002404841024074590020F8B5114BA6
:1047D000114E044611483768C01AC00800043A4612
:1047E0000D4640F004000E49FDF7E8F83A7B4FF41F
:1047F000803393400B4AC2F808334CB13668FFF758
:1048000037FF356021463046BDE8F840FFF7D4BE9B
:10481000F8BD00BF10CA0F009459002010CA0F0045
:10482000D3A70F000040024070B5074B1C680E462E
:10483000A0600546FFF71CFF266029462046BDE81C
:104840007040FFF7B9BE00BF98590020034A044BDF
:104850001068D3F8043503EB00607047E493002040
:1048600000400240014B01221A707047E99300207A
:104870002DE9F341214BDA6A5F6A9D6CAC2A1FD1A6
:104880005B6B1D44FF1A1E4B1E4C1F4A1F490097AD
:10489000E41AE408240444F004082B464046FDF7DB
:1048A000A1F83A462946184804F0EEFE064668B9D3
:1048B00017494046FDF77EF8304602B0BDE8F0816A
:1048C000002DE0D102F038FC0546DCE73B462A46E5
:1048D00010494046FDF77CF8FCF7DEFE0028FBD1CE
:1048E00000F0ACFA3946284601F064FE064600287E
:1048F000E2D0094944F00100DCE700BF48B00020E5
:1049000010CA0F0010CA0F0000100F0067A80F0098
:104910009CA80F00D3A80F0000A90F002DE9F04FAD
:104920003A4B17463A4A9B1A87B0DB081B0404939C
:10493000814243F0040305468946039308D1354973
:104940001846FDF737F80024204607B0BDE8F08F81
:1049500003D231494F20FDF76DFBC5F30B031BB1AB
:104960002D495120FDF766FBA9EB05035FEA133BD8
:1049700003D129495420FDF75DFB00F019FABBF182
:10498000080F28BF4FF0080B07F6FF784FEA0B33EC
:104990004FEA183805930FB93C46D5E7C34534BFF5
:1049A000DA46C2464FF000025146284634BF059E03
:1049B0003E4601F0B9FD04460028C5D12B464A46C3
:1049C000164903980096FDF70DF8F21C234622F0D5
:1049D00003024946284601F069FD04460028B3D188
:1049E0000F4A136BBF1B3544B1441E44166302F0DB
:1049F0006FFAA8EB0A0804460028CCD0049B0949AA
:104A000043F00100FCF7D6FF9EE700BF10CA0F007D
:104A100010CA0F001AA90F0029A90F0077A90F00CB
:104A200048B0002098A90F002DE9F04702F094FB50
:104A3000344C354BDFF8ECA03449DAF84850DAF85A
:104A40003080DAF83460E41AE408240444F00407FF
:104A500081463846FCF7AEFF42F20403EA5803F100
:104A6000A34303F5471303F2D7539A4208D02849CA
:104A700044F00100FCF79EFF03252846BDE8F087BF
:104A8000DAF83020B242154405D122493846FCF705
:104A900091FF0025F1E7DAB94FF4405338461B780F
:104AA000142B81BF43F214031A681B4BB2FBF3F2C1
:104AB00005F500531B78142B81BF42F214031649ED
:104AC000EB58B3FBF1F398BF00231449FCF780FFC8
:104AD000A6EB080202F6FF7222F47F62294622F05A
:104AE0000F0209EB0800FFF719FF054628B10C4932
:104AF00044F00100FCF75EFFBFE7BDE8F04702F0BD
:104B0000E7B900BF10CA0F0010CA0F009EAB0F001C
:104B1000C3AB0F00F7AB0F0040420F0009AC0F0012
:104B200032AC0F0048B000202DE9F0475C4B5D4CE3
:104B30005D4F5E49E41AE408240444F0040840464A
:104B4000FCF738FFFB6AA52B00F0858009D8012B04
:104B500020D044F003005649FCF72CFF0020BDE8AC
:104B6000F087AA2B00F08280AC2BF2D1514940464D
:104B7000FCF720FF50494046FCF71CFFFFF754FFAD
:104B8000054600287BD04D4944F00100FCF712FF98
:104B9000012620E04A494046FCF70CFF7E6AD7F820
:104BA000489002F0B3FA3D6B464900EB050A4046D7
:104BB000FCF700FF396B49448A4514BF721B002281
:104BC0005046FFF7ABFE054668B13F4944F001008F
:104BD000FCF7F0FE0026FB6A3C492A4644F001003F
:104BE000FCF7F6FE12E002F091FA2A463146FDF794
:104BF00005FABA6A9042814626D135494046FCF70B
:104C0000D9FE0123C7E90793BE612E463148324DD4
:104C100002F070FA002331482B7002F059F92B781A
:104C2000814623B92E494FF4D170FDF703FAB9F14B
:104C3000000F2CD196B33B6A012B2FD14046294956
:104C4000FCF7B8FE02208AE70346274944F001003A
:104C5000FCF7BEFED9E725494046FCF7ABFEFFF75F
:104C6000E3FE01260546002DD0D0B4E7204940469A
:104C7000FCF7A0FEFFF7FCFD00260546F3E7FFF773
:104C8000F7FD054608B11B497EE70126BEE744F063
:104C900001001949FCF78EFE032060E701205EE762
:104CA00010CA0F0010CA0F0048B00020D1A90F0091
:104CB000DDAA0F0086AA0F0094AA0F00B1AA0F0068
:104CC000F2A90F00FCA90F0032AC0F00F6AA0F00EA
:104CD00017AA0F006CB00020E993002065480F0070
:104CE00029A90F0028AB0F002CAA0F0074AA0F00EF
:104CF0007DAA0F00C7AA0F0084AB0F0008B540F6CD
:104D0000F8700368013302D10749FEF783FE40F6CD
:104D1000FC700368013305D14FF47E21BDE80840E3
:104D2000FEF778BE08BD00BF00100F000A4AD2F897
:104D300000347BB109480023D2F80815D940C907CF
:104D400048BF03F5C07103F1010348BF42F82100D9
:104D5000072BF1D1704700BF000001403546526E6D
:104D600008B50748074B0849C01AC008000440F0BE
:104D70000300FCF71FFEBDE80840FFF7D7BF00BFE8
:104D800020CA0F0010CA0F00BCAC0F0007B5074BBC
:104D900000221A601B680193019BFCF7E1FEFCF7FF
:104DA0007BFC0028FBD103B05DF804FB000101404F
:104DB00070B5194E33784BBB184C1949194B641A0E
:104DC000E408D3F80024240444F00304FAB1D3F82F
:104DD000045515492A462046FCF7F0FD40F61653C7
:104DE0009D42B8BF1D46A5F54865FFF79FFF2A46BF
:104DF0000E492046FCF7E2FD0D492846FFF714FD59
:104E00000C4B4FF480321A600123337070BD0A4995
:104E10002046FCF7CFFDF7E7EA93002020CA0F00F9
:104E200010CA0F00000001404BAC0F0064AC0F0033
:104E3000614D0F0000E100E096AC0F00034BD3F88A
:104E400000340BB1FFF772BF704700BF0000014094
:104E50000023C0E90232C0E900118B881A440261C4
:104E6000B1F906301A4442610888003018BF0120A9
:104E7000704710B5426811880346002939D002F105
:104E800010014160148A2CB9C2680168FFF7E0FF85
:104E9000204610BD9078118900F03004302C1BD1D1
:104EA000947C04F03004302C16D190881969091ACA
:104EB00019610021907810F0300F02BF986801301E
:104EC0009860908A0844196901441961B2F9162062
:104ED000114459610120DCE700F0F004202C02D1DC
:104EE00050894143E6E700F0C000802808BF042154
:104EF000E0E70846CDE770B5456804460E466368AE
:104F00001A88B24204D19B7803F00F03082B07D113
:104F10002046FFF7AEFF6368AB42F0D1002070BDC2
:104F20000120FCE743681A44426011B101399A42FA
:104F300001D10120704713F8010B01F8010FF6E7CA
:104F400010B5836804460BB9002010BD0368012228
:104F500098470028F8D0A368013BA360F5E72DE946
:104F6000F3410F460DF107018046FFF7E9FF0646C2
:104F700020B90026304602B0BDE8F0819DF8074018
:104F8000220613D504F07F0407250DF107014046E2
:104F9000FFF7D6FF0028ECD09DF8072002F07F0332
:104FA000AB401C43130605F1070501D43C60E1E763
:104FB000232DEAD1DDE770B54268927802F00F0147
:104FC000082986B003461FD103691C6800260CB966
:104FD00006B070BD236826739D68626829466846DE
:104FE000FFF736FF6368049304F10C030593AB7875
:104FF00003F0C003802B08BF231D684608BF04933D
:10500000FFF7D9FFA468E2E712F0C00120D102F057
:10501000300010280ED15A6911705A6818699378B7
:10502000D46803F00F03072B09D10146204600F096
:1050300017F8CDE79006F0D55B691980C8E71289AB
:10504000214614B104F02FFBC2E704F037FBBFE7A1
:105050008029BDD10069002192060160B8D5EBE737
:105060007FB50A4601466846FFF7F2FE30B1684652
:10507000FFF7A1FF6846FFF7FCFEF7E707B05DF812
:1050800004FB000030B5044685B01546A9B9026896
:10509000114B9A4211D0102D06D82A466946204657
:1050A000FFF7F0FF05B030BD102269462046FFF73C
:1050B000E9FF0028F6D0103DEDE7A368AB4201D22E
:1050C0000020EFE723682A46204698470028F7D0BB
:1050D000A3685D1BA560E5E7254F0F00F7B50E46F9
:1050E00001A907461546FFF73AFFA8B1019A012327
:1050F000D3184FF0000404D2B17801F0C001802928
:1051000001D1204608E031899942FAD32946384630
:10511000FFF7B8FF019BEC5403B0F0BD73B50E462A
:1051200001A905461446FFF71AFFB8B1019BB3F574
:10513000803F07D202229A1804D2B17801F0C00150
:10514000802901D1002009E031899142FAD321461A
:105150001A4621F8023B2846FFF794FF02B070BDC3
:1051600010B5034C82600022C0E90041C26010BD4E
:10517000254F0F002DE9F04F824685B00D464FF0C8
:1051800000084FF0000900240DF10F015046FFF711
:10519000D7FEF8B19DF80F1001F07F025FFA82FB95
:1051A0004FF0000CCDE900BC009AA4F1200CC4F132
:1051B000200322FA03F302FA0CF71F431346A3401D
:1051C00048EA03080B0649EA070904F1070404D476
:1051D000C5E9008905B0BDE8F08F462CD4D1002088
:1051E000F8E773B50D4669461446FFF7C3FF68B18B
:1051F0002B89082B0CD1DDE90056C4E90056DDE906
:105200000023B34206BFAA420120002002B070BDB5
:10521000042B05D1DDE90001206005460026EEE7FC
:10522000022B03D10098208085B2F7E7012B05D12E
:10523000DDE90001207000F0FF05EFE70020E5E761
:1052400037B50D4669461446FFF794FF30B12A89F9
:10525000082ADDE9003103D1C4E9003103B030BDD3
:10526000042A18464FEAE37108D123601A460B4618
:105270008B4206BF824201200020EFE7022A04D1C0
:105280001BB223801AB2D317F2E7012A03D15BB213
:1052900023705AB2F7E70020E0E7F7B50C4600218B
:1052A00019702170116001A9074615461E46FFF7C7
:1052B00056FE30B9BB6813B901233370002003B028
:1052C000F0BD01990029F7D0CB0801F007012B6050
:1052D0002170F4E713B5044605291FD8DFE801F073
:1052E000030F151E1E1C012201A92046FFF7CAFE4E
:1052F00018B19DF90430002BF5DB02B010BD082277
:1053000000212046FFF7BEFEF7E701A9FFF727FEC1
:105310000028F2D0019AF3E70422F1E70020ECE73D
:1053200073B50D4601A90446FFF719FE064618B9E4
:105330000026304602B070BD94E80F0085E80F00EB
:1053400001998A42F4D3A960A3685B1AA360F0E7CD
:105350002DE9F0415568AB7813F0C00E88B00646D1
:105360008C46144604D0BEF1400F6AD0002546E0BA
:1053700003F00F025D4903F03003102B51F8227047
:105380001DD006D8002BF1D122692946B847054621
:1053900035E0202B19D0302BE8D16369298819809A
:1053A000072A0AD1636820691A89714604F086F9D0
:1053B00063682169D868FFF753FE22693EE063699C
:1053C00001221A7022696168E0E7BCF1020FD4F88B
:1053D000148027D1042A25D804A9FFF7A1FF054688
:1053E0000028C3D0069B2BB16168B8F800304A8909
:1053F0009A4208D8059B7360069B002BB6D12846BD
:1054000008B0BDE8F0810889226903FB002204A8E6
:10541000B84728B1B8F800300133A8F80030E1E708
:105420000546E7E7B8F8003021692A8903FB021234
:10543000698999429AD90133A8F8003061683046E9
:10544000A4E717693B6807F1040813B9FFF742FFA7
:105450009DE7022913D104A9FFF762FF002885D038
:105460003B686168424604A89847054600283FF417
:105470007DAF069B002BF3D1059B7360BFE701292D
:105480002BD009D305297FF471AF04220DEB020163
:10549000FFF7F8FD042525E0002501AB591901357A
:1054A0000B2D3FF463AF01223046FFF7EBFD0028E0
:1054B0003FF45CAF01AB2B4413F9013C002BECDB58
:1054C0000B4B049301ABCDE90535002307933B68F3
:1054D0006168424604A8984759E7082201A9FFF7E6
:1054E000D1FD08250028EBD140E700BFCCAC0F0070
:1054F000254F0F002DE9F04F91B00446002604A877
:10550000CDE90266FFF7A4FCA3683BBBDDE90534E7
:1055100004A89D78FFF7ADFC0028F7D115F0300FF7
:1055200003D1059B1B8803B10134002C00F0A98036
:105530006309002202A9934240F09C8010AA02EB6A
:10554000830304F01F04C4F120044FF0FF3053F82C
:10555000383CE040C31A584258410DE00DF10303B6
:1055600001AA0DF102012046FFF797FE38B99DF818
:105570000330002BCAD1002011B0BDE8F08F019993
:1055800004A8FFF7B8FC002850D1019BB3427FD399
:10559000059D059A937803F00F03082B73D004A898
:1055A000FFF767FC059B9D42F3D14FF0FF36019F4B
:1055B000B7426DD3089B9DF80290D4F808801D680F
:1055C0004FF0010AA368002D5FD098459CD12B684D
:1055D000D3F800B0BBF1000F08D04B463A4629463D
:1055E0002046D8470028C6D0AD68EBE7D3F808B00E
:1055F000BBF800309F42F7D16A6859460AA8FFF706
:1056000027FC6B680E9305F10C030F939BF8023097
:1056100003F0C003802B04BF2B1D0E930AAA85F84C
:105620000CA049462046FFF793FEDBE7059B9B78DD
:1056300013F0300F0FD1069A3F2A0CD8510910AB46
:1056400003EB810102F01F020123934051F8382C33
:10565000134341F8383CE5689DF802201DB104ABC6
:1056600001992046A84704AA9DF802102046FFF79A
:105670006FFE12E051F8225001357FF47DAF013208
:1056800059E7012078E7168891E798457FF43CAF09
:105690009DF802102046FFF71DFE00287FF434AF6E
:1056A00069E770B50C460646154611462046FFF7D9
:1056B000D7FC2A4621463046BDE87040FFF71ABFA6
:1056C000F0B585B00C46CD68694607461646FFF72B
:1056D00027FE68B1E06858B1A37803F03003202BAF
:1056E00032462946684605D1FFF7DBFF019B7B6008
:1056F00005B0F0BDFFF7FEFEF8E72DE977480E464E
:105700006946FFF737FD88B1DDE90023002502F087
:1057100001045FEA530C4FEA320B54EA050308D048
:105720006FEA0B026FEA0C03C6E9002303B0BDE881
:105730007088C6E900BCF9E737B50D4669461446DE
:10574000FFF7DBFF68B12B89082B0CD1DDE90001E5
:10575000C4E90001DDE900238B4206BF824201203B
:10576000002003B030BD042B03D100982060C11786
:10577000F0E7022B04D1BDF90000208000B2F6E76B
:10578000012B04D19DF90000207040B2EFE700200A
:10579000E7E713B504220C460DEB0201FFF772FC9C
:1057A00008B1019B236002B010BD1146FFF7F1BFA5
:1057B00013B508220C466946FFF764FC18B1DDE911
:1057C0000023C4E9002302B010BD1146FFF7F0BF6B
:1057D000831F012B10B5044602D8002001F050FCB5
:1057E000034B1B681BB12046BDE81040184710BD95
:1057F000EC93002038B5104B104C1860104B114939
:10580000E41AE408240444F00300FCF7D3F8002071
:10581000FFF7DEFF0C4801F0FBFB054620B90A4804
:10582000BDE8384001F09AB90246084944F0010049
:10583000FCF7C4F8284638BDEC93002010CA0F00CE
:1058400010CA0F00A4AE0F00D1570F00B7AE0F0063
:105850006CDF70476DDF704772DF704773DF704732
:1058600074DF704775DF704776DF70477ADF704707
:105870007CDF70477DDF70477FDF704786DF7047D2
:105880008FDF704790DF7047A8DF7047AADF70474F
:10589000ADDF7047AEDF7047B0DF7047B1DF7047F4
:1058A000B5DF704762DF704766DF704713DF704710
:1058B0007FB50023CDF80A30ADF80E300A4BADF8B5
:1058C00006109B89ADF8083001238DF80A300DF1E0
:1058D0000603CDE90430054B02A91888FFF7DAFF6B
:1058E00007B05DF804FB00BF5AA400209E590020B9
:1058F00010B5094B094904460948C01AC0080004FC
:10590000224640F00400FCF759F821460548BDE85E
:105910001040FCF70BBD00BF10CA0F000EB40F0003
:1059200028CA0F0094CA0F0070B5204E346814F0D6
:10593000010432D01E4B984236D01E4B1E4D1F4CD8
:105940001F49ED1AED082D0445F004052846FCF723
:1059500031F822884FF6FF739A4220D01949284621
:10596000FCF728F83368208843F0040313213360E0
:10597000FFF77AFF044680B9134EC82446F00106AB
:105980004FF47A40B047013CFAD1FDF74FFE044690
:1059900018B90E492846FCF70DF8204670BD0C4B8F
:1059A0001878FFF75DFFF0E70024F6E790A40020E9
:1059B000FCC90F0010CA0F0028CA0F009E59002012
:1059C0006CAF0F0089AF0F0000B40F0098AF0F004D
:1059D0009C59002030B518228DB00DEB020000213B
:1059E00003F06CFE282308932448254B2549C01A50
:1059F000C0080004012440F004008DF818408DF820
:105A00002D40FBF7D7FF1623ADF806300023CDF865
:105A10000E30CDF81230ADF816301B4B0293022237
:105A2000062109251A7099701A7103215922D9701B
:105A30005A710DF10601FE225819ADF80C505C7038
:105A40009A71FFF717FFB8B9BDF806201D7211193A
:105A5000D971BDF80C301A440C4BADF80C2002A9DA
:105A600006AA1846FFF7F8FE30B91878FFF7F8FED7
:105A700021461878FFF7F2FE0DB030BD28CA0F009E
:105A800010CA0F00F1AE0F006EA400209C59002038
:105A9000F0B50388212B8DB0044600F06A8132D81E
:105AA000122B00F0398107D8102B56D075D8012B56
:105AB00000F0AA810DB0F0BD142B00F03982C0F0C7
:105AC00001811A2B00F045821F2BF3D1B24BB34D4D
:105AD000B349ED1AED082D0445F00400FBF76AFF09
:105AE000B04B04F108011888FFF7BCFE04460028FB
:105AF000E0D00246AC4945F00100FBF75FFF2046CD
:105B0000FEF75AF9D6E7502B5CD013D8232B00F0C0
:105B1000C780C0F01F81242BCCD19F4B9F48628946
:105B2000A249C01AC0080004E38940F00400FBF752
:105B30004FFFBFE7522B00F00C82C0F06B81552B5A
:105B400000F08280562BB5D18379002BB2D1954BD2
:105B500013211888FFF788FE9AE08F4B8F4D9449E8
:105B6000ED1AED082D0445F00400FBF723FF8D4BE3
:105B7000A2881A808F4A12681C460AB101209047F9
:105B80008D492088FFF76EFE0246002892D08B498F
:105B900045F00100FBF712FF8CE7824B4FF6FF72D6
:105BA0001A80874B1B685A0704D4FFF713FF08B10C
:105BB000FEF702F97F4B1B68002B3FF47BAF0220FE
:105BC000984777E77F4FC288BB889A427FF472AFCD
:105BD0007D48724DFCF77CFB6F4BED1AED082D04F0
:105BE000064628B9794945F00200FBF7E3FE61E774
:105BF000F422238A76490092024645F00400FBF71E
:105C0000F1FE228A04F11201304603F04CFD182205
:105C100000210DEB020003F051FD08238DF8183030
:105C20006C4B08936C4B0797CDE9093606A8238A7D
:105C3000ADF82C3000F072FF00283FF43BAF314646
:105C40006148FCF773FB35E7C288F62A24D8D31ED7
:105C50009B0723D0D31F9BB2013B594201F00301A4
:105C600003F0030302F1FF3458BF4B42E31A9CB226
:105C7000494B4A485949C01AC0080004234640F01D
:105C80000400FBF7A5FE474B21461888FFF708FEE6
:105C900000283FF40FAF33E7F724E9E71446E7E7BE
:105CA0003D4B3E484E49C01AC008000440F0040075
:105CB000FBF780FE002206A9A088CDE90622FFF7A7
:105CC000E1FDE5E7344B354C4649364DE41AE4082E
:105CD000240444F004042046FBF76CFE0023ADF8D6
:105CE0001A300223ADF8183006AA04AB42F605219B
:105CF00028880793FFF7CCFD08B1FEF75DF8BDF8E3
:105D0000102039492046FBF759FE00231A46852109
:105D10002888FFF7B1FDBBE71F4B204D3349ED1A33
:105D2000ED082D0445F004052846FBF743FE628983
:105D30002F492846FBF742FE22892E492846FBF7C9
:105D40003DFEA2892C492846FBF738FEE2892B4903
:105D500028461FE7437A827A0F491048401AC00844
:105D6000217A00910004264940F00400FBF73AFE36
:105D7000A0E6094B09482349C01AC008000440F0B6
:105D80000400FBF717FE0CA9002321F8183DA0889A
:105D9000FFF776FD7CE700BF10CA0F0028CA0F008E
:105DA000A6B20F009E590020D5B20F00A3B10F007C
:105DB000B5B00F0094A4002006B40F00BFB00F00D0
:105DC00090A400205AA4002094CA0F00EDB00F0048
:105DD0000CB10F00A95F0F00F1580F002CB10F009C
:105DE00072B10F00E1B10F0009B20F002CB20F0029
:105DF00053B20F0069B20F007FB20F0091B20F00D3
:105E00000AB30F0044B30F005B4B00211888FFF763
:105E10004BFD3DE78379002B3FF44CAE022B7FF422
:105E200049AE564D0289AB899A427FF443AE837BDB
:105E3000012B7FF43FAE00230121CDE906338DF81D
:105E40001E10018AADF820104B4E418AADF8221089
:105E5000022200F114018DF818200991ADF81230DA
:105E6000ADF8102003AB298A3088059304AAFFF708
:105E70000FFD374660B9184602F05CF940B940F2B0
:105E8000FD1306A93088ADF81C30FFF705FD11E6BB
:105E9000002306A93888ADF81C30FFF7FDFC014649
:105EA00000287FF407AE18220DEB020003F006FC79
:105EB000237D334A8DF81830022B0795089224D0A1
:105EC000062B10D0012B10D12E4B1A882E4B1A8086
:105ED000637DD4F816200A93012B0B9205D12B4831
:105EE00001F0CEF801E0637D0A9306A800F016FEEB
:105EF000024600283FF4DEAD2548264B26491B1AF2
:105F0000DB081B0443F0010044E6214B21482349F0
:105F1000C01AC008000440F00400FBF74BFDA27D4E
:105F2000637D43EA0223174A1380174A1380DCE794
:105F3000174B18481A49C01AC008000440F0040062
:105F4000FBF738FD00231A461946A088FFF796FC98
:105F50009EE600231A461946A088FFF79FFC08B169
:105F6000FDF72AFF0B480A4B0E49C01AC00800046F
:105F700040F0040039E600BF9E5900205AA40020DA
:105F8000A95F0F0098A400209AA40020FCC90F006C
:105F900010CA0F0028CA0F007FB30F006DB30F00A7
:105FA000B3B30F00D9B30F0030B50D4687B0044628
:105FB00020B9464940F28710FCF73CF825B943491F
:105FC0004FF4C470FCF736F81122002101A803F049
:105FD00075FB2378082B0BD13D4A3E49138809886D
:105FE000013B9BB2138031B32BBB03231180237081
:105FF000637822788DF805206021012B8DF804103C
:106000008DF8063019D034493448401AC0080004CD
:10601000334940F00200FBF7DBFC63780B2B52D1D5
:1060200000F0BEFA8DF80700002000F0B3FA04215A
:1060300001A8FFF73DFC07B030BD062A1DD0082A95
:1060400001D0032A3FD1D4E90123110A8DF807209A
:106050008DF80810110C120E8DF80A201A0A8DF80E
:106060000B308DF80C201A0C1B0E8DF809108DF8D2
:106070000D208DF80E300B21DAE7E1688DF807105E
:10608000D4E90123080A8DF80800080C090E8DF8E0
:106090000A10110A8DF80B208DF80C10110C120E3D
:1060A0008DF80E201A0A8DF80F308DF810201A0C7A
:1060B0001B0E8DF80D108DF809008DF811208DF84C
:1060C00012300F21B4E70321B2E700BF00AF0F0089
:1060D0009AA4002098A4002010CA0F0028CA0F001C
:1060E00045AF0F002DE9F043804695B020B95049E7
:1060F00040F24F40FBF79EFF4E4B4FF6FF7214A944
:106100001A804FF65963012021F8483D42468DF828
:106110000A00FFF7B9FB0446002840F08580464B93
:1061200004AA03F11006154618685968144603C4FA
:106130000833B3422246F7D108F102012846FFF79F
:10614000B1FB044600286FD101461C220DA803F0C4
:10615000B5FA9DF83430ADF8044043F004038DF8EF
:1061600034300223ADF80C3098F802308DF80E3040
:106170004FF00109C4F3072369F3030369F307131D
:106180008DF80530E3B243EA090369F342038DF861
:106190000630F423CDE90A4401ADADF82C3003AE4E
:1061A00008F1040308AA0DA9B8F800000C94CDE981
:1061B0000865FFF76BFB27460446A8BB01461C2277
:1061C0000DA803F07BFA9DF83430ADF8044043F09D
:1061D00018038DF8343098F802308DF80E30C4F37F
:1061E000072369F3030369F307138DF80530FBB246
:1061F00043EA090369F34203DBB243F010038DF86D
:1062000006301723CDE90A4408AAADF82C300DA9B1
:1062100008F10C03B8F800000C94ADF80C90CDE92F
:106220000865FFF733FB0446204615B0BDE8F08350
:1062300000AF0F009E590020E1AE0F00F0B5524EA6
:10624000336813F0010485B0074640F09B804F4B44
:106250004F4D5049ED1AED082D0445F00405284630
:10626000FBF7A8FB4C4B4D481F60FBF7F3FF029474
:1062700000F0B1F90446002873D1494A494928463B
:10628000FBF79CFB4648FFF711FB0446002868D14A
:1062900045492846FBF78EFBFDF78CF9044600289C
:1062A0005FD102A8FDF752FA0446002859D13F49B0
:1062B0002846FBF77FFB02A90120FDF751FA0446AF
:1062C00000284ED13A492846FBF774FB02A8FDF797
:1062D00017FB0446002844D100F062FE002843D09A
:1062E000344800F051FE336843F002033360112359
:1062F00002A88DF80430FFF7ADFA044688BB9DF87C
:10630000093002A801338DF80930FFF7A1FA0446DD
:1063100038BB33689B072CD5264C2749A3692846F0
:10632000221DFBF755FBA069211D82B201A8FFF7D2
:106330009FFA0446A8B92148FFF798FA044680B9A5
:106340001F48FFF7CFFE044658B9FFF743FB04464A
:1063500038B933681B4943F0010328463360FBF723
:1063600029FB204605B0F0BD17492846FBF722FB64
:10637000BDE716492846FBF71DFB154803F0AEF9AB
:106380001349D2E70024ECE790A4002010CA0F00C4
:1063900028CA0F00B9AF0F0094A4002094CA0F00C0
:1063A00000100F00D8AF0F00F8AF0F000DB00F00B6
:1063B00024B00F00F093002056B00F0006B40F0079
:1063C0005AA4002096B00F003CB00F0077B00F0029
:1063D000B1AF0F0030B51A490B6885B004460BB158
:1063E000013B0B601748184A63682578801AC0087B
:1063F000000440F004008BB90B68144A1449009360
:10640000012D18BF0A46A3681249FBF7EBFA63692E
:106410009BB1E06805B0BDE8304018470A680292B9
:1064200022690192A26800920949084A012D18BF09
:106430000A460949FBF7F0FAE9E705B030BD00BFAD
:106440009CA4002030CA0F0010CA0F002CB40F000B
:1064500032B40F0038B40F005EB40F0008B50C4A18
:106460000C4B9B1ADB081B0443F0040350B10A4990
:106470001846FBF79FFA094909480022BDE8084081
:10648000FCF78AB907491846FBF794FA0649F3E77F
:1064900010CA0F0030CA0F0004B50F003C9A0F005D
:1064A000805B00202AB50F00109A0F002DE9F743FA
:1064B0009846174C174BDFF86C90E41AE408D9F8AB
:1064C000003024040546CDE900230E460B4617464E
:1064D0001149024644F00400FBF790FA2946CDF832
:1064E00000803B4632460D48FCF76EF9054640B940
:1064F000D9F800300133C9F80030284603B0BDE8B0
:10650000F0830246064944F00200FBF757FAF4E72D
:1065100030CA0F0010CA0F0052B50F00805B002078
:1065200095B50F009CA400202DE9F341134B144CAA
:10653000144EE41AE40833680093240405460B461D
:106540000F4690461049024644F00400FBF74AFA11
:10655000294643463A460D48FCF786F9054630B9C8
:10656000336801333360284602B0BDE8F08102464B
:10657000074944F00200FBF721FAF4E710CA0F00C4
:1065800030CA0F009CA400209AB40F00805B00204A
:10659000D7B40F00014B18700B207047A0A4002047
:1065A000024B002218781A70704700BFA0A4002088
:1065B00018DF704730B585B0054610220C46684696
:1065C000002103F07BF8A408684601950294FFF7C8
:1065D000EFFF05B030BD1FB5002304A8CDE901339E
:1065E0000393022340F8103DFFF7E2FF05B05DF88A
:1065F00004FB4FF000534FF480521A6000207047A4
:10660000084B09480949C01A10B5C008000440F0F9
:106610000400FBF7CFF9064B06201B68BDE81040CD
:10662000184700BF10CA0F0038CA0F00B0BA0F00D9
:10663000ACA400200A2803D90B38C0B2FFF7AABFC8
:106640007047000070B5054686B00020FCF748F999
:10665000014690B1244A18212846FBF7D9FB02468F
:1066600048B12248224B23491B1ADB081B0443F084
:106670000100FBF7A3F906B070BD1822684603F0CD
:106680001DF804238DF80030194C184B1A4EE41AEB
:106690001A4B1A6D3368E40824049A4244F0040447
:1066A0001AD117492046FBF785F9164B316818684F
:1066B00001F082FC8DF80100FFF7BCFFD5E9011362
:1066C0008DF80100684698470F4800F001FC9DF8DE
:1066D00001200E492046CCE701238DF801306846A1
:1066E000D5E901139847F2E745660F0010CA0F007D
:1066F00038CA0F0030BA0F00A4A4002048B0002010
:1067000059BA0F00A8A4002001660F0088BA0F0034
:106710002DE9F041836888B0044623B9A04940F2CE
:10672000CF20FBF787FC162200210DF10A0002F0B2
:10673000C5FF9C4E9C4922788DF80820761AF608F1
:10674000012336040C2A8DF8093046F0040500F2C6
:10675000C881934013F4AD7F24D1D90407D45B07DB
:1067600040F1BF8191492846FBF724F907E028460C
:106770008F49FBF71FF98F4B07201B6898479DF83F
:1067800009208D492846FBF719F9D4E9011302A81D
:1067900098479DF80930012B00F08D81854B05202D
:1067A0001B6887E1062A854F01D0012A01D12369A0
:1067B0003B703B78012B09D0022B75D0804946F005
:1067C0000100FBF7F7F800233B70CBE0013A072A02
:1067D00064D8DFE802F004631443635B631E794905
:1067E0002846FBF7E7F8734B03201B68984760695E
:1067F00001F0B6F8FFF71EFF8DF80900BFE77249F8
:106800002846FBF7D7F8714BDA6B1B6C03920493A5
:10681000B5E7236923B9624940F21310FBF70AFC7C
:10682000A38A23B95E494FF48A70FBF703FC6849D9
:106830002846FBF7BFF8A18A206901F0A9F8FFF705
:10684000F9FE624B8DF80900DA6B1B6C0493E36868
:106850000392002B93D02069984790E75D49284622
:10686000FBF7A8F85C495D4801F010F9FFF7E2FE7C
:1068700001288DF8090082D1002000F029FB08B919
:10688000574970E70A238DF8093078E755492846BB
:10689000FBF790F84FF400730593B4E740494FF4C9
:1068A000BC70FBF7C7FB6AE7013A072A00F21581C3
:1068B000DFE812F008001301D500E4001301040121
:1068C0001301630048492846FBF774F801F090F87B
:1068D00030B9464946F00100FBF76CF80823D2E7CF
:1068E000626932B9424946F00100FBF763F80323BD
:1068F000C9E7C2F30B0343B1344B37495B6D0968F9
:1069000013448B4201D03B49EDE7B2F5805F06D9D5
:10691000394946F00100FBF74DF80423B3E72B4F4C
:106920002D497B6D0968D018884206D9009146F040
:1069300001003249FBF756F8D0E77A64FA6CBA6482
:106940003B65264A3B636169106801F6FF710022CE
:10695000090B1844FFF7E8FD30B1294946F0010062
:10696000FBF728F805238EE7BB6C00933B6D7A6C30
:1069700024492846FBF736F801E723492846FBF768
:1069800019F801F035F80028A8D0104FA18AD7E9EE
:1069900014329B1A7A6C0B44934239D91B49A2E7F3
:1069A000ECB50F0038CA0F0010CA0F0035B60F0043
:1069B00059B60F00ACA4002088BA0F00A0590020DF
:1069C000F1B90F0071B60F009BB60F0048B0002060
:1069D000BFB60F00E8B60F00A4A40020A8A40020B2
:1069E00013B70F0038B70F0062B70F0089B70F0059
:1069F000BEB70F00D7B70F00F8B70F001CB80F00D5
:106A00008DB80F00A4B80F00DFB80F0005B90F0054
:106A1000374A3B6B1268206903EB020807F1480212
:106A2000FBF7ECFAE368064623B932494FF4F870F5
:106A3000FBF700FBE368A28A21694046FFF736FDB9
:106A400008B1E36807E7A28A3B6B049613443B63F3
:106A5000A38A3A6DBE6413443B6503938FE6264ECA
:106A600026492846FAF7A6FFB36C326D244928461A
:106A7000FAF7AEFFB36C0493336DEEE72846214975
:106A8000FAF798FF1C48D0E91473426CFB1A934242
:106A900005D01D4946F00100FAF79AFF1EE7836C06
:106AA000C3640021416447652046FFF7CBFD174BC7
:106AB0001B680420984708B0BDE8F08114492846B7
:106AC000FAF778FF0C4B4FF480519A6C1B6D0591CF
:106AD0000091049203930F494BE7064940F2972037
