:020000022000DC
:1070000000000420B5720200DD720200DF7202008F
:10701000E1720200E3720200E5720200000000006B
:10702000000000000000000000000000E772020005
:10703000E972020000000000EB720200ED72020033
:1070400011A70200EF720200D9AB0200EF7202003A
:10705000EF720200EF72020035AA0200EF72020026
:10706000EF720200EF720200EF720200EF72020094
:10707000EF720200EF720200EF720200EF72020084
:10708000EF7202006D880200EF720200EF720200E0
:10709000EF720200EF720200CD0E0300EF720200E9
:1070A000EF720200EF720200EF720200EF72020054
:1070B000EF720200EF72020000000000000000000A
:1070C000EF720200EF720200EF720200EF72020034
:1070D000EF720200EF720200EF720200EF72020024
:1070E000EF720200EF720200EF7202000000000077
:1070F00000000000EF72020000000000EF720200CA
:10710000000000000000000000000000000000007F
:10711000000000000000000000000000000000006F
:10712000000000000000000000000000000000005F
:10713000000000000000000000000000000000004F
:10714000000000000000000000000000000000003F
:10715000000000000000000000000000000000002F
:10716000000000000000000000000000000000001F
:10717000000000000000000000000000000000000F
:1071800000000000000000000000000000000000FF
:1071900000000000000000000000000000000000EF
:1071A00000000000000000000000000000000000DF
:1071B00000000000000000000000000000000000CF
:1071C00000000000000000000000000000000000BF
:1071D00000000000000000000000000000000000AF
:1071E000000000000000000000000000000000009F
:1071F000000000000000000000000000000000008F
:1072000010B5054C237833B9044B13B10448AFF3E0
:1072100000800123237010BD48810220000000007F
:107220005835030008B5034B1BB103490348AFF3BE
:10723000008008BD000000004C810220583503008A
:10724000154B002B08BF134B9D46A3F5803A002138
:107250008B460F461348144A121A09F0D1FF0F4B00
:10726000002B00D098470E4B002B00D098470020F1
:10727000002104000D000D48002802D00C48AFF397
:10728000008009F07FFF2000290004F03FFF09F093
:1072900065FF00BF0000080000000420000000009F
:1072A00000000000488102205C9C022000000000D9
:1072B000000000000649074A074B9B1A03DD043B08
:1072C000C858D050FBDC00F0D1FBFFF7B9FF00003D
:1072D000E83603000080022048810220FEE7FEE736
:1072E000FEE7FEE7FEE7FEE7FEE7FEE7FEE7FEE776
:1072F0007047037813F0040216D003F00303012B48
:1073000003D0022B09D0012070470A68008802329E
:10731000C0F3831002440A60F5E70B684288023329
:1073200003EB92130B60EEE7104670472DE9F04F28
:1073300089B00546861C08A8484C019200230F46D8
:1073400000F8113D01F01CF923683B60D4E90123EA
:107350001344226801339B1A04F21C4704F5836A24
:1073600004F21448B3421AD3019A0023002A6DD0C4
:10737000012262F3010343F0040365F389132168DA
:10738000A2689DF80F000A4003320E4444F82230F0
:10739000266001F019F9012009B0BDE8F08F012144
:1073A000384602F017FB504602F02DFB404602F033
:1073B0002AFB0DF120096068D4F808B049F8100DD7
:1073C00000EA0B00033004EB80004946FFF791FF11
:1073D000049BB0B90BEA030204EB8202D168059169
:1073E0009A1C013303EA0B0B04EB8B0C01F0030333
:1073F000012B0492DCF80CB020D0022B04D0834681
:107400000BE00BEA0300DDE7BDF816309B09033300
:107410004FEA1B4B02EB93030493404602F0F6FA4B
:1074200008B1049B63605946384602F0D3FAD4E9A8
:1074300001231344226801339B1A93E7BDF81430EB
:10744000C3F383134FEA1B4B1344E5E7022262F3B5
:10745000010343F0040365F39F5390E73482022055
:107460000B4B0C48FF2210B59A600022C3F8182479
:10747000C3E90022C3F8142483F8202402F0B7FEE5
:10748000044610B9044802F0A7FF204610BD00BF13
:1074900034820220C83603002C1E0300034BD3E9BC
:1074A0000030C31A58425841704700BF348202204E
:1074B0002DE9F04387B0FFF7F1FF0646002840F0C2
:1074C000FC807F4DC5F81804BFF34F8F6868AC6827
:1074D00006AF47F8100D2040033005EB8000394619
:1074E000FFF707FF029B18B1D5F81824002A5FD0D8
:1074F00004EA0302991C013305EB8202234005EBE9
:107500008303D268DB68049302F00303022B039227
:10751000029162D1BDF80E306A484FEA9318B8F173
:10752000500FC14628BF4FF0500969F38F1309F17E
:107530000801ADF80E3002F072FE0746002800F098
:10754000A78002F09BFE03A900230822384602F020
:10755000A8FE029924EA01060136B600B14535D9E4
:107560005FFA89F97EB3F6B2A9EB0609214003312F
:107570005FFA89F4B146544E05EB810108234A466F
:10758000384602F08EFE36B109F108032246314634
:10759000384602F086FE029B08F1030803EB9803CD
:1075A0000293D5F81834002B4BD1D5F810445BE08A
:1075B0002A689A4204D86A60304607B0BDE8F08372
:1075C00004EA030088E740493446D7E72140033105
:1075D00008234A4605EB8101DAE7012B58D1BDF8B3
:1075E0000C303848C3F38311062928BF062161F304
:1075F000891302318900ADF80C3002F010FE074605
:10760000002845D002F03AFE0023082203A938469C
:1076100002F047FE0026BDF80C20C2F38312B31C13
:1076200096424FEA8303BCD202994A1C214003319F
:10763000029205EB81010422384602F032FE013647
:10764000E9E7384602F01EFEFFF728FF80F0010050
:10765000C6B2B1E7E3685B7923B1236839461B689A
:1076600020469847E3681C68002CF3D1384602F0A6
:1076700009FE06A800F8114D00F082FFD5F8183475
:107680000BB9029B6B609DF8070000F09DFFDBE7E4
:10769000D5F8104454B90D4B0D480E49C01AC00816
:1076A000000440F0020000F06FF8CDE723682046A8
:1076B0009B689847E3681C68ECE700267CE700BFFE
:1076C00034820220C836030040820220C8350300FD
:1076D000F0350300381E03002DE9F74F284C804693
:1076E0000F46924601A9012218469B46D4F80890FD
:1076F000FFF71CFE88B3019D0026A91C5E4506EB22
:10770000010234D100211F4802F023F980F3100058
:107710006A1C02EA090204EB8202000405EA09037A
:10772000033340EA1840D06014F8232068F3C50200
:1077300004F8232034F8232066F3891224F8232048
:1077400054F82320012167F39F2244F8232061F39A
:1077500001026FF3820204F8232094F820341BB155
:10776000FFF7A6FE0028FBD103B0BDE8F08F09EAC1
:10777000020204EB82025AF82630D3600136BDE7DC
:10778000348202205086022000231A46FFF7A4BF4D
:1077900013B502AC012344F8042D2246FFF79CFFE9
:1077A00002B010BD07B5CDE9002302236A46FFF7FA
:1077B00093FF03B05DF804FB1FB5CDE90123069BE1
:1077C000039301AA0323FFF787FF05B05DF804FBCD
:1077D0002DE9F3478046304CD01C8A46174601A954
:1077E00000228008A568FFF7A1FD002840D0DDF841
:1077F0000490A66809F10200019001362840361A6B
:10780000B6000330B74204EB80003BD83A465146FD
:1078100009F0EBFC0021214802F09BF880F31000F6
:1078200009F101032B4004EB83034FEA184242EABB
:107830000040D86005EA0903033304EB830214F81F
:10784000231068F3C50104F8231034F823106FF3F4
:107850008F1124F82310518867F38F11518014F889
:107860002320022161F301026FF3820204F8232036
:1078700094F820341BB1FFF71BFE0028FBD102B0A7
:10788000BDE8F0873246514609F0AFFCBA1B0AEB5F
:10789000060104F10C00BBE734820220508602206E
:1078A00038B5094A0123D2F8104482F820341D4625
:1078B00004B938BDE3685D71236820465B6898476A
:1078C000E3681C68F4E700BF34820220074B1B5CAE
:1078D0001F2B8ABF064A4FF0A04203F01F03D2F8C5
:1078E0000405D840C04300F0010070475D1E03004E
:1078F00000030050074B1B5C1F2B86BF03F01F03C8
:1079000005494FF0A041012202FA03F3C1F80C35FA
:10791000704700BF5D1E030000030050074B1B5C57
:107920001F2B86BF03F01F0305494FF0A041012222
:1079300002FA03F3C1F80835704700BF5D1E03006B
:107940000003005008B50020FFF7E8FF0120FFF713
:10795000E5FF0220FFF7E2FF0320BDE80840FFF744
:10796000DDBF08B50020FFF7C5FF0120FFF7C2FF0C
:107970000220FFF7BFFF0320BDE80840FFF7BABFB2
:107980000A4B185C1F288ABF094B4FF0A04300F038
:107990001F00D3F804250121814021EA02000A409A
:1079A000C3F80805C3F80C25704700BF5D1E03002F
:1079B00000030050074B1B5C1F2B8ABF064A4FF089
:1079C000A04203F01F03D2F81005D840C04300F0D6
:1079D00001007047591E0300000300500B2809D016
:1079E0000C2809D0182809D019280CBF03204FF003
:1079F000FF30704700207047012070470220704719
:107A0000014B185C704700BF591E0300C20710B538
:107A100004460CD54FF0A0430322C3F83427C3F823
:107A20003827C3F83C27C3F84027FFF78BFFA3078D
:107A30000AD54FF0A0430C22C3F82C27C3F83027F7
:107A4000C3F86027C3F8642710BD0000054B1B680E
:107A5000082B01BF044B1868B0FA80F0400918BF2A
:107A600000207047300100103401001008B54FF0BD
:107A700080430022C3F80C21C3F81021C3F8382535
:107A80004FF0805203F54043D2F80414C3F8201598
:107A9000D2F80814C3F82415D2F80C14C3F828152A
:107AA000D2F81014C3F82C15D2F81414C3F83015FA
:107AB000D2F81814C3F83415D2F81C14C3F84015C2
:107AC000D2F82014C3F84415D2F82414C3F848158A
:107AD000D2F82814C3F84C15D2F82C14C3F850155A
:107AE000D2F83014C3F85415D2F83414C3F8601522
:107AF000D2F83814C3F86415D2F83C14C3F86815EA
:107B0000D2F84014C3F86C15D2F84424C3F8702599
:107B1000FFF79CFF10B1384B384A1A60FFF796FF09
:107B200018B1374BFB22C3F81825FFF78FFF48B178
:107B30003449354B0A681B6822F00F0203F00F032B
:107B400013430B60FFF782FF18B1304B4FF4007204
:107B50001A604FF08043D3F80024D20744BF6FF07F
:107B60000102C3F800242A4AD2F8883043F4700393
:107B7000C2F88830BFF34F8FBFF36F8F4FF01023E1
:107B8000D3F80022002A03DBD3F80432002B2FDACB
:107B9000204B0122C3F80425D3F80024002AFBD08F
:107BA0004FF010221221C2F80012D3F80024002A4C
:107BB000FBD04FF010231222C3F80422154B1A46B3
:107BC000D3F800140029FBD00021C3F80415D2F823
:107BD0000034002BFBD0BFF34F8F0D490E4BCA680A
:107BE00002F4E0621343CB60BFF34F8F00BFFDE7A9
:107BF0000A4B0B4A1A6008BD8C56004048810300AE
:107C000000F00040E40E0040580200104096024090
:107C100000ED00E000E001400400FA0500800220D1
:107C20000090D003C30710B507D4F0234008054ADD
:107C3000145C23401943115410BD0901C9B20F232C
:107C4000F4E700BF2087022030B5094B1C78094BB0
:107C5000196800239C4202DC0022104630BD11F856
:107C60003350854201EBC302F7D00133F2E700BF86
:107C7000F08602204087022070B504460D46FFF7CB
:107C8000E3FF30B1436823B129462046BDE8704088
:107C9000184770BD034B044819680022490800F0DA
:107CA0006CBA00BFF4860220F886022010B5C0B27C
:107CB000FFF7CAFF0446007802F0ACFE63785A1E54
:107CC00053425341834208D1044BD3E90023134369
:107CD00003D1BDE81040FFF7DDBF10BD18870220BB
:107CE0002DE9F348394A43080446D35CC2074CBF28
:107CF0001B0903F00F030D46042B39D8DFE803F00E
:107D00000328303D410099B30121FFF78BFF02A802
:107D1000002600F8016D00F033FC2D4D0121A4F187
:107D20002007C4F1200001FA07FC21FA00F04CEA18
:107D3000000C01FA04FBD5E900014BEA00024CEA11
:107D40000103C5E900239DF8070000F03DFC0FE0AA
:107D5000002914BF022100212046FFF763FF07E03E
:107D600049B10321FFF75EFF01212046FFF784FFA1
:107D700002B0BDE8F0880121EEE70029F8D1042126
:107D8000EAE709B10321E7E7FFF74CFF2946204660
:107D9000FFF772FF02A80E4E00F8015D00F0F0FB45
:107DA000A4F120070121C4F1200001FA07FC21FA07
:107DB00000F04CEA000C01FA04FBD6E9000120EACD
:107DC0000B0221EA0C03C6E90023BCE7208702204E
:107DD000188702202DE9F041124E134F002433780A
:107DE000A34208DC114BD3E90023134318D0BDE8AC
:107DF000F041FFF74FBF3D6805EBC40815F83400AC
:107E000002F008FE98F801104B1E594259410A1A17
:107E1000514215F834005141FFF762FF0134DEE7AB
:107E2000BDE8F081F08602204087022018870220FA
:107E3000092AF7B505460C4616463FD902F010FD53
:107E4000D8B11F4B1F481D601F4B204F1C70204B8B
:107E5000002120221E6009F0D3F91E4B00200021D2
:107E6000C3E90001013CE4B20326FF2C0BD11A4AFE
:107E70001A48002100F076F903E002F0BBFC00286C
:107E8000DFD003B0F0BD9DF806308DF8046020B25D
:107E900003F0FC0305EBC0026FF382038DF806309C
:107EA000937815F830008DF805303A4601A902F0B4
:107EB000E1FC013CE4B20028D7D0E2E70720E0E78C
:107EC0004087022020870220F0860220AD7C02003D
:107ED000F486022018870220D57D0200641E03006C
:107EE00070B5084D084E00242B789C4201D3002029
:107EF00070BD3368012113F8340002F041FD0134F4
:107F0000F2E700BFF0860220408702201FB5002163
:107F1000039001AA44F20100CDE9011100F004F838
:107F200005B05DF804FB000010B572B6FFF7B8FCB1
:107F3000FFF7BEFA0028FBD1104B114C1149E41A8F
:107F4000E408240444F00100FFF71EFC0E4B1B68FC
:107F5000DB0700D500BE0D4944F00200FFF714FC1A
:107F6000BFF34F8F0A490B4BCA6802F4E062134318
:107F7000CB60BFF34F8F00BFFDE700BFC8350300E4
:107F8000F0350300731E0300F0ED00E07F1E0300D8
:107F900000ED00E00400FA0549B152B1531E1A4049
:107FA00007D1826001608380C260104670470E2056
:107FB00070470920704710B58468C2688388121B17
:107FC000934208D3C26813400268D154C368013396
:107FD000C360002010BD0420FCE78268C3689A4299
:107FE0000AD08268838813400268D35C0B70836870
:107FF000013383600020704705207047D0E90223D9
:10800000D1E90201994208BF90422CBF0120002013
:10801000704700002DE900480C4800F013FC0C4BA1
:10802000D3E9002312EB000B43F1000C094BD3E919
:1080300000239C4508BF93455846614603D21BF177
:1080400080704CF10001BDE8008800BF0480022070
:1080500048870220C087022037B505460C460A48EB
:1080600001A901F0AAFB60B10570446001A90648AE
:1080700001F0CDFB18B1054800F0E8FB002003B08B
:1080800030BD0420FBE700BFAC8702200480022043
:108090002DE93048184B1B7804461BB900252846AB
:1080A000BDE830880028F9D0037F03F0FF05002BDE
:1080B000F4D0FFF7AFFFD4E90223994208BF904202
:1080C00015D3236903B92377D4E90530984721698B
:1080D0000029E3D0237F03F0FF05002BDED0D4E995
:1080E000022312EB010B43F1000CC4E902BC214650
:1080F000024802F094F9D2E750870220901E030054
:1081000013B5114B114918680190082358221048E3
:1081100001F01EFB044698B90E4A0F4801A900F071
:1081200077FA044660B901210B4800F06BFB01238C
:108130000A4A0948194600F0C9FA094B01221A7087
:10814000204602B010BD00BF8C1E030054870220E1
:10815000AC870220C581020004800220FFFF7F005F
:10816000508702203AB103685A614A1E5142514178
:108170001961002070470720704738B5037F044617
:108180000D4683B98261FFF745FF421941F10003B3
:10819000C4E90223236903B1256121460020BDE81B
:1081A0003840FFF759BF002038BD00230146037750
:1081B0000120FFF751BF0000014800F043BB00BFA2
:1081C000048002202DE9F74F064600F024FB40B161
:1081D0005949D1E9002312F1807443F10005C1E946
:1081E00000450021304600F026FB38B1534C23688F
:1081F00023B12068FFF74CFF0023236001213046A4
:1082000000F019FB20B1FFF705FF4D4BC3E900015A
:1082100001A94C48494D4C4C4C4F01F008FB00283B
:1082200044D1DFF824A1454CDFF828B1504602F0D4
:108230000CF92368002875D07BB12368D0E90201CE
:10824000D3E90223994208BF90422CD223681B7FB6
:108250001BB12168504602F0E2F8504602F0EFF8F8
:10826000D0E902890746FFF7D5FEB8EB000869EBB5
:10827000010940464B46012873F1000345DB344DAC
:10828000A84540D9FFF798FF42194FF49603002103
:10829000584600F03FFA00283FD1236813B9304612
:1082A00000F00CFA276003B0BDE8F08F0378012BD3
:1082B0001ED00BD3022B12D14FF00008204602F043
:1082C000BEF8002834D080F81C80F7E743681A7F96
:1082D0002AB901221A774168204602F0A0F801A9C4
:1082E000184801F0CFFA01A9164801F0A0FA96E764
:1082F00041682B68994202D100232B60EFE72046AA
:1083000002F0A6F8EBE7BA68BFE70021584600F094
:1083100087FA3846FFF7BCFE01E00D28F9D00023AC
:10832000236083E7002BBED1304600F0CBF9BAE7DB
:1083300001233B70D3E700BF48870220C887022093
:10834000C0870220AC870220901E030050870220C5
:10835000FFFFB400048002200648074A037807495B
:10836000D35C012213B1043003F0F2B80C3002F0F8
:1083700085BE00BF0C800220549C0220F48702209E
:108380000648074A03780749D35C012213B1043039
:1083900003F086B80C3002F01BBE00BF0C80022038
:1083A000549C0220F587022037B50578012D04D0B2
:1083B00037D3022D2AD003B030BD037A13B9FFF7AB
:1083C000CBFFF8E743681E4C19782046FFF7F3FD12
:1083D00080B11C4B01908DF800501B68684698478F
:1083E000A168E368A2885B1A9A42E8D2164B012280
:1083F0001A70E0E7A268E3689A42F1D002AB114A32
:1084000003F8080D126818469047E9E7C36801931E
:108410008DF80050FFF7A0FF0A4B1B68684698478D
:10842000C9E70A490A48FFF7D8FD10B9FFF7A8FFC6
:10843000C1E702A8032300F8083D024B1B68EEE7E2
:10844000D0870220CC870220E0870220F587022017
:10845000E4870220F0B51F46234B89B006461A6018
:108460000C4600293DD08A8820480968FFF794FD12
:10847000002834D1A289A1681D48FFF78DFD00288E
:108480002DD11C4D0FCD6C460FC495E80F0084E82C
:108490000F0073690693337C174A18488DF81C70D7
:1084A000003318BF01238DF81430737C002B14BFE8
:1084B0000E2300238DF81530F3680293B3680393FD
:1084C0003368019369467368009302F0B7F830B9D6
:1084D0000B4B18703368013301D0FFF73DFF09B033
:1084E000F0BD0720FBE700BFCC870220D087022029
:1084F000E4870220A81E0300A98302000C8002204A
:10850000E087022070B5084C014608482678FFF73E
:1085100064FD054636B100232370FFF71DFF08B147
:10852000FFF7F4FC284670BDE0870220D0870220C8
:1085300010B501460E48FFF73EFD0446A8B90D48A8
:108540000D4A0378D35C63B1043002F0F5FF60B9E3
:108550000A490748FFF741FD38B9BDE81040FFF769
:108560000FBF0C3002F07EFDF1E7204610BD00BFCA
:10857000E48702200C800220549C0220F587022010
:1085800070B5EFF3108672B60C4A946801239CB95B
:1085900093600B4B0B4DD3F8801029401160C3F84A
:1085A0008050D3F8841051604FF0FF32C3F884201C
:1085B000047006B962B670BD0370FAE7489C0220E9
:1085C00000E100E0FC06FFBD10B5084B9A685AB107
:1085D00050B9EFF3108172B6054A1C6814605C68EC
:1085E0005460986001B962B610BD00BF489C02207B
:1085F00000E100E0435882B03BB1002343504358B0
:108600000193019B012002B070471846FBE7000070
:1086100070B5224C437944F82320214C214A121B87
:10862000214C04EBC303D2081B79120433B142F08E
:1086300002001E49FFF7A8F8082070BD03680D88E6
:10864000C3F8085590F904308978002B4FEA41119E
:10865000AFBF03F1604303F00F03154DC9B2A9BFCB
:1086600003F56143E954C9B283F8001390F904306B
:10867000104D01215E0903F01F0301FA03F345F8D1
:108680002630437904EBC30544F83300297142F0E6
:1086900003000949FFF778F80020CEE700880220A0
:1086A000C835030000360300F8870220D61E0300F9
:1086B00014ED00E000E100E0F81E03000368012271
:1086C0001A607047036801225A607047F7B5056861
:1086D0004FF480348C40C5F808430568C5F848431A
:1086E0008D0005F5A0750668ADB200277751755964
:1086F0000195019D056801F5A87122F07F4245F8BA
:1087000021200268C2F8444313B10368C3F804434C
:1087100003B0F0BD2DE9F34799464FF48038036864
:1087200008FA01F8C3F848830368C3F8088322F005
:108730007F4502688E000F46D2F80415324406F5D4
:10874000A076D2F84035C2F84015B6B202684FF0B4
:10875000000A42F806A05B1A9259009223F07F4368
:10876000012B0446009A0BD1254B4FF4806043F057
:1087700001039847236843F806A09B590193019B86
:108780002368D3F80465C3F84483AB1B23F07F430D
:10879000012B07F5A877236819D1013543F8275035
:1087A000174B4FF4806043F0010398472368D3F8D8
:1087B00004359E4209D12368C3F84483236800200E
:1087C000C3F8048302B0BDE8F0870D20FAE743F850
:1087D00027502068D0F804156A1A013AC9F1FF132E
:1087E00022F07F4203F57F439342EED3002AE2D189
:1087F000013540F827502368D3F804359942D9E76A
:10880000D01E030002680223C2F8443311B102688B
:10881000C2F8043370474FF482710068FFF7EABE74
:108820004FF4803303FA01F10368C3F84813036877
:10883000C3F808137047890001F5A07189B2006878
:10884000FFF7D8BE0368D3F80405704790F90430E9
:1088500001215A0903F01F0301FA03F340320249D0
:1088600041F82230704700BF00E100E0024B034AAC
:108870001B681068184700BF00880220F887022094
:1088800070B5064E0546002456F824300BB1284634
:1088900098470134042CF7D170BD00BF1088022026
:1088A000033080B240F2FE33984230B51FD8134BEC
:1088B0001A783AB91C895D892C440444A4B2B4F5F1
:1088C000806F0AD91A7DAAB99A8BDC8B22440244A4
:1088D00092B2B2F5806F0DD801220A80144614229C
:1088E00002FB04335A8910445881002030BD48F2FD
:1088F0000860FBE748F20660F8E700BF4488022002
:108900000B4A0C4B5188142000FB0131CB6833B962
:108910000420496810700122074801F00BBA0523B2
:108920000649137002238B80012200230968F3E7B4
:1089300028880220448802201C8102200C89022001
:1089400007B5002305490093054A0968054808232F
:1089500001F05AF903B05DF804FB00BF0C89022056
:10896000181F03001C81022007B500230093014655
:108970000823034A034801F047F903B05DF804FBFC
:10898000101F03001C81022013B500230C46009326
:1089900001460423074A084801F036F938B9074B65
:1089A000142202FB04340123237402B010BD48F2E8
:1089B0000D60FAE70C1F03001C810220448802208E
:1089C00037B50A480A4B42689C88196853880325C2
:1089D000033305709BB2002000909B0001EB8401E3
:1089E000044801F011F903B030BD00BF288802200F
:1089F0000C8902201C81022010B50146044800F0B9
:108A0000DCFE1C220446002108F0FAFB204610BDC3
:108A1000F88802204388033300EB830399420BD389
:108A200082884FF6FF739A4208D0038833B180687A
:108A3000431C58425841704702207047012070473C
:108A40002DE9F8430223DFF860800B800D461746BE
:108A500000F5805600F108044FF00109B4420FD22E
:108A6000236801330CD031462046FFF7D3FF48B1CD
:108A70000FB187F8009002280BD14FF480632B8050
:108A8000BDE8F883A368D8F80020934201D9C8F85C
:108A900000302B886288033313442B8063880333B0
:108AA00004EB8304DAE700BF3C88022070B5144A67
:108AB000142303FB00200B6844680D4604F5805620
:108AC0009BB15C88033403EB8404B4420BD223686B
:108AD000013308D031462046FFF79CFF012809D01A
:108AE00005D30228F1D1002003E00834EDE72C6023
:108AF000012070BD6388033304EB8304E5E700BF06
:108B00004488022073B5436805460C4673B3254A72
:108B1000D1688B422AD31269934227D813F00302FB
:108B200024D121490089098988421FD12868996880
:108B300088421BD11D494868834203D900F5805003
:108B400083420ED38A6993420DD902F58052934233
:108B500009D2012323800020B0FA80F0400902B03E
:108B600070BD1346F6E748F20960F5E7002323805D
:108B70001E462388012B01D90020F0E7019601A9A8
:108B80002088FFF793FF18B9238801332380F0E78B
:108B9000019B2A6899689142F1D16B60024B1B8955
:108BA0002B81DCE71C8102202888022044880220D7
:108BB0002DE9F8431C46204B1B7806460F46154608
:108BC000002B33D0002A34D0002C32D0DFF8708054
:108BD0004FF01409A388012B02D948F209601BE069
:108BE00009FB03F318F80330C3B1A3880133A38052
:108BF000F0E723681EB19988328891420ED11FB1E7
:108C000019883A88914209D19B682B6023686B6070
:108C10000A4B1B892B810020BDE8F8832146A088E0
:108C2000FFF744FF0028E4D12060DEE748F201604E
:108C3000F2E748F20460EFE720880220288802204B
:108C40004488022008B5074B191D5888FFF72EFFEE
:108C500018B1BDE80840FFF7B3BEBDE80840FFF714
:108C60004FBE00BF288802202DE9F04FA34FDFF848
:108C7000B09289B00646B8463B6823B94946A04839
:108C800000F0D5FD3860D8F8005029784B1E052B30
:108C900000F21781DFE813F00600780078000B017E
:108CA0000B0165012EB1974B00225A604FF4064428
:108CB00025E02B79032B1DD8DFE803F01502434E86
:108CC00091490B78022B084632D00B7D022B4FF0D6
:108CD00001032FD114225343C2180020C8545068F6
:108CE000FFF742FE03E001232B71FFF729FE002866
:108CF00000F0D780834B00225A6048F20D641422A2
:108D0000002103A808F07CFA41F61D539C4208BFDD
:108D10000024D8F8003004941A78023A042A00F2A9
:108D2000D981DFE812F0BA01C601E901F101F801C9
:108D30000023CFE7734A13700023536041F61D549C
:108D4000DDE772497248002302222B718A800122DA
:108D5000096800F0EFFFCAE76C4C00262E7120680E
:108D6000694DFFF701FE6B4BD4F800C05A881423FD
:108D70005343EA18EE5451682160A188C2F804C038
:108D800011810222A280B2E7B5F814A0AA7DDFF813
:108D900078B11423AEB1022A06D903FB0AB3EA88DC
:108DA000198903320A441A81142303FB0ABAEB8897
:108DB000BAF80A20C3F57F43FD331344AAF80A30FA
:108DC00074E703FB0AB318895C6804EB8004062A85
:108DD00005D8DFE802F0284F37451E5B690048F2EE
:108DE0000E64AB7D022B07D9142202FB0AB2EB887A
:108DF000118903330B441381142303FB0ABAEB8854
:108E0000BAF80A20C3F57F43FD331344AAF80A30A9
:108E100075E74148414900234360AB690360FFF7B0
:108E200071FE00285CD00223AB750023009304235D
:108E3000EA182146364800F0E7FE002831D048F213
:108E40000D64CEE72B69002B0CBF01230323AB7508
:108E50000023009305F10C02042304F10801E9E763
:108E60000123AB750022EB8800929B002A6904F174
:108E70000C01DFE7032914BF06230523AB7500238C
:108E80000093042305F10802E118D3E70623AB752C
:108E9000224B1988204B5868FFF776FD04460028BE
:108EA0009FD109B0BDE8F08F41F61D5499E7002E1F
:108EB0007FF4FCAE2B79012B34D005D3022B3FF489
:108EC0003DAF48F20E641AE702232B71CDE9046628
:108ED0000DF10A01EB68039303A8FFF713FE10B925
:108EE00048F209640BE70498BDF80A108388EB8008
:108EF00003882B81FFF748FD044628E040880220C4
:108F0000F888022020880220448802200C89022050
:108F10001C8102202888022004880220188902204F
:108F200038880220DFF80CA203AA53463146A81D58
:108F3000FFF73EFE044670B9BAF804100498FFF734
:108F400023FD044648F209639C423FF4F7AE002C2F
:108F50007FF4D5AEA5E708223146504608F050F917
:108F6000F0E7002E7FF4A2AE6D4B1A7BB2B11E73F8
:108F70001A78013A062AA4D801A151F822F000BFBC
:108F8000279002004D9002006B9002007190020049
:108F9000C38E0200779002008D9002001A78072A93
:108FA000E6D801A151F822F0C98F0200718F0200AA
:108FB000718F0200EF8F02000390020023900200E5
:108FC00023900200EB8F02001A89564901321A8160
:108FD00000225A801A730A78B2FA82F252099A72FF
:108FE0000A7DB2FA82F25209DA72012207E04E4992
:108FF00058688A884088033202448A8002221A70A4
:10900000B6E7484C5A884849142505FB02420868CF
:10901000546850608888108102228A800C60062281
:10902000EDE70722EBE79A7A32B9DA7A8AB90022B9
:109030001A705A805A6081E63A4900229A72CA68C8
:10904000002AF2D1097C0029EFD05A80FFF7FAFDFF
:1090500052E70022DA72334A116A0029E7D192F806
:109060002420002AE3D00122EFE7FFF7A9FC43E721
:10907000FFF746FC40E706221A702A4A5B88142153
:1090800001FB03235868FFF76FFC35E707221A70CE
:1090900000225A60FFF754FC2EE701228DF80C20C5
:1090A0001A89ADF818209A88ADF81A20DB68059364
:1090B00010E002228DF80C201A89ADF818209A8849
:1090C000ADF81A20DA6805929B7D9A1F53425341EE
:1090D0008DF81C3003A8FFF7D3FB00264946134840
:1090E000C8F8006000F0CEFB0121114800F07DFCC3
:1090F00000287FF4C1ADD4E603228DF80C20DA8875
:10910000ADF818201A89CFE704228DF80C20DB88EF
:10911000ADF81830DEE705238DF80C30DAE700BF34
:1091200028880220448802200C890220F888022026
:10913000088902201C8902204068FFF795BD0000C5
:1091400008B50121044800F03AFC18B9BDE8084010
:10915000FFF78ABD08BD00BF088902202DE9F34151
:109160009846364B1B7806460D46002B5AD00029F0
:109170005BD009884FF6FF73994259D06B88002B5A
:1091800056D06B689B0756D14AB92F890DF1020161
:109190003846FFF785FB30B102B0BDE8F081138897
:1091A0005788ADF8023001A8FFF726FC044660B9E5
:1091B000BDF80230224A142101FB032358890338E9
:1091C000C01B588148F20760E6E780F80080002362
:1091D0008375BDF8023083826B68036101211948F1
:1091E00000F0F8FBE0602B8823816B88A380B8F146
:1091F000030F04BF0423A375E78004BF3368A36192
:109200000025658101A9104800F001FB36B17560A9
:10921000E36833600D4BB5721B893381FFF790FF14
:109220000020B9E748F20160B6E748F20460B3E70E
:1092300048F20360B0E748F20260ADE72088022000
:10924000448802203C880220F888022028880220D6
:1092500008B5084B1A68042A09D01968064A42F86A
:1092600021000121184600F0B5FB002008BD48F29E
:109270000B60FBE714890220108802202DE9F04FD3
:1092800089B01422002103A807F0BAFF784A1378A6
:10929000914603F0FF0B3BB103A8FFF7F1FA00275B
:1092A000384609B0BDE8F08F101D00F0A9FB054657
:1092B0000028F4D140F6F8734FF080521B685C1C14
:1092C00008BF6C4B6C4C08BF1B6811695269581C75
:1092D00008BF02FB01F323610022A3F54053674955
:1092E000E360204600F0EAFB009407460028D7D14F
:1092F0001C238C2262496348634E00F029FAB84669
:109300004FF0030A3C46009BD86858F8003018EB31
:1093100000002ED05D4A934240F0A78042685C492D
:109320008A4214D001318A4223D15A4BBBF1000F3B
:1093300060D10022584918600193FFF781FB019B1F
:109340009B88022B14BF082304231D4335E01421FE
:10935000614373180022725401F110020831586001
:1093600032443144FFF76CFB45F002050134A4B2EE
:1093700023E05A1C02D0454A934230D1031D00F528
:1093800080511A6801322AD104339942F9D1414BF4
:109390001A682AB9022218609A804FF0010B0AE07D
:1093A000142363430221F218F1543C4B50605C805B
:1093B00001341181A4B245F0010508F58058B8F5D3
:1093C000405FA0D1BAF1010F98BF0025EDB2022D88
:1093D00002D0062D1ED03DBB48F20A6760E7142379
:1093E0006343F2180AF1FF3A506003221FFA8AFA27
:1093F000F254BBE714226243B1184FF0020C06F896
:1094000002C01A684A60254AA1F808C05480013495
:10941000A4B28EE7012389F8003003A80023C9F81D
:109420000430FFF72DFA3BE702A8FFF7E5FAC8B1D1
:109430000123013D03700A2D09D8DFE805F0060875
:109440000608070807080F110F000023037102A97F
:109450000C4800F0DCF9FFF773FE21E70323F5E782
:109460000223F3E748F207671AE7013385E700BFF5
:1094700020880220141000101C8102200C210300FF
:109480006C880220F888022044880220DEC0ADDE0D
:10949000FE011EF10C89022010890220288802207A
:1094A00073B50D460446C8B1C1B10DF10601FFF711
:1094B00029FBB0B10C4BBDF806006668142202FB14
:1094C000003001210C3000F085FA2E6063680C3307
:1094D0006B600123A372002002B070BD48F20460EB
:1094E000FAE748F20960F7E74488022013B504461A
:1094F000A8B10DF10601FFF705FB98B10C4ABDF8C4
:109500000630142101FB0323DA6872B1A27A62B13A
:10951000DA680020013ADA60A07202B010BD48F2A9
:109520000460FAE748F20960F7E748F20560F4E7FB
:109530004488022002230022FFF710BE18B1032343
:109540000022FFF70BBE48F20460704713B5114BC1
:109550001B780446ABB14FF6FF73984214D001A8B4
:10956000FFF74AFA98B10523037001230371C48001
:1095700001A9094800F04BF9FFF7E2FD002002B015
:1095800010BD48F20160FAE748F20360F7E748F2DD
:109590000760F4E720880220F888022007B50F4B07
:1095A0001B78A3B101A8FFF727FA98B1062303702F
:1095B00001A90B4800F02BF90A4B1A780AB10122D5
:1095C0001A73FFF7BDFD002003B05DF804FB48F2FD
:1095D0000160F9E748F20760F6E700BF2088022043
:1095E000F88802202888022007B5ADF8060002A8F6
:1095F00020F8041D01460DF10600FFF7D9FA03B06B
:109600005DF804FB13B502AC134624F8020D0A46BC
:1096100000202146FFF7CCFA02B010BD13B502AC12
:10962000134624F8020D0A4620460021FFF7C0FA2F
:1096300002B010BD20B119B103680B600020704763
:1096400048F20460704700002DE9F74F3D4B1B784E
:109650000446002B70D0002871D0122200213A4E0F
:1096600007F0CEFD0323394A23800027B1464FF08F
:1096700014084FF0010A3389718970680B449BB25A
:1096800050B10168914207D1416801F16E6101F565
:10969000FF310231012902D921880139218008FBDB
:1096A00007916088C96801446180708921890144FB
:1096B0002181618919446181C3F58063A1899BB2CD
:1096C000994238BFA381736803F1080503F5805BF5
:1096D000AB4518D92968013115D059462846019261
:1096E000FFF798F90128019A15D021D30228EFD16C
:1096F000E18884F810A0ABEB0503E589013105EBA7
:10970000A305E180E58114361FB1002003B0BDE858
:10971000F08F0127AFE7E1880131E180E1896888B6
:1097200003310144E1816988033105EB8105CFE70D
:10973000A1880131A180F6E748F20160E6E748F22E
:109740000460E3E72088022044880220DEC0ADDE0A
:1097500010B561B1B2FBF3F403FB1424A4B244B915
:10976000C0E9001484608281C381204610BD0E20B0
:10977000FCE70920FAE782B050E8022FC188B2EB7B
:10978000324F4FF0000317BF92B241EA014142EA63
:10979000014104E04268B2EB324F08BF012340E8C8
:1097A0000212002AE8D18DF807309DF80730002B0F
:1097B0000CBF1120002002B0704737B550E8013FC0
:1097C0009DB2C48925448489A54228BF2D1B0489E4
:1097D000A54202BFBFF32F8F002207E0C5EA0305B1
:1097E00040E80154002CE9D14FF001028DF803202C
:1097F0000193019B9DF803200B6002F0FF0322B14F
:109800000B880068184403B030BD1846FBE70A888F
:109810004B889A4209D150E8012FC2EA024240E83F
:109820000123002BF7D1012070470020704737B586
:1098300050E8023F1FFAA3F5C488A54202BFBFF358
:109840002F8F00220DE0C48925448489A54228BFBA
:109850002D1BC3EA054540E80254002CE8D14FF027
:1098600001028DF803200193019B9DF803200B60FA
:1098700002F0FF0322B14B880068184403B030BDEA
:109880001846FBE70A884B889A4209D150E8022F14
:10989000C2EA224240E80223002BF7D101207047A0
:1098A0000020704701F01F024B090121914000EB9D
:1098B000830000F063B84B0910B501F01F040121CB
:1098C000A14000EB830000F04EF8E04000F0010002
:1098D00010BD01F01F0301229A404B0900EB8300E9
:1098E000D14300F061B84B0901F01F0150F823008B
:1098F000C84000F0010070472DE9F0474E1E760980
:1099000080460F460136002558F8254008EB850AA9
:10991000E44394FAA4F4B4FA84F44FEA4519202CF1
:1099200006D10135AE42EFD83C462046BDE8F0876F
:109930004C44A742F5D921464046FFF7BCFF00281A
:10994000F3D0DAF80040E44394FAA4F4B4FA84F4CF
:10995000E5E750E8002F0B4640E8003C9CF0000F84
:10996000F7D11046704750E8002F42EA010340E863
:10997000003C9CF0000FF6D11046704750E8003FC5
:1099800043EA010240E8002C9CF0000FF6D110469B
:10999000704750E8002F02EA010340E8003C9CF0C9
:1099A000000FF6D11046704750E8003F03EA01026D
:1099B00040E8002C9CF0000FF6D11046704750E8AC
:1099C000002F02EB010340E8003C9CF0000FF6D1B1
:1099D0001046704750E8003F03EB010240E8002CBE
:1099E0009CF0000FF6D11046704750E8003FA3EB03
:1099F000010240E8002C9CF0000FF6D110467047A1
:109A00000121FFF7B0BF0121FFF7B8BF0021FFF729
:109A1000C0BF10B590B1D0E9012301689B1ADBB239
:109A20000A60013BDBB2FF2B026802D100201071FB
:109A300010BD11684C1C14600B70F2E70E20F7E7A4
:109A400037B5054602A8002400F8014DFEF798FD41
:109A50002A68696813688B4210D9591E116013F87F
:109A6000014CAA8AEB6802FB04342A68AB681168CF
:109A70005B1A1179DBB2994238BF13719DF8070068
:109A8000FEF7A2FD204603B030BD37B5054602A85B
:109A9000002300F8013D0C46FEF772FD2A681368AA
:109AA000591C1160E968641AA98AB4FBF1F41C70AE
:109AB0009DF80700FEF788FD03B030BD07B50B46E3
:109AC00088B9124B1248134AC01A0E23C0080093DB
:109AD000114B0004114940F00100FDF76DFE0E200E
:109AE00003B05DF804FB4BB9084B09480C4AC01A97
:109AF000C0080E2300930004074BEBE703601B68CC
:109B0000114603B05DF804EB184700BFC8350300E9
:109B100020360300DF1F0300201F0300E41F0300A3
:109B20005B200300F7B580B92D4B2E482E4AC01A92
:109B3000C0080E242D4B009400042D4940F0010074
:109B4000FDF73AFE204603B0F0BD4AB9244B254844
:109B5000284AC01AC0080E2400040094234BECE7E6
:109B6000D0F800C0BCF1000F09D11D4B1D48224A9E
:109B7000C01AC0080824000400941C4BDDE74BB950
:109B8000174B18481D4AC01AC00809240004009445
:109B9000164BD2E78E0709D0114B1248184AC01A4B
:109BA000C008102400040094104BC6E7C668B142F8
:109BB0000BD34C1E05691C44AC4206D8DCF80840A7
:109BC000A44603B0BDE8F0406047054B05480D4A88
:109BD000C01AC008102400040094044BADE700BF75
:109BE000C835030020360300DF1F0300321F0300C7
:109BF000E41F03000D200300552003001420030080
:109C0000182003002F2003002DE9F34188B93D4BB4
:109C10003D483E4AC01AC0080E243D4B0094000443
:109C20003C4940F00100FDF7C7FD204602B0BDE809
:109C3000F0814AB9334B3448374AC01AC0080E2461
:109C400000040094324BEBE7D0F800C0BCF1000FE9
:109C500009D12C4B2C48314AC01AC00808240004F2
:109C600000942B4BDCE74BB9264B27482C4AC01AF3
:109C7000C008092400040094254BD1E74768D7F8B1
:109C80000480B3FBF8F708FB17374FB11D4B1E4894
:109C9000244AC01AC0080924000400941C4BBFE7E2
:109CA0008F0709D0174B18481F4AC01AC008102444
:109CB00000040094164BB3E712F0030F09D0114BC8
:109CC00011481A4AC01AC008102400040094104B0E
:109CD000A6E7C768B9420BD34C1E05691C44AC42C9
:109CE00006D8DCF80C40A44602B0BDE8F04160475D
:109CF000044B05480E4AC01AC00810240004009402
:109D0000034B8DE7C835030020360300DF1F030037
:109D1000441F0300E41F03006120030055200300DB
:109D2000142003006720030091200300A9200300F2
:109D3000CC200300F7B580B92A4B2B482B4AC01A18
:109D4000C0080E242A4B009400042A4940F0010068
:109D5000FDF732FD204603B0F0BDD0F800C0BCF1E5
:109D6000000F09D11F4B2048234AC01AC0080824FD
:109D7000000400941E4BE8E74AB91A4B1A481F4AE0
:109D8000C01AC008092400040094194BDDE7476895
:109D9000D7F800E00EF1FF370F4209D0114B1248FF
:109DA000174AC01AC008102400040094104BCCE7D6
:109DB000C768B9420CD34C1E05690EFB0244AC4285
:109DC00006D8DCF81040A44603B0BDE8F040604778
:109DD000044B05480B4AC01AC00810240004009424
:109DE000034BB2E7C835030020360300DF1F030032
:109DF000571F0300E41F0300552003001420030035
:109E00006A1F0300901F03002DE9F04108B10368A9
:109E1000C3B90E4E0E4B14229B1B0024B3FBF2F36E
:109E2000374602FB03F5A54201D1002008E03B596B
:109E300030190BB91434F6E7DB6998470028F9D0DC
:109E4000BDE8F081DB69BDE8F04118471C810220C4
:109E50004481022029DF704728DF704770B505680C
:109E6000AB6886B004460E4673B1142200216846E2
:109E700007F0C6F9A36805932379019633B1012B46
:109E80000ED0AB686846984706B070BD01238DF8C8
:109E9000003023690293E368039363690493F0E756
:109EA00002238DF80030E3681B030293F5E70846B0
:109EB0007047002070470000024B187A003018BF2E
:109EC00001207047C0890220034B187A0122B0FAA2
:109ED00080F05A7440097047C089022008B51046C6
:109EE0001A4607F082F9002008BD000008B51422C8
:109EF0000021044807F084F90348FFF73CFC0020E8
:109F000008BD00BFC0890220B089022010B5094CED
:109F1000094B43602046FFF773FD40B906F0BCFFD4
:109F20001C2320748C2205490548FFF711FC0020F2
:109F300010BD00BFC0890220002103002489022037
:109F4000B089022070B5244D244E2B7A2C463BB9A3
:109F500023492448FFF76BFC306008B9686070BD86
:109F60000223237233681A7972B1012A24D0184669
:109F70000321FFF773FF0023237263601849194818
:109F8000BDE87040FFF77EBCD3E90520121AB2F598
:109F9000805F28BF4FF48052D3E903159208012A4D
:109FA000014438BF01222844FFF754FF50B1112863
:109FB000DDD101232372D2E7D3E903021044FFF776
:109FC0004BFFF3E7237C002BC9D10146BDE870406D
:109FD000022000F009B800BFC0890220D889022001
:109FE000D4890220B089022038B5831E012B45D8C0
:109FF000234C237A002B41D0022B09D1032830D0E7
:10A00000204B00221B68E2601A793AB1012A22D063
:10A01000637C7BBBBDE83840FFF794BFD3E90512F2
:10A020008D1AB5F5805F94BF521902F580529A617E
:10A030009142EDD102284FF0000308BF1946237268
:10A04000104B18BF0D211868FFF708FF0E490F4885
:10A05000FFF718FCDCE71A6901321A615B699A4262
:10A06000E7E7E3680133082B01D8E360D0E700237A
:10A07000E360DFE7BDE8384006F0FEBE38BD00BF54
:10A08000C0890220D8890220D4890220B089022008
:10A0900000F0FD03012B08D1044B00225A74421E2C
:10A0A000504250411874FFF74DBF7047C0890220DD
:10A0B00010B5064C201DFFF7A3FC28B9637C1BB923
:10A0C000BDE81040FFF73EBF10BD00BFC0890220B1
:10A0D0002DE9F34180460D460F4801A916461F465B
:10A0E000FFF76BFB0446A8B11C22002107F088F89B
:10A0F0002D0B0123237101A9C4F80080A760E5603E
:10A1000066610548FFF783FBFFF7D2FF002002B02E
:10A11000BDE8F0810420FAE7B08902202DE9F74379
:10A1200081468846104801A917461E46FFF745FBA1
:10A130000446B0B11C22002107F062F800250A9BFA
:10A14000A36001A92571C4F80090C4E90378666191
:10A150000548FFF75CFBFFF7ABFF284603B0BDE8FF
:10A16000F0830420FAE700BFB08902202DE9F04710
:10A17000B0F806904479D2F800A09DF8208009FB41
:10A1800004F4043C06460AEB0300A0420F4688BFD5
:10A19000A4EB030A191DC2F800A0B1FBF9F509FBF5
:10A1A00015114DB9A9EB0104544528BF5446BAF125
:10A1B000000F04D1BDE8F0873668013DF1E70431B6
:10A1C0007B1970182246B8F1000F0ED001461846D0
:10A1D000AAEB040A07F009F8D145254436684C4635
:10A1E0004FF0000128BF5446E1E71946F0E7FFF7BA
:10A1F00010BCF8B546790146721E0546002393420D
:10A200002D6803D30024A64202D8F8BD0133F6E737
:10A210000F682846FFF739FC01343946F3E72DE98A
:10A22000F843CD1C868A0746FFF70AFC043E3544F6
:10A230000446B5FBF6F5F0B14FF48073EDB28380C0
:10A24000C680013D076081464FF00008A84512D244
:10A250003846FFF7F5FB064648B163790133637171
:10A2600008F10108C9F8000007608146EEE72046C2
:10A27000FFF7BFFF34462046BDE8F88301210430D4
:10A28000FFF7A8BB10B5012104460430FFF7ADFB72
:10A2900010F0FF0F04D12046BDE81040FFF7A9BF22
:10A2A00010BD1FB504AC44F8042D002200922246D4
:10A2B000FFF75CFF04B010BD33DF70470D4A08B5EF
:10A2C000002313700C4A1360BFF35F8F0B490C48D7
:10A2D00000F090F80B4A0C480121FDF743FF0246BD
:10A2E00030B94FF480410948BDE80840FDF745BF4B
:10A2F00008BD00BF088A02200C8A0220302103001A
:10A30000DC890220C5A302002C210300E889022079
:10A3100070B5264C054601212046FFF71AFBBFF316
:10A320005F8F264638B9042D0AD0214B1A781AB10E
:10A33000BFF35F8F206070BD1E4A157001221A7036
:10A340001D4C1C4D6368BBB9FDF7AAFAFDF7B0F8C8
:10A350000028FBD1174B1B78023B012B14D8BFF30D
:10A360004F8F1649164BCA6802F4E0621343CB6064
:10A37000BFF34F8F00BFFDE71B682878984788B16F
:10A38000204600F040F8DDE706F086FD08B1FFF753
:10A3900093FF4FF080430122C3F80025BFF34F8F96
:10A3A00020BFFDE7BFF35F8F3060C4E70C8A022057
:10A3B000088A0220E4890220DC89022000ED00E006
:10A3C0000400FA05034B1B7813B10420FFF7A0BF6C
:10A3D000704700BF088A0220826800239360826869
:10A3E0001361826853618268D360826853608268B7
:10A3F0001360704701600B6843604A68934204BF72
:10A40000002343607047436843B1026891680B447E
:10A4100043605268934204BF00234360704770B5A5
:10A42000446806460D46206818B1B3682946984727
:10A4300018B923682B60256070BD2468F3E7436872
:10A44000186808B102681A60704743681868704756
:10A450004368186800B970478842026802D11A60E0
:10A460000120704703461046F4E700000D4930B55F
:10A47000A1F594720225914201D800200EE08B1ABA
:10A48000DB1093FBF5F302EBC30452F83330834245
:10A4900005D802D204F10802EDE7606830BD21461C
:10A4A000E9E700BF8C22030008B5FFF7DFFF024B8E
:10A4B000002808BF184608BD4E21030038B5084CD7
:10A4C00004F108030546002818BF1C4623682BB179
:10A4D0001A6822605B6828469847F7E738BD00BFD6
:10A4E000188A022020B9054B01225A70FFF7E6BFF7
:10A4F000012802D1014A9070F8E77047108A0220C3
:10A5000020B9034B01225A70FFF7D8BF704700BF34
:10A51000108A022038B50B4C237883B90A4863604F
:10A52000A3602361E36000F0C7F8054606F0B4FCC1
:10A5300008B900F0CFF801232370284638BD8525DF
:10A54000FBE700BF108A0220E5A4020037B502A88D
:10A550000023094C00F8013DFEF712F8E368013BC7
:10A56000E360E56815B900F0C7F8A5709DF807002D
:10A57000FEF72AF803B030BD108A0220012813B577
:10A5800009D003D303281BD002B010BD0F4B01220A
:10A59000C3F88020F8E702A800230D4C00F8013D25
:10A5A000FDF7EEFF23780BB9FFF7B4FFE3689DF8E2
:10A5B00007000133E3600123A370FEF705F8E3E72A
:10A5C00000F088F8FFF7C2FFDEE700BF00E100E01F
:10A5D000108A02201FB503788DF80030436801937C
:10A5E00083688DF80830C3680393054A054B6846B5
:10A5F00053F8213052F82110984705B05DF804FB5C
:10A60000248A02202C8A02201FB503788DF800309E
:10A610004368019383688DF80830C3680393054A43
:10A62000054B684653F8213052F82110984705B081
:10A630005DF804FB248A02202C8A0220F0B5194B15
:10A640000778DFF870E043F82720174B94460A6933
:10A6500043F827204B7F0EF807300C4606460FCCF8
:10A6600089B06D460FC594E80F0085E80F00337878
:10A6700004971EF8033053B1BCF1000F0B4A694632
:10A6800008BF0022301D00F017FE09B0F0BDBCF17C
:10A69000000F074A694608BF002206F10C0000F0CF
:10A6A000AFFBF2E72C8A0220248A0220D5A5020003
:10A6B00009A60200549C0220054A13792BB90121F6
:10A6C000106011715371184670478520704700BFA4
:10A6D000348A0220074B1A68D2075FBFC02283F872
:10A6E000002301221A604FF080430122C3F818258D
:10A6F000704700BF00E100E0044B01221A604FF0F8
:10A700008042D2F81834DB03FBD470470C000040C1
:10A7100007B5154B1A687AB100221A601B680093BE
:10A72000009B4FF080430122C3F808230F4B587958
:10A7300010B95A711B6898470D4B1A6882B10022F4
:10A740001A601B680193019B4FF080430222C3F8FB
:10A750000823064B1B68012003B05DF804EB184783
:10A7600003B05DF804FB00BF00010040348A022002
:10A770000401004000F1804000F5C040002382B099
:10A78000036003680193019B02B0704703681F2BAD
:10A7900083BF03F01F03036001484FF0A0407047E0
:10A7A0000003005007B502AB43F8040D1846FFF74D
:10A7B000EDFF019B00EB8300D0F8003723F440331A
:10A7C000C0F80037D0F8003743EA0141C0F800175D
:10A7D00003B05DF804FB0000054B4FF0FF32072883
:10A7E00043F8202084BF1B1883F85820704700BF0F
:10A7F0003C8A022010B5164C94F86A3033BBFF2116
:10A80000E2180133302B82F83010F9D10021C8B2A0
:10A81000FFF7E2FF01310C29F9D1062200210D4892
:10A8200006F0EEFC0C4BC02283F8062340221A608F
:10A830004FF4BE70FFF79EFF084B4FF00042C3F885
:10A840000423012384F86A30002010BD0820FCE7AF
:10A850003C8A0220A08A022000E100E00060004063
:10A86000034B93F86A00003018BF0120704700BF07
:10A870003C8A0220F7B5404F3B18044693F930302C
:10A88000002B944675DA8B78C3F34003002B15BF79
:10A890000025082508200C20854202D1042003B0A1
:10A8A000F0BD57F8252001324FEA850649D1381905
:10A8B00047F825C080F8305013B97B1983F8584009
:10A8C0008B785A071BD4D8073DD502A840F8084D0D
:10A8D000FFF75CFF009B00EB8300D0F8003723F00C
:10A8E0000203C0F800372548E20804F0070C0123F2
:10A8F00003FA0CF310F802C043EA0C03835488787F
:10A9000091F800C010F002002AD006F1804303F550
:10A91000C0432402D3F8102522F44F3222F44072AF
:10A92000C3F810254FEA0C4CD3F8102504F47C54DE
:10A930000CF4403C44EA0C041443C3F810450020D6
:10A94000ADE70135A8E702A84A7840F8044DFFF7C3
:10A950001DFF019B03F5E073920040F82320C2E73E
:10A96000083D3D4495F8604044EA8C1C85F860C081
:10A9700095E7082093E700BF3C8A0220A08A0220C6
:10A9800073B5224C2518064695F93020072A1ADDA2
:10A99000224492F858309B09032B10D102A840F8AA
:10A9A000046DFFF7F3FE019AD0F81035D340DB07B2
:10A9B00007D402213046FFF7F5FE02B070BD012B2F
:10A9C000F7D00321F6E7D3B2072BF6D8930003F1B3
:10A9D000804303F5C043D3F8100540F00100C3F8ED
:10A9E000100502F14000800080B2FFF7C3FE00298D
:10A9F000E3D095F9303054F82330002BDDD001231B
:10AA000003FA02F2024BC3F80423D6E73C8A022081
:10AA10000060004007B502AB43F8040D1846FFF78D
:10AA2000B5FE019BD0F81005D84000F0010003B03E
:10AA30005DF804FB2DE9F04F002489B0CDE9024414
:10AA40005F4A604E604D01211368A2F5C040012BA2
:10AA500080B206D1D6F804330B4202D0FFF78AFE4B
:10AA60000C430432AA424FEA4101EDD1574B1B6817
:10AA7000012B0ED14FF4BE70FFF77CFE4FF0A043C8
:10AA800044F00044D3F810350293514BD3F81035FD
:10AA9000039314F0FF0F1AD04E4F002501263442C5
:10AAA00010D0AB0003F1804303F5C043D3F8100589
:10AAB000D3F8101557F82530C0F30520C1F3014134
:10AAC00003B198470135082D4FEA4606E7D1002C1F
:10AAD00072DA04AE0023049373604FF0FF33CDE9C4
:10AAE00006333C4F4FF0010800252C467B1993F9A3
:10AAF0006020531C47D0D2B222F0C00908A84FEA08
:10AB0000D90300EB030B02F007011BF8080C08FA4D
:10AB100001F1084237D007EB0900920990F93000A3
:10AB200057F820A0BAF1000F05D1032A2BD1F05C11
:10AB30000843F05401E0032AF9D001A8CDF80490AD
:10AB4000FFF724FE019B03F5E07350F823301BF858
:10AB5000180C0842C3F3014305D0022B13D1032A7A
:10AB60000BD1114604E0032B0DD1032A05D102219C
:10AB70004846FFF717FE0134E4B2BAF1000F02D0E5
:10AB800011464846D0470135042DAFD1A4B14FF04E
:10AB9000A0430299D3F8102503F540739142D3F8EE
:10ABA000103502D10399994206D002920393049A78
:10ABB000059B0692079397E709B0BDE8F08F00BFA9
:10ABC0000061004000600040206100407C61004066
:10ABD000000300503C8A0220014B1B68184700BF4D
:10ABE000A88A02200D4B984237B50D4610D102A815
:10ABF000002300F8013DFDF7C3FC094B1C7914B993
:10AC000001221D601A719DF80700FDF7DDFC14B9E3
:10AC1000002003B030BD1120FBE700BF0020004042
:10AC2000A88A02200023435082B043580193019B1D
:10AC300002B070470A4610B54FF48E71FFF7F2FF6D
:10AC4000136A9168C95C136A01331362C0F81C155A
:10AC500010BD08B502464FF492710068FFF7E2FF9D
:10AC60004FF484711068FFF7DDFF136801221A604A
:10AC700008BD10B58B690A464FF4847123B9FFF7FC
:10AC8000D1FFD0F8183510BDFFF7CCFF536AD1685B
:10AC9000D0F81805C854536A01335362F3E7000033
:10ACA0001FB501238DF80030044BCDE90110D3E925
:10ACB00000126846904705B05DF804FBB08A022098
:10ACC00030B54D4AD2F8043313F4007F85B01546F1
:10ACD0004FD0D2F82431002B4BD04FF49271104654
:10ACE000FFF7A0FF4FF40173C2F80833434B93F80A
:10ACF000291009B9012151603F4902228DF8002035
:10AD0000D1F88024C1F8802403929A690292DA680B
:10AD100001920022C3E906226846D3E90012904757
:10AD20003548D0F81C315BB134494A690B6A9A4204
:10AD30000A464CD991F82830002B48D1FFF77AFF0A
:10AD40002D4AD2F8443193B14FF4A2711046FFF767
:10AD500069FF2A4B93F8291009B1012111609A6902
:10AD60002AB100229A61586AD968FFF799FF05B0A5
:10AD700030BDD5F804335B07D2D5D5F80831002BA8
:10AD8000CED01E4C1C482146FFF773FF636AA269B0
:10AD90009A422346C4D1E26952B12369E168E36073
:10ADA0000023606AA261E3616362FFF779FFB7E79E
:10ADB00094F829200AB901226A600F4A4FF4017100
:10ADC000C2F8081300229A61586AD968EDE74FF477
:10ADD0008E710948FFF726FF5369002BB0D05169E7
:10ADE0000291002391688DF800300191536168460B
:10ADF000D2E900139847A3E700200040B08A022060
:10AE00002DE9F8436C4F067991462C2202FB06721D
:10AE1000054692F82A200C46002A40F0C680674971
:10AE20000068FFF7DFFE8046002840F0C1802368FD
:10AE30005A1C19D01F2B4FF001028ABF60494FF0F6
:10AE4000A04103F01F0302FA03F3C1F80835236899
:10AE50001F2B86BF03F01F03594A4FF0A04203F592
:10AE6000E073032142F8231061684B1C0BD01F29AB
:10AE700086BF01F01F01524B4FF0A04301F5E07176
:10AE8000002243F821202B68A269C3F82425217DE4
:10AE9000637D2A680B43C2F86C35D4E900122B6835
:10AEA000C3F81425C3F80C15237D012B32D1A168FA
:10AEB000481C0BD01F2986BF01F01F01404B4FF0EB
:10AEC000A04301F5E071002243F82120E3685A1CF9
:10AED00019D01F2B4FF001028ABF39494FF0A04112
:10AEE00003F01F0302FA03F3C1F80835E3681F2BD0
:10AEF00086BF03F01F03324A4FF0A04203F5E07310
:10AF0000032142F82310D4E902122B68C3F8082564
:10AF1000C3F810152C237343FA18C2F80490226961
:10AF2000FA50B9F1000F2DD04FF48E712868227FAE
:10AF3000FFF778FE4FF4A2712868FFF773FE2B68C5
:10AF40002049C3F804132968090B4BB2002BAEBF8C
:10AF500003F1604301F00F011B4B4FEA4212D2B2E2
:10AF6000AABF03F561435A5483F800232B681B0BD7
:10AF70005AB2012103F01F0301FA03F352091349E6
:10AF800041F822302B680422C3F800252C2303FB50
:10AF900006730022C3E9062283F829205A610122A0
:10AFA00083F82A204046BDE8F8834FF00808F9E707
:10AFB0004FF01108F6E700BFB08A0220C1AC0200D2
:10AFC000000300508000020014ED00E000E100E00A
:10AFD0002DE9F047224B07794FF02C0909FB073484
:10AFE000064665699846002D36D16261A1602562EA
:10AFF00084F828504FF48E710068FFF713FE336811
:10B0000001229A6021463068FFF714FE6368A1466A
:10B0100023BB3568D4F814A0236A9A4511D8336845
:10B02000D3F81C21002AFBD00122DA6000202C2357
:10B0300003FB078700237B61BDE8F08794F8283085
:10B0400043B9D5F81C31002BF8D049462846FFF704
:10B05000F1FDE1E70F20EAE71120EDE72846EBE7F5
:10B06000B08A02200379044A2C2101FB032358698A
:10B07000003018BF01207047B08A02202DE9F84344
:10B08000384E05792C2303FB056307465C6824B121
:10B0900003684FF40170C3F808032C2303FB056316
:10B0A000986950B1D86900283ED024B13B684FF46C
:10B0B0000172C3F80423112034E09A61D960586208
:10B0C000D8612C2303FB056393F829301BB910B911
:10B0D0003846FFF7BEFD4FF02C0909FB05683868BC
:10B0E000D8F80430002B34D14FF4A271FFF79AFD49
:10B0F000C1463868D0F82431D0F80821D0F844414E
:10B10000B2B90CB9002BF4D02C2202FB0565002249
:10B11000AA611BBB24BB95F829103B680122B1B181
:10B120001A600020BDE8F8831961DA610120C8E7E0
:10B13000002BE9D1002CE7D14946FFF79AFDD8F85A
:10B140002430D8F818209A42D3D82346DCE75A6036
:10B15000E7E74FF40173C0F80433E2E70320E1E7C7
:10B160000F20DFE7B08A02200023435082B043580B
:10B170000193019B02B070471FB501238DF8003089
:10B18000044BCDE90110D3E900126846904705B0A1
:10B190005DF804FBDC8A02207FB5454AD2F82461C1
:10B1A000002E63D010464FF49271FFF7DDFF0223AB
:10B1B0008DF80030D2F88034C2F880340393D2F88E
:10B1C0003C3502933B4BDA6801920022C3E9062228
:10B1D0006846D3E900129047354AD2F844317BB132
:10B1E0004FF4A2711046FFF7BFFF324B996939B196
:10B1F0000021C3E90611D968D2F83C05FFF7BCFF6E
:10B200002B4AD2F82031B3B14FF490711046FFF7BA
:10B21000ABFF0123D360274B596961B1D2F84C15BC
:10B220000291002299688DF8002001915A616846C8
:10B23000D3E9001290471E4AD2F85831A3B14FF417
:10B24000AC711046FFF790FF1A4B596961B1D2F803
:10B250004C150291002299688DF8002001915A61E5
:10B260006846D3E90012904704B070BDD2F810319F
:10B27000002BB1D04FF488711046FFF775FF0D4BCE
:10B28000D2F83C0599698842A6D1DC69D96864B1D5
:10B29000D2F8005225F02005C2F800521A699C61CC
:10B2A000DA60DE61FFF768FF96E79C61FAE700BFAE
:10B2B00000200040DC8A02202DE9F843724F067915
:10B2C0009146242202FB0672054692F820200C4685
:10B2D000002A40F0D3806D490068FFF783FC804668
:10B2E000002840F0CE8023685A1C19D01F2B4FF045
:10B2F00001028ABF66494FF0A04103F01F0302FA22
:10B3000003F3C1F8083523681F2B86BF03F01F0322
:10B310005F4A4FF0A04203F5E073032142F8231087
:10B3200061684B1C0BD01F2986BF01F01F01584BD1
:10B330004FF0A04301F5E071002243F821202B6873
:10B34000A269C3F82425217D637D2A680B43C2F8D6
:10B350006C35D4E900212B68C3F80C25C3F814150B
:10B36000237D012B32D1A168481C0BD01F2986BF39
:10B3700001F01F01464B4FF0A04301F5E0710022A0
:10B3800043F82120E3685A1C19D01F2B4FF001020B
:10B390008ABF3F494FF0A04103F01F0302FA03F3B5
:10B3A000C1F80835E3681F2B86BF03F01F03384A36
:10B3B0004FF0A04203F5E073032142F82310D4E9D3
:10B3C00002122B68C3F80825C3F810152423734311
:10B3D000FA18C2F804902269FA50B9F1000F3CD073
:10B3E0004FF488712868227FFFF7BEFE4FF49071FA
:10B3F0002868FFF7B9FE4FF492712868FFF7B4FE92
:10B400004FF4A2712868FFF7AFFE4FF4AC712868C3
:10B41000FFF7AAFE2B681F49C3F804132968090B1C
:10B420004BB2002BAEBF03F1604301F00F011A4B8A
:10B430004FEA4212D2B2AABF03F561435A5483F8CD
:10B4400000232B681B0B5AB2012103F01F0301FAE2
:10B4500003F35209114941F822302B680822C3F83E
:10B460000025242303FB06730022C3E906225A6148
:10B47000012283F820204046BDE8F8834FF00808F9
:10B48000F9E74FF01108F6E7DC8A022099B10200D3
:10B49000000300501003420014ED00E000E100E062
:10B4A00001F06043B3F1005F2DE9F04106463BD166
:10B4B000204B0779242505FB073598466C69002C3D
:10B4C00034D16A61A96000684FF49071FFF74CFEB7
:10B4D0004FF4AC713068FFF747FE33686A69A968BA
:10B4E000C3F84415C3F84825336801229A606B6895
:10B4F000F3B93368D3F82011D3F8582119B9002AC9
:10B50000F8D00F2009E0002AFBD10122DA6032686E
:10B51000D2F85831002BFBD00020242303FB0787EF
:10B5200000237B61BDE8F0811020FBE71120F9E7E3
:10B530002046F7E7DC8A02200379044A242101FB34
:10B5400003235869003018BF01207047DC8A0220AD
:10B55000F8B501F06043B3F1005F04460F4660D1D7
:10B560000379314D242101FB0351486820B1216842
:10B570004FF40476C1F80863242101FB03539E694C
:10B5800056B1D96900293BD020B123684FF4047229
:10B59000C3F80423112032E09A61DF60DE614FF4CA
:10B5A00088712068FFF7E0FD4FF4A2712068FFF773
:10B5B000DBFD2368C3F83475C3F8382523681EBB48
:10B5C00001221A6022792368242101FB0251496873
:10B5D00009BBD3F81041D3F84411D3F8240114B9AE
:10B5E00009B90028F5D0242303FB02550023984213
:10B5F00014BF032018469942AB6118BF0F20F8BD55
:10B600001F61DA610126CAE7D3F8002242F0200266
:10B61000C3F80022D6E74FF40472C3F804230020D5
:10B62000EDE71020EBE700BFDC8A02201F288ABF6D
:10B63000094B4FF0A04300F01F0003EB8000D0F84F
:10B64000003723F44033C0F80037D0F8003743EA1E
:10B650000141C0F800177047000300500220FCF7BA
:10B660008FB900002DE9F04781460D46FCF7B6F989
:10B670000328044604D8012D04D024D3022D2FD052
:10B68000BDE8F087194D47003A18A918AE5C4A7812
:10B6900052B1DFF86880164842464FF48041FCF70B
:10B6A0006CFD08B988F800903B192B449A78114B2F
:10B6B0001A55002EE4D0104B1B68002BE0D030460A
:10B6C000BDE8F04718470A48FCF76FFD074B04EB4D
:10B6D000440213449E78074B1B5DB342D0D1E8E788
:10B6E000024B00EB40041C446678E2E7688B0220C2
:10B6F000288B0220818B02207C8B0220008B022071
:10B7000002210078FFF7AEBF08B5094B1B7853B193
:10B710000020FCF703F90120FCF700F90320BDE845
:10B720000840FCF7FBB8BDE80840FCF70BB900BFC8
:10B73000018B0220F8B57B4C237805461BB1002312
:10B740002370FFF7E1FF172D00F28880DFE805F096
:10B750000C17174354657680888D888D959A9A9A30
:10B760009A9AC4C9D1D9E4E4FFF7CEFF6E48FCF73A
:10B770001CFD6E4B002204461A702046F8BD0020C6
:10B78000FCF7A4F8F8B10020FCF7C8F8022D0CBFB4
:10B790004FF4E1614FF47A61644B1D704FF4004047
:10B7A0004FF47A740025E0FB01454FF4FA62002360
:10B7B0002046294606F0AEF9002201465A48BDE867
:10B7C000F840FCF7DABCFCF795F8022D0CBFC82155
:10B7D0004FF4C871E0E70020FCF778F840B1002092
:10B7E000FCF79CF84FF44871504B03221A70D5E7D0
:10B7F000FCF780F8C821F7E70020FCF767F838B1BC
:10B800000020FCF78BF84FF47A61484B0422EDE7F7
:10B81000FCF770F84FF4C871F7E70020FCF756F812
:10B8200048B10020FCF77AF8404B05221A7040F628
:10B83000CD410022C2E7FCF75DF8F5E70020FCF7F8
:10B840009FF83A4B06221A70002240F26661B5E773
:10B850000020FCF74FF8354B07221A7000248CE7C4
:10B8600001202070FCF78CF8EEE701202070FCF737
:10B8700087F800224FF40051A0E7FCF772F82B4B39
:10B880000C22EAE72A482B4EFCF78FFCD5F1110574
:10B8900004461CD0D8B9012D13D0C8235D434FF402
:10B8A00000474FF47A7000214FF4FA620023C7FB7F
:10B8B000050106F02FF9224601461D48FCF75DFC04
:10B8C00004460220FCF716F80123337055E70220E6
:10B8D000FCF724F80023F8E7FFF716FF134B1222BA
:10B8E000BBE7FFF711FF0020FCF704F80F4B132212
:10B8F000B3E7FFF709FF0120FBF7FCFF0B4B142216
:10B90000ABE7FFF701FF0020FBF7F4FF0120FBF797
:10B91000F1FF064B1522A0E7FCF723F8034B1D703F
:10B920009CE700BF788B0220488B0220808B02208E
:10B93000088B0220018B0220044B1B68DB0703D518
:10B94000034B1878FFF7F6BE704700BF748B0220D8
:10B95000808B0220032801D8FCF72CB80020704708
:10B96000044B1B6813F0010301D0FFF7E3BE184638
:10B97000704700BF748B022038B51C4B18601C4BFD
:10B9800010F00204054619601AD01A4B1A480E220C
:10B990001A700F22DA7010229A7111225A72042141
:10B9A00040F23332FCF744FA044648B9FCF798FAFF
:10B9B000044628B90146114A1148FCF7D3FB044656
:10B9C000EB0711D50120FCF721F86CB921460D4A8F
:10B9D0000D48FCF7C7FB044630B90C4A0C4801215E
:10B9E000BDE83840FCF7BEBB204638BD748B022052
:10B9F0007C8B0220688B02206826030001B70200BE
:10BA00008C26030039B90200902603005DB60200BF
:10BA100088260300032812D8012A0BD1012908D156
:10BA200000F10E02D2B200EB40000C4B1A54002081
:10BA3000704700220129F6D009D3022901D007203E
:10BA40007047064B00EB400018444270EFE7034B91
:10BA500000EB400018448270E9E700BF688B0220C9
:10BA6000032808B506D8FBF7CBFF0321FFF7DEFD5F
:10BA7000002008BD0620FCE708B5012202210020B5
:10BA8000FFF7C8FF08B1072810D1072202210120C3
:10BA9000FFF7C0FF08B1072808D100210A22084695
:10BAA000FFF7B8FF10B1072808BF002008BD00004D
:10BAB00010B50388102B02D0112B1ED010BD1A4CCC
:10BAC0002168B1B901220846FFF7A4FF08B1072891
:10BAD00024D1072202210120FFF79CFF08B107288B
:10BAE0001CD1042202210020FFF794FF08B107288F
:10BAF00014D1236801332360E0E70B4A1368013B4C
:10BB00001360002BDAD1FFF7B7FF0028D6D0074B20
:10BB10001B68002BD2D0BDE810401847034B1B68B0
:10BB2000002BE6D09847E4E78C8B0220888B02201C
:10BB300008B50020FFF794FF08B1062806D10120C0
:10BB4000FFF78EFF10B1062808BF002008BD0000D7
:10BB50000D4B10B518600C4629B10120FFF7FAFE15
:10BB600040B102232370094B1B6853B9BDE8104054
:10BB7000FFF782BFFFF7EEFE08B10B23F2E720705C
:10BB8000F1E7002010BD00BF888B02208C8B0220C3
:10BB900041DF704774DF704776DF70477ADF7047A8
:10BBA0007CDF704788DF704789DF70478FDF704721
:10BBB000FCF7ACB908B50020FFF7D2FE08B1FCF7DE
:10BBC000A5F9FFF7B5FF08B1FCF7A0F905F024F9D6
:10BBD00018B1BDE80840FCF799B908BD13B5038852
:10BBE0001C2B044656D005D8102B25D0112B1BD06A
:10BBF00002B010BD3B2B37D0562B44D0212BF7D1B0
:10BC0000294B2A482A49C01AC008000440F0040001
:10BC1000FBF7BAFD02A9002321F8043DA088FFF735
:10BC2000C5FF0028E4D01CE0224B00221A70224BF2
:10BC30001888FFF7B9FFDBE70720FFF791FE08B18F
:10BC4000FCF764F9A1881C4C1C48218002F04CFED2
:10BC50000022034611462088FFF7A4FF002BC7D01F
:10BC60001846FCF753F9C3E710480F4B1449C01AA4
:10BC7000C008000440F00400FBF786FD1321A088F3
:10BC8000FFF78AFFCDE70948074B0E49C01AC008E5
:10BC90000004EFE7074B90F9082093F90010914258
:10BCA00018BF1A70A4E700BFC8350300F0350300C1
:10BCB00051280300F193022048800220E4930220DF
:10BCC000652803007A28030010B5044603F07BFDC5
:10BCD0002046BDE8104003F083BD000030B58DB0B4
:10BCE000042850D8DFE800F0032C37404800294BE7
:10BCF000294C2A49E41AE408240444F003042046A9
:10BD0000FBF742FD2C22002101A805F079FA00255D
:10BD100001234FF4967201A921488DF80830CDE92E
:10BD200005258DF8043001F057FA29461D4801F029
:10BD3000F1FC1D4902462046FBF72AFD0DB030BD3F
:10BD40001548144B1949C01AC008000440F00300FC
:10BD5000FBF71AFDF2E710480E4B1549C01AC00850
:10BD6000000440F00100F3E7124805F079FA81B2CF
:10BD7000104804F003FEE1E70748064B0E49C01ADD
:10BD8000C0080004EDE70448024B0C49C01AC00883
:10BD90000004E6E7C8350300F0350300512703002F
:10BDA000988F0220F1BE02007F2703009627030030
:10BDB000B9270300F2270300FD2703002A28030008
:10BDC000022810B50ED1084B084C0949E41AE408C2
:10BDD000240444F003042046FBF7D6FC0549204622
:10BDE000FBF7D2FC012010BDC8350300F03503007D
:10BDF000F52603002227030010B443685BB1154801
:10BE0000154B16495DF8044BC01AC008000440F0F9
:10BE10000300FBF7B9BC0378012B04D0022B10D030
:10BE20005DF8044B70470C4B0A4C02690C49E41A4C
:10BE3000E4088368240444F003005DF8044BFBF736
:10BE4000B1BC054B034C02690649E41AE40824041A
:10BE50008368F0E7F0350300C8350300F2280300DB
:10BE60003329030067290300032807D14FF08043DB
:10BE7000A922C3F820250020FEF74ABA7047000027
:10BE800038B50378012B18D002D3022B15D038BD5A
:10BE90000C4D0D4C28882044FCF734FB2B880133D3
:10BEA0009BB21C442B8014F8012C0A2A01D0132BBE
:10BEB000EDD9064B01221A80E9E74068BDE8384019
:10BEC000FCF724B8928D0220908B0220908D0220E6
:10BED00008B503784BB9054B3B211888FFF75CFE8A
:10BEE00018B1BDE80840FCF711B808BD4880022031
:10BEF00010B5132102460B4CFFF74EFE0A4BE41A15
:10BF0000E4082404034630B144F002000749BDE8C8
:10BF10001040FBF747BC44F004000549BDE8104061
:10BF2000FBF736BCF0350300C83503008F2803004B
:10BF3000D0280300072808B513D00A280DD00428FC
:10BF400019D10D4B13211888FFF726FE30F0080396
:10BF500011D0BDE80840FBF7D9BFBDE80840FFF7A6
:10BF600029BE054B1A884FF6FF739A4203D1034846
:10BF700001F014F9EAE708BD48800220988F0220FA
:10BF800008B548B103280BD10220FFF7E9FC38B10E
:10BF9000BDE80840FBF7BABFBDE80840FFF70ABE9E
:10BFA00008BD0000F8B5037805464BBB1F4B204C7D
:10BFB0002049214FE41AE408240444F0030044F02B
:10BFC0000404FBF7E1FB20461C49FBF7DDFB2046A0
:10BFD000AA8A29691A4CFBF7FBFB05F11406238892
:10BFE00029693246384604F0BBFB082817D01328CD
:10BFF000F5D0052813D090B1BDE8F840FBF786BF17
:10C00000022B0DD1094B0A480E49C01AC008000482
:10C0100040F00300FBF7B8FB0B4B01221A70F8BD90
:10C02000032BFCD1084B0022F8E700BFC835030002
:10C03000F03503009A2B030050800220AE2B030042
:10C0400048800220E02B0300F0930220FBF75EBF44
:10C0500030B50024ADB02146AC2201A88DF80340D4
:10C0600005F0CEF8062202238DF807200DF1030219
:10C07000012521468DF804300292ADF850302C2273
:10C08000164B8DF806501FA8159305F0B9F84FF41C
:10C090009673CDE9233401A9114B12488DF88050D5
:10C0A0002A93114C00F0BAFE104B1149E41AE4082F
:10C0B000240444F00304054602462046FBF768FBCF
:10C0C00015B12846FBF722FF20460A49FBF75CFB27
:10C0D0000121044800F09FFE2DB030BD40800220B9
:10C0E00081BF0200988F0220F0350300C83503009D
:10C0F000AC260300CC26030010B504462046FDF70D
:10C1000083FE00B910BDFFF743FDF7E72DE9F04FBF
:10C11000B14BB24CB24FB349E41AE408240444F0E2
:10C12000030593B02846FBF72FFB0FCF0BAE0FC6CE
:10C1300097E80300AC4BAD4A07934FF4007386E8D1
:10C140000300CDE909230893A94A072307A90BA8EF
:10C15000FCF780F908B1FBF7D9FE4FF480410020CD
:10C16000FBF77EF908B1FBF7D1FEFBF7C1F8FBF74F
:10C17000C7FF08B1FBF7CAFE9E492846FBF704FB40
:10C1800000229D499D48FDF799FC08B1FBF7BEFED2
:10C1900040F6F8734FF478311B689848013304BFB8
:10C1A000974B1B684FF080531A695B69954A0023CF
:10C1B00000930423FDF728FD08B1FBF7A7FE8F4885
:10C1C000FFF79AFF04F0E2FC08B1FBF79FFEFEF7D1
:10C1D00075F808B1FBF79AFE8B490320FFF7CCFBFB
:10C1E00008B1FBF793FE0BA90020FFF7B1FC08B1E3
:10C1F000FBF78CFE9DF82C7004F0D2FD08B1FBF724
:10C2000085FE00230BA901200B9304F095FE08B1D5
:10C21000FBF77CFE0BA804F061FF08B1FBF776FE8C
:10C22000784E7A4A7A4932602846FBF7B1FA002301
:10C2300000933246042377497048FDF7E5FC08B1C6
:10C24000FBF764FE744E6D48FFF756FF202332461D
:10C250004FF47C316948FDF765FC804610BB3378AC
:10C26000FF2B40F071816D496D4804F0F1FF2022F1
:10C270006B49304604F0B9FF434601224FF47C314C
:10C280005E48FDF757FDCDF80080202332464FF47D
:10C290007C315A48FDF7B8FC08B1FBF737FE574828
:10C2A000FFF72AFF5F492846FBF76EFA03F028F8EC
:10C2B00008B1FBF72BFE052200210BA804F0A0FF1C
:10C2C0009DF82C3043F00103032203F0F10362F3E5
:10C2D00006136FF3C7138DF82C3007238DF82D301C
:10C2E00010238DF82E309DF82F3013438DF82F300A
:10C2F0009DF830300BA813438DF8303003F046F82A
:10C3000008B1FBF703FE484803F028F808B1FBF733
:10C31000FDFD112342488DF81C3004F0A1FF404977
:10C3200082B207A8FFF73CFC08B1FBF7EFFD08223B
:10C3300000210BA804F064FF3C4A4FF0C8730BA81F
:10C34000CDE90B23FFF72AFC08B1FBF7DFFD002145
:10C35000374802F02DF908B1FBF7D8FD35492846DA
:10C36000FBF712FA002306930B9307A9324B3348CD
:10C37000079302F0A7FA08B1FBF7C8FD304B0B9307
:10C380000BA804F087FB08B1FBF7C0FD00210422D5
:10C3900006A804F035FF2B4B2B48069306A904F0A2
:10C3A0006BF908B1FBF7B2FD28492846FBF7ECF919
:10C3B000FFF74EFE1F492846FBF7E6F91C22002135
:10C3C0000BA804F01DFF00234FF4A032CDE90B327F
:10C3D000ADF83A303CE000BFC8350300F03503004B
:10C3E000942603009D290300F2930220F295022077
:10C3F00081BE0200AA2903000C2103003081022023
:10C40000141000104C80022035BF0200EFBEADDEDC
:10C41000C129030000E1030020800220D829030085
:10C4200074800220DF290300C9BC02005000A00074
:10C43000CC930220F3290300B1BB0200E493022055
:10C44000DDBC0200A5BF020050800220032A0300C9
:10C450004FF4F0228DF83C30914B0D921093032253
:10C46000904B8DF838200BA8119300F0C3FF08B152
:10C47000FBF74CFD8C492846FBF786F9022F69D162
:10C480008A492846FBF780F902F0ACFF08B1FBF7B8
:10C490003DFD874F874DBB46B7F80080B8F1010FCF
:10C4A00031D12B88844E012B61D8DFF80C822B8888
:10C4B000A8EB0602934279D8804A1278CAB1022BBF
:10C4C00017D97F4EDFF8F081DFF864922B8812AA2B
:10C4D000023B22F81C3D41463388484604F040F9AF
:10C4E000082806D01328F1D0052802D008B1FBF7A0
:10C4F0000DFD00264FF4007231466F482E8004F087
:10C500007FFEABF80060DFF8DC81B8F80030012B6B
:10C51000C2D1DFF8B0A1DFF8C89144F0010356465C
:10C520000393B9F80030A6EB0A029A42C0F04481A6
:10C5300000264FF4007231466248A9F8006004F00A
:10C540005FFEA8F80060A7E7202231465E4804F0AD
:10C550004CFEA7E603215D4800F0D7FC08B1FBF7CD
:10C56000D5FC5B4944F00400FBF70EF991E7022289
:10C570005849304604F07CFE002896D15648B5F85C
:10C58000009004F06DFE54490246304604F070FEFF
:10C59000A8B952494B4804F03BFE4A4804F060FEFB
:10C5A0004F4B18804F4BA3F80080A2E798F800008B
:10C5B000FBF7BEFF1128F9D008F1010877E74A48D8
:10C5C00004F04EFE814515D1474804F049FE464926
:10C5D0000246304604F04CFE60B9BFF34F8F43492A
:10C5E000434BCA6802F4E0621343CB60BFF34F8F42
:10C5F00000BFFDE73F483A4EDFF8E88004F030FE28
:10C600003C4902462C4804F033FE28B93A4A3B49DB
:10C610002C4804F0FDFD12E0394804F021FE3849B1
:10C620000246254804F024FE88B9364B93F90020D1
:10C630000AB13549ECE73549224804F0E9FD2148C3
:10C6400004F00EFE01233080A8F8003051E7304896
:10C6500004F006FE2E490246174804F009FE38B9D8
:10C66000284B93F900300BB12A49E5E72A49E3E763
:10C670002A4804F0F5FD294902460F4804F0F8FD68
:10C68000002857D12023264A26484FF47C31FDF755
:10C6900049FA08B12449CFE7214A2449B8E700BF45
:10C6A000D1BE02004DC00200162A03003A2A030040
:10C6B000908D0220928D0220908B0220F093022018
:10C6C00048800220948D022074800220988F0220DE
:10C6D000472A03005E2A0300612A0300652A03003B
:10C6E000968F0220948F02206C2A030000ED00E058
:10C6F0000400FA05772A0300F22703007F2A0300CB
:10C70000932A0300F19302209C2A0300B22A03001B
:10C71000CA2A0300D52A0300F62A03001A2B0300B5
:10C720002080022030810220232B0300322B0300C3
:10C73000508002203B4804F093FD3A4902463A48B3
:10C7400004F096FD98BBB9F10A0F2ED9FFF708F94E
:10C7500008B1FBF7DBFB354B93F85400FFF71AFAEF
:10C7600008B1FBF7D3FB20220021A9F10A093048C8
:10C7700004F046FD4A462F492D4804F036FD12A824
:10C78000112300F81C3D1FFA89F22949FFF708FA26
:10C7900008B1FBF7BBFBFFF75BFC0321234800F06C
:10C7A000B4FB8146D8B1FBF7B1FB234944E71E49EE
:10C7B000224804F04DFD42E730780592FBF7B8FEC1
:10C7C00058B111280490059AF6D003981C49FAF73D
:10C7D000DFFF049B1846FBF799FB0136A1E60146F3
:10C7E0002022184804F00CFD20221149154804F0BD
:10C7F000FCFC4B4601224FF47C311348FDF79AFABA
:10C80000CDF8009020230F4A0F484FF47C31FDF7FC
:10C81000FBF908B1FBF77AFB0B48FFF76DFC094AFF
:10C820000A49F5E6482B0300908B0220988F0220DE
:10C8300074800220988B0220512B0300948D0220DB
:10C84000742B030020800220308102205F2B030024
:10C8500013DF704738B540F6F873134C1D68134B5F
:10C86000E41AE4086A1C4FEA044403D1104B1D6823
:10C870006B1C11D02A460F4944F00300FAF788FFD9
:10C880002846FFF7E5FF054620B10B4944F00100BB
:10C89000FAF77AFF284638BD084944F00100FAF754
:10C8A00073FF0425F6E700BFF0350300C835030029
:10C8B00014100010FA2B0300252C0300582C030041
:10C8C00038B50B4B0B4C0C4A0C49E41AE408240411
:10C8D00044F00300FAF75CFF0748FFF7B9FF05468D
:10C8E00020B1074944F00100FAF74EFF284638BD51
:10C8F000C8350300F035030000700200702C0300FF
:10C90000252C03006DDF704779DF70477DDF7047AE
:10C9100064DF70472DE9F74F0C9CBDF834B02788D1
:10C92000002580468A4691462E46B8F80020B2423D
:10C930000BDC35B12288013AD21B92B2FF2A39D8DA
:10C94000DA55002003B0BDE8F08FD8F8042052F883
:10C950002600019000220DF1030101A8FFF7D8FF86
:10C960000028EFD19DF803204A4521D12288002DCF
:10C9700014BF0020022002EB09010144594519DCD3
:10C980003DB9013292B2228003F802A0228801321E
:10C99000228022880DF103011A4401A8FFF7B8FF95
:10C9A0000028CFD121889DF803200A442280012548
:10C9B0000136BAE70C20C5E72DE9F341089CBDF824
:10C9C00024501746CDE9004502220646FFF7A2FF94
:10C9D00048B9102239463046CDE9084502B0BDE8D5
:10C9E000F041FFF797BF02B0BDE8F0812DE9F04FAD
:10C9F00000231688138090F82D3085B007460D4629
:10CA0000144653B3082E01D80C2026E102A8FFF7E4
:10CA100079FF002840F0218113880822CA54238816
:10CA200001339BB21B222380CA542088013080B27C
:10CA3000208006220DF10901284404F0D6FB23884A
:10CA40009DF8082006339BB212F0FE0218BF0122A7
:10CA50002380EA54238801332380BB78FBB12388E9
:10CA60000433B342D0D802A8FFF74EFF002840F0AD
:10CA7000F48023880322EA54238801339BB21922CD
:10CA80002380EA542388BDF8082001339BB2E918BB
:10CA90002380EA54120A4A70238802332380FA78EA
:10CAA0009AB12388D91CB142AED80221E954238817
:10CAB00001339BB201212380E95423880B449BB2AC
:10CAC0002380EA5423880B4423807A68AAB1238800
:10CAD000D91CB14298D8022192F90020E954238848
